
PWIR20-SJ-mainboard-firmware.elf:     file format elf32-littlearm

Sections:
Idx Name          Size      VMA       LMA       File off  Algn
  0 .isr_vector   000001d8  08000000  08000000  00010000  2**0
                  CONTENTS, ALLOC, LOAD, READONLY, DATA
  1 .text         000097c0  080001d8  080001d8  000101d8  2**2
                  CONTENTS, ALLOC, LOAD, READONLY, CODE
  2 .rodata       00000058  08009998  08009998  00019998  2**2
                  CONTENTS, ALLOC, LOAD, READONLY, DATA
  3 .ARM.extab    00000000  080099f0  080099f0  000201b4  2**0
                  CONTENTS
  4 .ARM          00000000  080099f0  080099f0  000201b4  2**0
                  CONTENTS
  5 .preinit_array 00000000  080099f0  080099f0  000201b4  2**0
                  CONTENTS, ALLOC, LOAD, DATA
  6 .init_array   00000004  080099f0  080099f0  000199f0  2**2
                  CONTENTS, ALLOC, LOAD, DATA
  7 .fini_array   00000004  080099f4  080099f4  000199f4  2**2
                  CONTENTS, ALLOC, LOAD, DATA
  8 .data         000001b4  20000000  080099f8  00020000  2**2
                  CONTENTS, ALLOC, LOAD, DATA
  9 .bss          00001458  200001b4  08009bac  000201b4  2**2
                  ALLOC
 10 ._user_heap_stack 00000604  2000160c  08009bac  0002160c  2**0
                  ALLOC
 11 .ARM.attributes 00000030  00000000  00000000  000201b4  2**0
                  CONTENTS, READONLY
 12 .debug_info   0001ace7  00000000  00000000  000201e4  2**0
                  CONTENTS, READONLY, DEBUGGING
 13 .debug_abbrev 00003458  00000000  00000000  0003aecb  2**0
                  CONTENTS, READONLY, DEBUGGING
 14 .debug_aranges 00001390  00000000  00000000  0003e328  2**3
                  CONTENTS, READONLY, DEBUGGING
 15 .debug_ranges 00001218  00000000  00000000  0003f6b8  2**3
                  CONTENTS, READONLY, DEBUGGING
 16 .debug_macro  000205d6  00000000  00000000  000408d0  2**0
                  CONTENTS, READONLY, DEBUGGING
 17 .debug_line   00011b75  00000000  00000000  00060ea6  2**0
                  CONTENTS, READONLY, DEBUGGING
 18 .debug_str    000c43ac  00000000  00000000  00072a1b  2**0
                  CONTENTS, READONLY, DEBUGGING
 19 .comment      0000007b  00000000  00000000  00136dc7  2**0
                  CONTENTS, READONLY
 20 .debug_frame  00005180  00000000  00000000  00136e44  2**2
                  CONTENTS, READONLY, DEBUGGING

Disassembly of section .text:

080001d8 <__do_global_dtors_aux>:
 80001d8:	b510      	push	{r4, lr}
 80001da:	4c05      	ldr	r4, [pc, #20]	; (80001f0 <__do_global_dtors_aux+0x18>)
 80001dc:	7823      	ldrb	r3, [r4, #0]
 80001de:	b933      	cbnz	r3, 80001ee <__do_global_dtors_aux+0x16>
 80001e0:	4b04      	ldr	r3, [pc, #16]	; (80001f4 <__do_global_dtors_aux+0x1c>)
 80001e2:	b113      	cbz	r3, 80001ea <__do_global_dtors_aux+0x12>
 80001e4:	4804      	ldr	r0, [pc, #16]	; (80001f8 <__do_global_dtors_aux+0x20>)
 80001e6:	f3af 8000 	nop.w
 80001ea:	2301      	movs	r3, #1
 80001ec:	7023      	strb	r3, [r4, #0]
 80001ee:	bd10      	pop	{r4, pc}
 80001f0:	200001b4 	.word	0x200001b4
 80001f4:	00000000 	.word	0x00000000
 80001f8:	08009980 	.word	0x08009980

080001fc <frame_dummy>:
 80001fc:	b508      	push	{r3, lr}
 80001fe:	4b03      	ldr	r3, [pc, #12]	; (800020c <frame_dummy+0x10>)
 8000200:	b11b      	cbz	r3, 800020a <frame_dummy+0xe>
 8000202:	4903      	ldr	r1, [pc, #12]	; (8000210 <frame_dummy+0x14>)
 8000204:	4803      	ldr	r0, [pc, #12]	; (8000214 <frame_dummy+0x18>)
 8000206:	f3af 8000 	nop.w
 800020a:	bd08      	pop	{r3, pc}
 800020c:	00000000 	.word	0x00000000
 8000210:	200001b8 	.word	0x200001b8
 8000214:	08009980 	.word	0x08009980

08000218 <CDC_On_Receive>:
Motor motor2 = {.position = 0, .positionPrev = 0, .sumOfErrors = 0, .pGain = 1500, .iGain = 10, .dGain = 10};
Motor motor3 = {.position = 0, .positionPrev = 0, .sumOfErrors = 0, .pGain = 1500, .iGain = 10, .dGain = 10};

volatile uint8_t isCommandReceived = 0;

void CDC_On_Receive(uint8_t* buffer, uint32_t* length) {
 8000218:	b580      	push	{r7, lr}
 800021a:	b082      	sub	sp, #8
 800021c:	af00      	add	r7, sp, #0
 800021e:	6078      	str	r0, [r7, #4]
 8000220:	6039      	str	r1, [r7, #0]
	if (*length == sizeof(Command)) {
 8000222:	683b      	ldr	r3, [r7, #0]
 8000224:	681b      	ldr	r3, [r3, #0]
 8000226:	2b0c      	cmp	r3, #12
 8000228:	d10d      	bne.n	8000246 <CDC_On_Receive+0x2e>
		memcpy(&command, buffer, sizeof(Command));
 800022a:	220c      	movs	r2, #12
 800022c:	6879      	ldr	r1, [r7, #4]
 800022e:	4808      	ldr	r0, [pc, #32]	; (8000250 <CDC_On_Receive+0x38>)
 8000230:	f009 fb92 	bl	8009958 <memcpy>
		if (command.delimeter == 0xAAAA) {
 8000234:	4b06      	ldr	r3, [pc, #24]	; (8000250 <CDC_On_Receive+0x38>)
 8000236:	895b      	ldrh	r3, [r3, #10]
 8000238:	f64a 22aa 	movw	r2, #43690	; 0xaaaa
 800023c:	4293      	cmp	r3, r2
 800023e:	d102      	bne.n	8000246 <CDC_On_Receive+0x2e>
			isCommandReceived = 1;
 8000240:	4b04      	ldr	r3, [pc, #16]	; (8000254 <CDC_On_Receive+0x3c>)
 8000242:	2201      	movs	r2, #1
 8000244:	701a      	strb	r2, [r3, #0]
		}
	}
}
 8000246:	bf00      	nop
 8000248:	3708      	adds	r7, #8
 800024a:	46bd      	mov	sp, r7
 800024c:	bd80      	pop	{r7, pc}
 800024e:	bf00      	nop
 8000250:	200001d0 	.word	0x200001d0
 8000254:	200001dc 	.word	0x200001dc

08000258 <UpdateMotorSpeedValue>:

int32_t UpdateMotorSpeedValue(uint16_t position, int16_t shouldBeSpeed, Motor* motor) {
 8000258:	b480      	push	{r7}
 800025a:	b083      	sub	sp, #12
 800025c:	af00      	add	r7, sp, #0
 800025e:	4603      	mov	r3, r0
 8000260:	603a      	str	r2, [r7, #0]
 8000262:	80fb      	strh	r3, [r7, #6]
 8000264:	460b      	mov	r3, r1
 8000266:	80bb      	strh	r3, [r7, #4]
	motor->position = position;
 8000268:	683b      	ldr	r3, [r7, #0]
 800026a:	88fa      	ldrh	r2, [r7, #6]
 800026c:	801a      	strh	r2, [r3, #0]
	positionChange = position - motor->positionPrev;
 800026e:	683b      	ldr	r3, [r7, #0]
 8000270:	885b      	ldrh	r3, [r3, #2]
 8000272:	88fa      	ldrh	r2, [r7, #6]
 8000274:	1ad3      	subs	r3, r2, r3
 8000276:	b29b      	uxth	r3, r3
 8000278:	b21a      	sxth	r2, r3
 800027a:	4b1c      	ldr	r3, [pc, #112]	; (80002ec <UpdateMotorSpeedValue+0x94>)
 800027c:	801a      	strh	r2, [r3, #0]
	currentError = shouldBeSpeed - positionChange;
 800027e:	88ba      	ldrh	r2, [r7, #4]
 8000280:	4b1a      	ldr	r3, [pc, #104]	; (80002ec <UpdateMotorSpeedValue+0x94>)
 8000282:	f9b3 3000 	ldrsh.w	r3, [r3]
 8000286:	b29b      	uxth	r3, r3
 8000288:	1ad3      	subs	r3, r2, r3
 800028a:	b29b      	uxth	r3, r3
 800028c:	b21a      	sxth	r2, r3
 800028e:	4b18      	ldr	r3, [pc, #96]	; (80002f0 <UpdateMotorSpeedValue+0x98>)
 8000290:	801a      	strh	r2, [r3, #0]
	motor->sumOfErrors += currentError;
 8000292:	683b      	ldr	r3, [r7, #0]
 8000294:	685b      	ldr	r3, [r3, #4]
 8000296:	4a16      	ldr	r2, [pc, #88]	; (80002f0 <UpdateMotorSpeedValue+0x98>)
 8000298:	f9b2 2000 	ldrsh.w	r2, [r2]
 800029c:	441a      	add	r2, r3
 800029e:	683b      	ldr	r3, [r7, #0]
 80002a0:	605a      	str	r2, [r3, #4]
	motor->positionPrev = position;
 80002a2:	683b      	ldr	r3, [r7, #0]
 80002a4:	88fa      	ldrh	r2, [r7, #6]
 80002a6:	805a      	strh	r2, [r3, #2]
	return motor->pGain * currentError + motor->iGain * motor->sumOfErrors + motor->dGain * positionChange;
 80002a8:	683b      	ldr	r3, [r7, #0]
 80002aa:	f9b3 3008 	ldrsh.w	r3, [r3, #8]
 80002ae:	461a      	mov	r2, r3
 80002b0:	4b0f      	ldr	r3, [pc, #60]	; (80002f0 <UpdateMotorSpeedValue+0x98>)
 80002b2:	f9b3 3000 	ldrsh.w	r3, [r3]
 80002b6:	fb03 f202 	mul.w	r2, r3, r2
 80002ba:	683b      	ldr	r3, [r7, #0]
 80002bc:	f9b3 300a 	ldrsh.w	r3, [r3, #10]
 80002c0:	4619      	mov	r1, r3
 80002c2:	683b      	ldr	r3, [r7, #0]
 80002c4:	685b      	ldr	r3, [r3, #4]
 80002c6:	fb03 f301 	mul.w	r3, r3, r1
 80002ca:	441a      	add	r2, r3
 80002cc:	683b      	ldr	r3, [r7, #0]
 80002ce:	f9b3 300c 	ldrsh.w	r3, [r3, #12]
 80002d2:	4619      	mov	r1, r3
 80002d4:	4b05      	ldr	r3, [pc, #20]	; (80002ec <UpdateMotorSpeedValue+0x94>)
 80002d6:	f9b3 3000 	ldrsh.w	r3, [r3]
 80002da:	fb03 f301 	mul.w	r3, r3, r1
 80002de:	4413      	add	r3, r2
}
 80002e0:	4618      	mov	r0, r3
 80002e2:	370c      	adds	r7, #12
 80002e4:	46bd      	mov	sp, r7
 80002e6:	f85d 7b04 	ldr.w	r7, [sp], #4
 80002ea:	4770      	bx	lr
 80002ec:	20000538 	.word	0x20000538
 80002f0:	200004e8 	.word	0x200004e8

080002f4 <HAL_TIM_PeriodElapsedCallback>:

void HAL_TIM_PeriodElapsedCallback(TIM_HandleTypeDef *htim) {
 80002f4:	b580      	push	{r7, lr}
 80002f6:	b082      	sub	sp, #8
 80002f8:	af00      	add	r7, sp, #0
 80002fa:	6078      	str	r0, [r7, #4]
	updatedMotor1 = UpdateMotorSpeedValue((int16_t)TIM1->CNT, command.speed1, &motor1);
 80002fc:	4b57      	ldr	r3, [pc, #348]	; (800045c <HAL_TIM_PeriodElapsedCallback+0x168>)
 80002fe:	6a5b      	ldr	r3, [r3, #36]	; 0x24
 8000300:	b298      	uxth	r0, r3
 8000302:	4b57      	ldr	r3, [pc, #348]	; (8000460 <HAL_TIM_PeriodElapsedCallback+0x16c>)
 8000304:	f9b3 3000 	ldrsh.w	r3, [r3]
 8000308:	4a56      	ldr	r2, [pc, #344]	; (8000464 <HAL_TIM_PeriodElapsedCallback+0x170>)
 800030a:	4619      	mov	r1, r3
 800030c:	f7ff ffa4 	bl	8000258 <UpdateMotorSpeedValue>
 8000310:	4602      	mov	r2, r0
 8000312:	4b55      	ldr	r3, [pc, #340]	; (8000468 <HAL_TIM_PeriodElapsedCallback+0x174>)
 8000314:	601a      	str	r2, [r3, #0]
	updatedMotor2 = UpdateMotorSpeedValue((int16_t)TIM3->CNT, command.speed2, &motor2);
 8000316:	4b55      	ldr	r3, [pc, #340]	; (800046c <HAL_TIM_PeriodElapsedCallback+0x178>)
 8000318:	6a5b      	ldr	r3, [r3, #36]	; 0x24
 800031a:	b298      	uxth	r0, r3
 800031c:	4b50      	ldr	r3, [pc, #320]	; (8000460 <HAL_TIM_PeriodElapsedCallback+0x16c>)
 800031e:	f9b3 3002 	ldrsh.w	r3, [r3, #2]
 8000322:	4a53      	ldr	r2, [pc, #332]	; (8000470 <HAL_TIM_PeriodElapsedCallback+0x17c>)
 8000324:	4619      	mov	r1, r3
 8000326:	f7ff ff97 	bl	8000258 <UpdateMotorSpeedValue>
 800032a:	4602      	mov	r2, r0
 800032c:	4b51      	ldr	r3, [pc, #324]	; (8000474 <HAL_TIM_PeriodElapsedCallback+0x180>)
 800032e:	601a      	str	r2, [r3, #0]
	updatedMotor3 = UpdateMotorSpeedValue((int16_t)TIM4->CNT, command.speed3, &motor3);
 8000330:	4b51      	ldr	r3, [pc, #324]	; (8000478 <HAL_TIM_PeriodElapsedCallback+0x184>)
 8000332:	6a5b      	ldr	r3, [r3, #36]	; 0x24
 8000334:	b298      	uxth	r0, r3
 8000336:	4b4a      	ldr	r3, [pc, #296]	; (8000460 <HAL_TIM_PeriodElapsedCallback+0x16c>)
 8000338:	f9b3 3004 	ldrsh.w	r3, [r3, #4]
 800033c:	4a4f      	ldr	r2, [pc, #316]	; (800047c <HAL_TIM_PeriodElapsedCallback+0x188>)
 800033e:	4619      	mov	r1, r3
 8000340:	f7ff ff8a 	bl	8000258 <UpdateMotorSpeedValue>
 8000344:	4602      	mov	r2, r0
 8000346:	4b4e      	ldr	r3, [pc, #312]	; (8000480 <HAL_TIM_PeriodElapsedCallback+0x18c>)
 8000348:	601a      	str	r2, [r3, #0]

	if (updatedMotor1 < 0) {
 800034a:	4b47      	ldr	r3, [pc, #284]	; (8000468 <HAL_TIM_PeriodElapsedCallback+0x174>)
 800034c:	681b      	ldr	r3, [r3, #0]
 800034e:	2b00      	cmp	r3, #0
 8000350:	da14      	bge.n	800037c <HAL_TIM_PeriodElapsedCallback+0x88>
		if (updatedMotor1 < -65535) {
 8000352:	4b45      	ldr	r3, [pc, #276]	; (8000468 <HAL_TIM_PeriodElapsedCallback+0x174>)
 8000354:	681b      	ldr	r3, [r3, #0]
 8000356:	f513 3f80 	cmn.w	r3, #65536	; 0x10000
 800035a:	dc02      	bgt.n	8000362 <HAL_TIM_PeriodElapsedCallback+0x6e>
			updatedMotor1 = -65535;
 800035c:	4b42      	ldr	r3, [pc, #264]	; (8000468 <HAL_TIM_PeriodElapsedCallback+0x174>)
 800035e:	4a49      	ldr	r2, [pc, #292]	; (8000484 <HAL_TIM_PeriodElapsedCallback+0x190>)
 8000360:	601a      	str	r2, [r3, #0]
		}
		TIM2->CCR4 = -updatedMotor1;
 8000362:	4b41      	ldr	r3, [pc, #260]	; (8000468 <HAL_TIM_PeriodElapsedCallback+0x174>)
 8000364:	681b      	ldr	r3, [r3, #0]
 8000366:	425a      	negs	r2, r3
 8000368:	f04f 4380 	mov.w	r3, #1073741824	; 0x40000000
 800036c:	641a      	str	r2, [r3, #64]	; 0x40
		HAL_GPIO_WritePin(M1DIR_GPIO_Port, M1DIR_Pin, GPIO_PIN_RESET);
 800036e:	2200      	movs	r2, #0
 8000370:	2180      	movs	r1, #128	; 0x80
 8000372:	f04f 4090 	mov.w	r0, #1207959552	; 0x48000000
 8000376:	f001 faf1 	bl	800195c <HAL_GPIO_WritePin>
 800037a:	e013      	b.n	80003a4 <HAL_TIM_PeriodElapsedCallback+0xb0>
	} else {
		if (updatedMotor1 > 65535) {
 800037c:	4b3a      	ldr	r3, [pc, #232]	; (8000468 <HAL_TIM_PeriodElapsedCallback+0x174>)
 800037e:	681b      	ldr	r3, [r3, #0]
 8000380:	f5b3 3f80 	cmp.w	r3, #65536	; 0x10000
 8000384:	db03      	blt.n	800038e <HAL_TIM_PeriodElapsedCallback+0x9a>
			updatedMotor1 = 65535;
 8000386:	4b38      	ldr	r3, [pc, #224]	; (8000468 <HAL_TIM_PeriodElapsedCallback+0x174>)
 8000388:	f64f 72ff 	movw	r2, #65535	; 0xffff
 800038c:	601a      	str	r2, [r3, #0]
		}
		TIM2->CCR4 = updatedMotor1;
 800038e:	4b36      	ldr	r3, [pc, #216]	; (8000468 <HAL_TIM_PeriodElapsedCallback+0x174>)
 8000390:	681a      	ldr	r2, [r3, #0]
 8000392:	f04f 4380 	mov.w	r3, #1073741824	; 0x40000000
 8000396:	641a      	str	r2, [r3, #64]	; 0x40
		HAL_GPIO_WritePin(M1DIR_GPIO_Port, M1DIR_Pin, GPIO_PIN_SET);
 8000398:	2201      	movs	r2, #1
 800039a:	2180      	movs	r1, #128	; 0x80
 800039c:	f04f 4090 	mov.w	r0, #1207959552	; 0x48000000
 80003a0:	f001 fadc 	bl	800195c <HAL_GPIO_WritePin>
	}

	if (updatedMotor2 < 0) {
 80003a4:	4b33      	ldr	r3, [pc, #204]	; (8000474 <HAL_TIM_PeriodElapsedCallback+0x180>)
 80003a6:	681b      	ldr	r3, [r3, #0]
 80003a8:	2b00      	cmp	r3, #0
 80003aa:	da13      	bge.n	80003d4 <HAL_TIM_PeriodElapsedCallback+0xe0>
		if (updatedMotor2 < -65535) {
 80003ac:	4b31      	ldr	r3, [pc, #196]	; (8000474 <HAL_TIM_PeriodElapsedCallback+0x180>)
 80003ae:	681b      	ldr	r3, [r3, #0]
 80003b0:	f513 3f80 	cmn.w	r3, #65536	; 0x10000
 80003b4:	dc02      	bgt.n	80003bc <HAL_TIM_PeriodElapsedCallback+0xc8>
			updatedMotor2 = -65535;
 80003b6:	4b2f      	ldr	r3, [pc, #188]	; (8000474 <HAL_TIM_PeriodElapsedCallback+0x180>)
 80003b8:	4a32      	ldr	r2, [pc, #200]	; (8000484 <HAL_TIM_PeriodElapsedCallback+0x190>)
 80003ba:	601a      	str	r2, [r3, #0]
		}
		TIM16->CCR1 = -updatedMotor2;
 80003bc:	4b2d      	ldr	r3, [pc, #180]	; (8000474 <HAL_TIM_PeriodElapsedCallback+0x180>)
 80003be:	681b      	ldr	r3, [r3, #0]
 80003c0:	425a      	negs	r2, r3
 80003c2:	4b31      	ldr	r3, [pc, #196]	; (8000488 <HAL_TIM_PeriodElapsedCallback+0x194>)
 80003c4:	635a      	str	r2, [r3, #52]	; 0x34
		HAL_GPIO_WritePin(M2DIR_GPIO_Port, M2DIR_Pin, GPIO_PIN_RESET);
 80003c6:	2200      	movs	r2, #0
 80003c8:	2104      	movs	r1, #4
 80003ca:	f04f 4090 	mov.w	r0, #1207959552	; 0x48000000
 80003ce:	f001 fac5 	bl	800195c <HAL_GPIO_WritePin>
 80003d2:	e012      	b.n	80003fa <HAL_TIM_PeriodElapsedCallback+0x106>
	} else {
		if (updatedMotor2 > 65535) {
 80003d4:	4b27      	ldr	r3, [pc, #156]	; (8000474 <HAL_TIM_PeriodElapsedCallback+0x180>)
 80003d6:	681b      	ldr	r3, [r3, #0]
 80003d8:	f5b3 3f80 	cmp.w	r3, #65536	; 0x10000
 80003dc:	db03      	blt.n	80003e6 <HAL_TIM_PeriodElapsedCallback+0xf2>
			updatedMotor2 = 65535;
 80003de:	4b25      	ldr	r3, [pc, #148]	; (8000474 <HAL_TIM_PeriodElapsedCallback+0x180>)
 80003e0:	f64f 72ff 	movw	r2, #65535	; 0xffff
 80003e4:	601a      	str	r2, [r3, #0]
		}
		TIM16->CCR1 = updatedMotor2;
 80003e6:	4b23      	ldr	r3, [pc, #140]	; (8000474 <HAL_TIM_PeriodElapsedCallback+0x180>)
 80003e8:	681a      	ldr	r2, [r3, #0]
 80003ea:	4b27      	ldr	r3, [pc, #156]	; (8000488 <HAL_TIM_PeriodElapsedCallback+0x194>)
 80003ec:	635a      	str	r2, [r3, #52]	; 0x34
		HAL_GPIO_WritePin(M2DIR_GPIO_Port, M2DIR_Pin, GPIO_PIN_SET);
 80003ee:	2201      	movs	r2, #1
 80003f0:	2104      	movs	r1, #4
 80003f2:	f04f 4090 	mov.w	r0, #1207959552	; 0x48000000
 80003f6:	f001 fab1 	bl	800195c <HAL_GPIO_WritePin>
	}

	if (updatedMotor3 < 0) {
 80003fa:	4b21      	ldr	r3, [pc, #132]	; (8000480 <HAL_TIM_PeriodElapsedCallback+0x18c>)
 80003fc:	681b      	ldr	r3, [r3, #0]
 80003fe:	2b00      	cmp	r3, #0
 8000400:	da14      	bge.n	800042c <HAL_TIM_PeriodElapsedCallback+0x138>
		if (updatedMotor3 < -65535) {
 8000402:	4b1f      	ldr	r3, [pc, #124]	; (8000480 <HAL_TIM_PeriodElapsedCallback+0x18c>)
 8000404:	681b      	ldr	r3, [r3, #0]
 8000406:	f513 3f80 	cmn.w	r3, #65536	; 0x10000
 800040a:	dc02      	bgt.n	8000412 <HAL_TIM_PeriodElapsedCallback+0x11e>
			updatedMotor3 = -65535;
 800040c:	4b1c      	ldr	r3, [pc, #112]	; (8000480 <HAL_TIM_PeriodElapsedCallback+0x18c>)
 800040e:	4a1d      	ldr	r2, [pc, #116]	; (8000484 <HAL_TIM_PeriodElapsedCallback+0x190>)
 8000410:	601a      	str	r2, [r3, #0]
		}
		TIM2->CCR2 = -updatedMotor3;
 8000412:	4b1b      	ldr	r3, [pc, #108]	; (8000480 <HAL_TIM_PeriodElapsedCallback+0x18c>)
 8000414:	681b      	ldr	r3, [r3, #0]
 8000416:	425a      	negs	r2, r3
 8000418:	f04f 4380 	mov.w	r3, #1073741824	; 0x40000000
 800041c:	639a      	str	r2, [r3, #56]	; 0x38
		HAL_GPIO_WritePin(M3DIR_GPIO_Port, M3DIR_Pin, GPIO_PIN_RESET);
 800041e:	2200      	movs	r2, #0
 8000420:	2101      	movs	r1, #1
 8000422:	f04f 4090 	mov.w	r0, #1207959552	; 0x48000000
 8000426:	f001 fa99 	bl	800195c <HAL_GPIO_WritePin>
		}
		TIM2->CCR2 = updatedMotor3;
		HAL_GPIO_WritePin(M3DIR_GPIO_Port, M3DIR_Pin, GPIO_PIN_SET);
	}

}
 800042a:	e013      	b.n	8000454 <HAL_TIM_PeriodElapsedCallback+0x160>
		if (updatedMotor3 > 65535) {
 800042c:	4b14      	ldr	r3, [pc, #80]	; (8000480 <HAL_TIM_PeriodElapsedCallback+0x18c>)
 800042e:	681b      	ldr	r3, [r3, #0]
 8000430:	f5b3 3f80 	cmp.w	r3, #65536	; 0x10000
 8000434:	db03      	blt.n	800043e <HAL_TIM_PeriodElapsedCallback+0x14a>
			updatedMotor3 = 65535;
 8000436:	4b12      	ldr	r3, [pc, #72]	; (8000480 <HAL_TIM_PeriodElapsedCallback+0x18c>)
 8000438:	f64f 72ff 	movw	r2, #65535	; 0xffff
 800043c:	601a      	str	r2, [r3, #0]
		TIM2->CCR2 = updatedMotor3;
 800043e:	4b10      	ldr	r3, [pc, #64]	; (8000480 <HAL_TIM_PeriodElapsedCallback+0x18c>)
 8000440:	681a      	ldr	r2, [r3, #0]
 8000442:	f04f 4380 	mov.w	r3, #1073741824	; 0x40000000
 8000446:	639a      	str	r2, [r3, #56]	; 0x38
		HAL_GPIO_WritePin(M3DIR_GPIO_Port, M3DIR_Pin, GPIO_PIN_SET);
 8000448:	2201      	movs	r2, #1
 800044a:	2101      	movs	r1, #1
 800044c:	f04f 4090 	mov.w	r0, #1207959552	; 0x48000000
 8000450:	f001 fa84 	bl	800195c <HAL_GPIO_WritePin>
}
 8000454:	bf00      	nop
 8000456:	3708      	adds	r7, #8
 8000458:	46bd      	mov	sp, r7
 800045a:	bd80      	pop	{r7, pc}
 800045c:	40012c00 	.word	0x40012c00
 8000460:	200001d0 	.word	0x200001d0
 8000464:	20000000 	.word	0x20000000
 8000468:	20000620 	.word	0x20000620
 800046c:	40000400 	.word	0x40000400
 8000470:	20000010 	.word	0x20000010
 8000474:	20000624 	.word	0x20000624
 8000478:	40000800 	.word	0x40000800
 800047c:	20000020 	.word	0x20000020
 8000480:	20000400 	.word	0x20000400
 8000484:	ffff0001 	.word	0xffff0001
 8000488:	40014400 	.word	0x40014400

0800048c <main>:
/**
  * @brief  The application entry point.
  * @retval int
  */
int main(void)
{
 800048c:	b580      	push	{r7, lr}
 800048e:	b082      	sub	sp, #8
 8000490:	af00      	add	r7, sp, #0
  /* USER CODE END 1 */

  /* MCU Configuration--------------------------------------------------------*/

  /* Reset of all peripherals, Initializes the Flash interface and the Systick. */
  HAL_Init();
 8000492:	f000 ff26 	bl	80012e2 <HAL_Init>
  /* USER CODE BEGIN Init */

  /* USER CODE END Init */

  /* Configure the system clock */
  SystemClock_Config();
 8000496:	f000 f879 	bl	800058c <SystemClock_Config>
  /* USER CODE BEGIN SysInit */

  /* USER CODE END SysInit */

  /* Initialize all configured peripherals */
  MX_GPIO_Init();
 800049a:	f000 fc2b 	bl	8000cf4 <MX_GPIO_Init>
  MX_TIM1_Init();
 800049e:	f000 f8dd 	bl	800065c <MX_TIM1_Init>
  MX_TIM2_Init();
 80004a2:	f000 f94b 	bl	800073c <MX_TIM2_Init>
  MX_TIM3_Init();
 80004a6:	f000 f9af 	bl	8000808 <MX_TIM3_Init>
  MX_TIM4_Init();
 80004aa:	f000 fa03 	bl	80008b4 <MX_TIM4_Init>
  MX_TIM8_Init();
 80004ae:	f000 fa8d 	bl	80009cc <MX_TIM8_Init>
  MX_TIM16_Init();
 80004b2:	f000 fba5 	bl	8000c00 <MX_TIM16_Init>
  MX_USB_Device_Init();
 80004b6:	f008 fd33 	bl	8008f20 <MX_USB_Device_Init>
  MX_TIM15_Init();
 80004ba:	f000 fb1b 	bl	8000af4 <MX_TIM15_Init>
  MX_TIM6_Init();
 80004be:	f000 fa4f 	bl	8000960 <MX_TIM6_Init>
  /* USER CODE BEGIN 2 */
  Feedback feedback = {
 80004c2:	2300      	movs	r3, #0
 80004c4:	713b      	strb	r3, [r7, #4]
 80004c6:	f64a 23aa 	movw	r3, #43690	; 0xaaaa
 80004ca:	80fb      	strh	r3, [r7, #6]
		  .sensor = 0,
		  .delimeter = 0xAAAA
  };
  HAL_TIM_PWM_Start(&htim2, TIM_CHANNEL_2);
 80004cc:	2104      	movs	r1, #4
 80004ce:	4822      	ldr	r0, [pc, #136]	; (8000558 <main+0xcc>)
 80004d0:	f003 fe7e 	bl	80041d0 <HAL_TIM_PWM_Start>
  HAL_TIM_PWM_Start(&htim2, TIM_CHANNEL_4);
 80004d4:	210c      	movs	r1, #12
 80004d6:	4820      	ldr	r0, [pc, #128]	; (8000558 <main+0xcc>)
 80004d8:	f003 fe7a 	bl	80041d0 <HAL_TIM_PWM_Start>
  HAL_TIM_PWM_Start(&htim8, TIM_CHANNEL_1);
 80004dc:	2100      	movs	r1, #0
 80004de:	481f      	ldr	r0, [pc, #124]	; (800055c <main+0xd0>)
 80004e0:	f003 fe76 	bl	80041d0 <HAL_TIM_PWM_Start>
  HAL_TIM_PWM_Start(&htim15, TIM_CHANNEL_2);
 80004e4:	2104      	movs	r1, #4
 80004e6:	481e      	ldr	r0, [pc, #120]	; (8000560 <main+0xd4>)
 80004e8:	f003 fe72 	bl	80041d0 <HAL_TIM_PWM_Start>
  HAL_TIM_PWM_Start(&htim16, TIM_CHANNEL_1);
 80004ec:	2100      	movs	r1, #0
 80004ee:	481d      	ldr	r0, [pc, #116]	; (8000564 <main+0xd8>)
 80004f0:	f003 fe6e 	bl	80041d0 <HAL_TIM_PWM_Start>
  HAL_TIM_Encoder_Start(&htim1, TIM_CHANNEL_1 | TIM_CHANNEL_2);
 80004f4:	2104      	movs	r1, #4
 80004f6:	481c      	ldr	r0, [pc, #112]	; (8000568 <main+0xdc>)
 80004f8:	f004 f810 	bl	800451c <HAL_TIM_Encoder_Start>
  HAL_TIM_Encoder_Start(&htim3, TIM_CHANNEL_1 | TIM_CHANNEL_2);
 80004fc:	2104      	movs	r1, #4
 80004fe:	481b      	ldr	r0, [pc, #108]	; (800056c <main+0xe0>)
 8000500:	f004 f80c 	bl	800451c <HAL_TIM_Encoder_Start>
  HAL_TIM_Encoder_Start(&htim4, TIM_CHANNEL_1 | TIM_CHANNEL_2);
 8000504:	2104      	movs	r1, #4
 8000506:	481a      	ldr	r0, [pc, #104]	; (8000570 <main+0xe4>)
 8000508:	f004 f808 	bl	800451c <HAL_TIM_Encoder_Start>
  HAL_TIM_Base_Start_IT(&htim6);
 800050c:	4819      	ldr	r0, [pc, #100]	; (8000574 <main+0xe8>)
 800050e:	f003 fd9d 	bl	800404c <HAL_TIM_Base_Start_IT>
  TIM8->CCR1 = 3200;
 8000512:	4b19      	ldr	r3, [pc, #100]	; (8000578 <main+0xec>)
 8000514:	f44f 6248 	mov.w	r2, #3200	; 0xc80
 8000518:	635a      	str	r2, [r3, #52]	; 0x34

  /* Infinite loop */
  /* USER CODE BEGIN WHILE */
  while (1)
  {
	  HAL_Delay(50);
 800051a:	2032      	movs	r0, #50	; 0x32
 800051c:	f000 ff52 	bl	80013c4 <HAL_Delay>
	  feedback.sensor = HAL_GPIO_ReadPin(LEDSensor_GPIO_Port, LEDSensor_Pin);
 8000520:	2102      	movs	r1, #2
 8000522:	4816      	ldr	r0, [pc, #88]	; (800057c <main+0xf0>)
 8000524:	f001 fa02 	bl	800192c <HAL_GPIO_ReadPin>
 8000528:	4603      	mov	r3, r0
 800052a:	713b      	strb	r3, [r7, #4]
	  CDC_Transmit_FS(&feedback, sizeof(feedback));
 800052c:	1d3b      	adds	r3, r7, #4
 800052e:	2104      	movs	r1, #4
 8000530:	4618      	mov	r0, r3
 8000532:	f008 fdb7 	bl	80090a4 <CDC_Transmit_FS>
    /* USER CODE END WHILE */

    /* USER CODE BEGIN 3 */

	  if (isCommandReceived) {
 8000536:	4b12      	ldr	r3, [pc, #72]	; (8000580 <main+0xf4>)
 8000538:	781b      	ldrb	r3, [r3, #0]
 800053a:	b2db      	uxtb	r3, r3
 800053c:	2b00      	cmp	r3, #0
 800053e:	d0ec      	beq.n	800051a <main+0x8e>
		  isCommandReceived = 0;
 8000540:	4b0f      	ldr	r3, [pc, #60]	; (8000580 <main+0xf4>)
 8000542:	2200      	movs	r2, #0
 8000544:	701a      	strb	r2, [r3, #0]
		  TIM8->CCR1 = command.throwerSpeed; //3200-6400
 8000546:	4b0f      	ldr	r3, [pc, #60]	; (8000584 <main+0xf8>)
 8000548:	88da      	ldrh	r2, [r3, #6]
 800054a:	4b0b      	ldr	r3, [pc, #44]	; (8000578 <main+0xec>)
 800054c:	635a      	str	r2, [r3, #52]	; 0x34
		  TIM15->CCR2 = command.servoPosition; //0-6000
 800054e:	4b0d      	ldr	r3, [pc, #52]	; (8000584 <main+0xf8>)
 8000550:	891a      	ldrh	r2, [r3, #8]
 8000552:	4b0d      	ldr	r3, [pc, #52]	; (8000588 <main+0xfc>)
 8000554:	639a      	str	r2, [r3, #56]	; 0x38
  {
 8000556:	e7e0      	b.n	800051a <main+0x8e>
 8000558:	200005d4 	.word	0x200005d4
 800055c:	20000404 	.word	0x20000404
 8000560:	2000049c 	.word	0x2000049c
 8000564:	20000628 	.word	0x20000628
 8000568:	20000588 	.word	0x20000588
 800056c:	200004ec 	.word	0x200004ec
 8000570:	20000450 	.word	0x20000450
 8000574:	2000053c 	.word	0x2000053c
 8000578:	40013400 	.word	0x40013400
 800057c:	48001400 	.word	0x48001400
 8000580:	200001dc 	.word	0x200001dc
 8000584:	200001d0 	.word	0x200001d0
 8000588:	40014000 	.word	0x40014000

0800058c <SystemClock_Config>:
/**
  * @brief System Clock Configuration
  * @retval None
  */
void SystemClock_Config(void)
{
 800058c:	b580      	push	{r7, lr}
 800058e:	b0a4      	sub	sp, #144	; 0x90
 8000590:	af00      	add	r7, sp, #0
  RCC_OscInitTypeDef RCC_OscInitStruct = {0};
 8000592:	f107 0358 	add.w	r3, r7, #88	; 0x58
 8000596:	2238      	movs	r2, #56	; 0x38
 8000598:	2100      	movs	r1, #0
 800059a:	4618      	mov	r0, r3
 800059c:	f009 f9e7 	bl	800996e <memset>
  RCC_ClkInitTypeDef RCC_ClkInitStruct = {0};
 80005a0:	f107 0344 	add.w	r3, r7, #68	; 0x44
 80005a4:	2200      	movs	r2, #0
 80005a6:	601a      	str	r2, [r3, #0]
 80005a8:	605a      	str	r2, [r3, #4]
 80005aa:	609a      	str	r2, [r3, #8]
 80005ac:	60da      	str	r2, [r3, #12]
 80005ae:	611a      	str	r2, [r3, #16]
  RCC_PeriphCLKInitTypeDef PeriphClkInit = {0};
 80005b0:	463b      	mov	r3, r7
 80005b2:	2244      	movs	r2, #68	; 0x44
 80005b4:	2100      	movs	r1, #0
 80005b6:	4618      	mov	r0, r3
 80005b8:	f009 f9d9 	bl	800996e <memset>

  /** Configure the main internal regulator output voltage
  */
  HAL_PWREx_ControlVoltageScaling(PWR_REGULATOR_VOLTAGE_SCALE1_BOOST);
 80005bc:	2000      	movs	r0, #0
 80005be:	f002 fd4d 	bl	800305c <HAL_PWREx_ControlVoltageScaling>
  /** Initializes the RCC Oscillators according to the specified parameters
  * in the RCC_OscInitTypeDef structure.
  */
  RCC_OscInitStruct.OscillatorType = RCC_OSCILLATORTYPE_HSI|RCC_OSCILLATORTYPE_HSI48;
 80005c2:	2322      	movs	r3, #34	; 0x22
 80005c4:	65bb      	str	r3, [r7, #88]	; 0x58
  RCC_OscInitStruct.HSIState = RCC_HSI_ON;
 80005c6:	f44f 7380 	mov.w	r3, #256	; 0x100
 80005ca:	667b      	str	r3, [r7, #100]	; 0x64
  RCC_OscInitStruct.HSICalibrationValue = RCC_HSICALIBRATION_DEFAULT;
 80005cc:	2340      	movs	r3, #64	; 0x40
 80005ce:	66bb      	str	r3, [r7, #104]	; 0x68
  RCC_OscInitStruct.HSI48State = RCC_HSI48_ON;
 80005d0:	2301      	movs	r3, #1
 80005d2:	673b      	str	r3, [r7, #112]	; 0x70
  RCC_OscInitStruct.PLL.PLLState = RCC_PLL_ON;
 80005d4:	2302      	movs	r3, #2
 80005d6:	677b      	str	r3, [r7, #116]	; 0x74
  RCC_OscInitStruct.PLL.PLLSource = RCC_PLLSOURCE_HSI;
 80005d8:	2302      	movs	r3, #2
 80005da:	67bb      	str	r3, [r7, #120]	; 0x78
  RCC_OscInitStruct.PLL.PLLM = RCC_PLLM_DIV1;
 80005dc:	2301      	movs	r3, #1
 80005de:	67fb      	str	r3, [r7, #124]	; 0x7c
  RCC_OscInitStruct.PLL.PLLN = 20;
 80005e0:	2314      	movs	r3, #20
 80005e2:	f8c7 3080 	str.w	r3, [r7, #128]	; 0x80
  RCC_OscInitStruct.PLL.PLLP = RCC_PLLP_DIV2;
 80005e6:	2302      	movs	r3, #2
 80005e8:	f8c7 3084 	str.w	r3, [r7, #132]	; 0x84
  RCC_OscInitStruct.PLL.PLLQ = RCC_PLLQ_DIV4;
 80005ec:	2304      	movs	r3, #4
 80005ee:	f8c7 3088 	str.w	r3, [r7, #136]	; 0x88
  RCC_OscInitStruct.PLL.PLLR = RCC_PLLR_DIV2;
 80005f2:	2302      	movs	r3, #2
 80005f4:	f8c7 308c 	str.w	r3, [r7, #140]	; 0x8c
  if (HAL_RCC_OscConfig(&RCC_OscInitStruct) != HAL_OK)
 80005f8:	f107 0358 	add.w	r3, r7, #88	; 0x58
 80005fc:	4618      	mov	r0, r3
 80005fe:	f002 fde1 	bl	80031c4 <HAL_RCC_OscConfig>
 8000602:	4603      	mov	r3, r0
 8000604:	2b00      	cmp	r3, #0
 8000606:	d001      	beq.n	800060c <SystemClock_Config+0x80>
  {
    Error_Handler();
 8000608:	f000 fbe2 	bl	8000dd0 <Error_Handler>
  }
  /** Initializes the CPU, AHB and APB buses clocks
  */
  RCC_ClkInitStruct.ClockType = RCC_CLOCKTYPE_HCLK|RCC_CLOCKTYPE_SYSCLK
 800060c:	230f      	movs	r3, #15
 800060e:	647b      	str	r3, [r7, #68]	; 0x44
                              |RCC_CLOCKTYPE_PCLK1|RCC_CLOCKTYPE_PCLK2;
  RCC_ClkInitStruct.SYSCLKSource = RCC_SYSCLKSOURCE_PLLCLK;
 8000610:	2303      	movs	r3, #3
 8000612:	64bb      	str	r3, [r7, #72]	; 0x48
  RCC_ClkInitStruct.AHBCLKDivider = RCC_SYSCLK_DIV1;
 8000614:	2300      	movs	r3, #0
 8000616:	64fb      	str	r3, [r7, #76]	; 0x4c
  RCC_ClkInitStruct.APB1CLKDivider = RCC_HCLK_DIV1;
 8000618:	2300      	movs	r3, #0
 800061a:	653b      	str	r3, [r7, #80]	; 0x50
  RCC_ClkInitStruct.APB2CLKDivider = RCC_HCLK_DIV1;
 800061c:	2300      	movs	r3, #0
 800061e:	657b      	str	r3, [r7, #84]	; 0x54

  if (HAL_RCC_ClockConfig(&RCC_ClkInitStruct, FLASH_LATENCY_4) != HAL_OK)
 8000620:	f107 0344 	add.w	r3, r7, #68	; 0x44
 8000624:	2104      	movs	r1, #4
 8000626:	4618      	mov	r0, r3
 8000628:	f003 f8e4 	bl	80037f4 <HAL_RCC_ClockConfig>
 800062c:	4603      	mov	r3, r0
 800062e:	2b00      	cmp	r3, #0
 8000630:	d001      	beq.n	8000636 <SystemClock_Config+0xaa>
  {
    Error_Handler();
 8000632:	f000 fbcd 	bl	8000dd0 <Error_Handler>
  }
  /** Initializes the peripherals clocks
  */
  PeriphClkInit.PeriphClockSelection = RCC_PERIPHCLK_USB;
 8000636:	f44f 5300 	mov.w	r3, #8192	; 0x2000
 800063a:	603b      	str	r3, [r7, #0]
  PeriphClkInit.UsbClockSelection = RCC_USBCLKSOURCE_HSI48;
 800063c:	2300      	movs	r3, #0
 800063e:	637b      	str	r3, [r7, #52]	; 0x34
  if (HAL_RCCEx_PeriphCLKConfig(&PeriphClkInit) != HAL_OK)
 8000640:	463b      	mov	r3, r7
 8000642:	4618      	mov	r0, r3
 8000644:	f003 faba 	bl	8003bbc <HAL_RCCEx_PeriphCLKConfig>
 8000648:	4603      	mov	r3, r0
 800064a:	2b00      	cmp	r3, #0
 800064c:	d001      	beq.n	8000652 <SystemClock_Config+0xc6>
  {
    Error_Handler();
 800064e:	f000 fbbf 	bl	8000dd0 <Error_Handler>
  }
}
 8000652:	bf00      	nop
 8000654:	3790      	adds	r7, #144	; 0x90
 8000656:	46bd      	mov	sp, r7
 8000658:	bd80      	pop	{r7, pc}
	...

0800065c <MX_TIM1_Init>:
  * @brief TIM1 Initialization Function
  * @param None
  * @retval None
  */
static void MX_TIM1_Init(void)
{
 800065c:	b580      	push	{r7, lr}
 800065e:	b09a      	sub	sp, #104	; 0x68
 8000660:	af00      	add	r7, sp, #0

  /* USER CODE BEGIN TIM1_Init 0 */

  /* USER CODE END TIM1_Init 0 */

  TIM_Encoder_InitTypeDef sConfig = {0};
 8000662:	f107 0344 	add.w	r3, r7, #68	; 0x44
 8000666:	2224      	movs	r2, #36	; 0x24
 8000668:	2100      	movs	r1, #0
 800066a:	4618      	mov	r0, r3
 800066c:	f009 f97f 	bl	800996e <memset>
  TIM_MasterConfigTypeDef sMasterConfig = {0};
 8000670:	f107 0338 	add.w	r3, r7, #56	; 0x38
 8000674:	2200      	movs	r2, #0
 8000676:	601a      	str	r2, [r3, #0]
 8000678:	605a      	str	r2, [r3, #4]
 800067a:	609a      	str	r2, [r3, #8]
  TIM_BreakDeadTimeConfigTypeDef sBreakDeadTimeConfig = {0};
 800067c:	1d3b      	adds	r3, r7, #4
 800067e:	2234      	movs	r2, #52	; 0x34
 8000680:	2100      	movs	r1, #0
 8000682:	4618      	mov	r0, r3
 8000684:	f009 f973 	bl	800996e <memset>

  /* USER CODE BEGIN TIM1_Init 1 */

  /* USER CODE END TIM1_Init 1 */
  htim1.Instance = TIM1;
 8000688:	4b2a      	ldr	r3, [pc, #168]	; (8000734 <MX_TIM1_Init+0xd8>)
 800068a:	4a2b      	ldr	r2, [pc, #172]	; (8000738 <MX_TIM1_Init+0xdc>)
 800068c:	601a      	str	r2, [r3, #0]
  htim1.Init.Prescaler = 0;
 800068e:	4b29      	ldr	r3, [pc, #164]	; (8000734 <MX_TIM1_Init+0xd8>)
 8000690:	2200      	movs	r2, #0
 8000692:	605a      	str	r2, [r3, #4]
  htim1.Init.CounterMode = TIM_COUNTERMODE_UP;
 8000694:	4b27      	ldr	r3, [pc, #156]	; (8000734 <MX_TIM1_Init+0xd8>)
 8000696:	2200      	movs	r2, #0
 8000698:	609a      	str	r2, [r3, #8]
  htim1.Init.Period = 65535;
 800069a:	4b26      	ldr	r3, [pc, #152]	; (8000734 <MX_TIM1_Init+0xd8>)
 800069c:	f64f 72ff 	movw	r2, #65535	; 0xffff
 80006a0:	60da      	str	r2, [r3, #12]
  htim1.Init.ClockDivision = TIM_CLOCKDIVISION_DIV1;
 80006a2:	4b24      	ldr	r3, [pc, #144]	; (8000734 <MX_TIM1_Init+0xd8>)
 80006a4:	2200      	movs	r2, #0
 80006a6:	611a      	str	r2, [r3, #16]
  htim1.Init.RepetitionCounter = 0;
 80006a8:	4b22      	ldr	r3, [pc, #136]	; (8000734 <MX_TIM1_Init+0xd8>)
 80006aa:	2200      	movs	r2, #0
 80006ac:	615a      	str	r2, [r3, #20]
  htim1.Init.AutoReloadPreload = TIM_AUTORELOAD_PRELOAD_DISABLE;
 80006ae:	4b21      	ldr	r3, [pc, #132]	; (8000734 <MX_TIM1_Init+0xd8>)
 80006b0:	2200      	movs	r2, #0
 80006b2:	619a      	str	r2, [r3, #24]
  sConfig.EncoderMode = TIM_ENCODERMODE_TI12;
 80006b4:	2303      	movs	r3, #3
 80006b6:	647b      	str	r3, [r7, #68]	; 0x44
  sConfig.IC1Polarity = TIM_ICPOLARITY_RISING;
 80006b8:	2300      	movs	r3, #0
 80006ba:	64bb      	str	r3, [r7, #72]	; 0x48
  sConfig.IC1Selection = TIM_ICSELECTION_DIRECTTI;
 80006bc:	2301      	movs	r3, #1
 80006be:	64fb      	str	r3, [r7, #76]	; 0x4c
  sConfig.IC1Prescaler = TIM_ICPSC_DIV1;
 80006c0:	2300      	movs	r3, #0
 80006c2:	653b      	str	r3, [r7, #80]	; 0x50
  sConfig.IC1Filter = 0;
 80006c4:	2300      	movs	r3, #0
 80006c6:	657b      	str	r3, [r7, #84]	; 0x54
  sConfig.IC2Polarity = TIM_ICPOLARITY_RISING;
 80006c8:	2300      	movs	r3, #0
 80006ca:	65bb      	str	r3, [r7, #88]	; 0x58
  sConfig.IC2Selection = TIM_ICSELECTION_DIRECTTI;
 80006cc:	2301      	movs	r3, #1
 80006ce:	65fb      	str	r3, [r7, #92]	; 0x5c
  sConfig.IC2Prescaler = TIM_ICPSC_DIV1;
 80006d0:	2300      	movs	r3, #0
 80006d2:	663b      	str	r3, [r7, #96]	; 0x60
  sConfig.IC2Filter = 0;
 80006d4:	2300      	movs	r3, #0
 80006d6:	667b      	str	r3, [r7, #100]	; 0x64
  if (HAL_TIM_Encoder_Init(&htim1, &sConfig) != HAL_OK)
 80006d8:	f107 0344 	add.w	r3, r7, #68	; 0x44
 80006dc:	4619      	mov	r1, r3
 80006de:	4815      	ldr	r0, [pc, #84]	; (8000734 <MX_TIM1_Init+0xd8>)
 80006e0:	f003 fe76 	bl	80043d0 <HAL_TIM_Encoder_Init>
 80006e4:	4603      	mov	r3, r0
 80006e6:	2b00      	cmp	r3, #0
 80006e8:	d001      	beq.n	80006ee <MX_TIM1_Init+0x92>
  {
    Error_Handler();
 80006ea:	f000 fb71 	bl	8000dd0 <Error_Handler>
  }
  sMasterConfig.MasterOutputTrigger = TIM_TRGO_RESET;
 80006ee:	2300      	movs	r3, #0
 80006f0:	63bb      	str	r3, [r7, #56]	; 0x38
  sMasterConfig.MasterOutputTrigger2 = TIM_TRGO2_RESET;
 80006f2:	2300      	movs	r3, #0
 80006f4:	63fb      	str	r3, [r7, #60]	; 0x3c
  sMasterConfig.MasterSlaveMode = TIM_MASTERSLAVEMODE_DISABLE;
 80006f6:	2300      	movs	r3, #0
 80006f8:	643b      	str	r3, [r7, #64]	; 0x40
  if (HAL_TIMEx_MasterConfigSynchronization(&htim1, &sMasterConfig) != HAL_OK)
 80006fa:	f107 0338 	add.w	r3, r7, #56	; 0x38
 80006fe:	4619      	mov	r1, r3
 8000700:	480c      	ldr	r0, [pc, #48]	; (8000734 <MX_TIM1_Init+0xd8>)
 8000702:	f004 fdfb 	bl	80052fc <HAL_TIMEx_MasterConfigSynchronization>
 8000706:	4603      	mov	r3, r0
 8000708:	2b00      	cmp	r3, #0
 800070a:	d001      	beq.n	8000710 <MX_TIM1_Init+0xb4>
  {
    Error_Handler();
 800070c:	f000 fb60 	bl	8000dd0 <Error_Handler>
  }
  sBreakDeadTimeConfig.BreakAFMode = TIM_BREAK_AFMODE_INPUT;
 8000710:	2300      	movs	r3, #0
 8000712:	623b      	str	r3, [r7, #32]
  sBreakDeadTimeConfig.Break2AFMode = TIM_BREAK_AFMODE_INPUT;
 8000714:	2300      	movs	r3, #0
 8000716:	633b      	str	r3, [r7, #48]	; 0x30
  if (HAL_TIMEx_ConfigBreakDeadTime(&htim1, &sBreakDeadTimeConfig) != HAL_OK)
 8000718:	1d3b      	adds	r3, r7, #4
 800071a:	4619      	mov	r1, r3
 800071c:	4805      	ldr	r0, [pc, #20]	; (8000734 <MX_TIM1_Init+0xd8>)
 800071e:	f004 fe6f 	bl	8005400 <HAL_TIMEx_ConfigBreakDeadTime>
 8000722:	4603      	mov	r3, r0
 8000724:	2b00      	cmp	r3, #0
 8000726:	d001      	beq.n	800072c <MX_TIM1_Init+0xd0>
  {
    Error_Handler();
 8000728:	f000 fb52 	bl	8000dd0 <Error_Handler>
  }
  /* USER CODE BEGIN TIM1_Init 2 */

  /* USER CODE END TIM1_Init 2 */

}
 800072c:	bf00      	nop
 800072e:	3768      	adds	r7, #104	; 0x68
 8000730:	46bd      	mov	sp, r7
 8000732:	bd80      	pop	{r7, pc}
 8000734:	20000588 	.word	0x20000588
 8000738:	40012c00 	.word	0x40012c00

0800073c <MX_TIM2_Init>:
  * @brief TIM2 Initialization Function
  * @param None
  * @retval None
  */
static void MX_TIM2_Init(void)
{
 800073c:	b580      	push	{r7, lr}
 800073e:	b08a      	sub	sp, #40	; 0x28
 8000740:	af00      	add	r7, sp, #0

  /* USER CODE BEGIN TIM2_Init 0 */

  /* USER CODE END TIM2_Init 0 */

  TIM_MasterConfigTypeDef sMasterConfig = {0};
 8000742:	f107 031c 	add.w	r3, r7, #28
 8000746:	2200      	movs	r2, #0
 8000748:	601a      	str	r2, [r3, #0]
 800074a:	605a      	str	r2, [r3, #4]
 800074c:	609a      	str	r2, [r3, #8]
  TIM_OC_InitTypeDef sConfigOC = {0};
 800074e:	463b      	mov	r3, r7
 8000750:	2200      	movs	r2, #0
 8000752:	601a      	str	r2, [r3, #0]
 8000754:	605a      	str	r2, [r3, #4]
 8000756:	609a      	str	r2, [r3, #8]
 8000758:	60da      	str	r2, [r3, #12]
 800075a:	611a      	str	r2, [r3, #16]
 800075c:	615a      	str	r2, [r3, #20]
 800075e:	619a      	str	r2, [r3, #24]

  /* USER CODE BEGIN TIM2_Init 1 */

  /* USER CODE END TIM2_Init 1 */
  htim2.Instance = TIM2;
 8000760:	4b28      	ldr	r3, [pc, #160]	; (8000804 <MX_TIM2_Init+0xc8>)
 8000762:	f04f 4280 	mov.w	r2, #1073741824	; 0x40000000
 8000766:	601a      	str	r2, [r3, #0]
  htim2.Init.Prescaler = 0;
 8000768:	4b26      	ldr	r3, [pc, #152]	; (8000804 <MX_TIM2_Init+0xc8>)
 800076a:	2200      	movs	r2, #0
 800076c:	605a      	str	r2, [r3, #4]
  htim2.Init.CounterMode = TIM_COUNTERMODE_UP;
 800076e:	4b25      	ldr	r3, [pc, #148]	; (8000804 <MX_TIM2_Init+0xc8>)
 8000770:	2200      	movs	r2, #0
 8000772:	609a      	str	r2, [r3, #8]
  htim2.Init.Period = 65535;
 8000774:	4b23      	ldr	r3, [pc, #140]	; (8000804 <MX_TIM2_Init+0xc8>)
 8000776:	f64f 72ff 	movw	r2, #65535	; 0xffff
 800077a:	60da      	str	r2, [r3, #12]
  htim2.Init.ClockDivision = TIM_CLOCKDIVISION_DIV1;
 800077c:	4b21      	ldr	r3, [pc, #132]	; (8000804 <MX_TIM2_Init+0xc8>)
 800077e:	2200      	movs	r2, #0
 8000780:	611a      	str	r2, [r3, #16]
  htim2.Init.AutoReloadPreload = TIM_AUTORELOAD_PRELOAD_DISABLE;
 8000782:	4b20      	ldr	r3, [pc, #128]	; (8000804 <MX_TIM2_Init+0xc8>)
 8000784:	2200      	movs	r2, #0
 8000786:	619a      	str	r2, [r3, #24]
  if (HAL_TIM_PWM_Init(&htim2) != HAL_OK)
 8000788:	481e      	ldr	r0, [pc, #120]	; (8000804 <MX_TIM2_Init+0xc8>)
 800078a:	f003 fcc9 	bl	8004120 <HAL_TIM_PWM_Init>
 800078e:	4603      	mov	r3, r0
 8000790:	2b00      	cmp	r3, #0
 8000792:	d001      	beq.n	8000798 <MX_TIM2_Init+0x5c>
  {
    Error_Handler();
 8000794:	f000 fb1c 	bl	8000dd0 <Error_Handler>
  }
  sMasterConfig.MasterOutputTrigger = TIM_TRGO_RESET;
 8000798:	2300      	movs	r3, #0
 800079a:	61fb      	str	r3, [r7, #28]
  sMasterConfig.MasterSlaveMode = TIM_MASTERSLAVEMODE_DISABLE;
 800079c:	2300      	movs	r3, #0
 800079e:	627b      	str	r3, [r7, #36]	; 0x24
  if (HAL_TIMEx_MasterConfigSynchronization(&htim2, &sMasterConfig) != HAL_OK)
 80007a0:	f107 031c 	add.w	r3, r7, #28
 80007a4:	4619      	mov	r1, r3
 80007a6:	4817      	ldr	r0, [pc, #92]	; (8000804 <MX_TIM2_Init+0xc8>)
 80007a8:	f004 fda8 	bl	80052fc <HAL_TIMEx_MasterConfigSynchronization>
 80007ac:	4603      	mov	r3, r0
 80007ae:	2b00      	cmp	r3, #0
 80007b0:	d001      	beq.n	80007b6 <MX_TIM2_Init+0x7a>
  {
    Error_Handler();
 80007b2:	f000 fb0d 	bl	8000dd0 <Error_Handler>
  }
  sConfigOC.OCMode = TIM_OCMODE_PWM1;
 80007b6:	2360      	movs	r3, #96	; 0x60
 80007b8:	603b      	str	r3, [r7, #0]
  sConfigOC.Pulse = 0;
 80007ba:	2300      	movs	r3, #0
 80007bc:	607b      	str	r3, [r7, #4]
  sConfigOC.OCPolarity = TIM_OCPOLARITY_HIGH;
 80007be:	2300      	movs	r3, #0
 80007c0:	60bb      	str	r3, [r7, #8]
  sConfigOC.OCFastMode = TIM_OCFAST_DISABLE;
 80007c2:	2300      	movs	r3, #0
 80007c4:	613b      	str	r3, [r7, #16]
  if (HAL_TIM_PWM_ConfigChannel(&htim2, &sConfigOC, TIM_CHANNEL_2) != HAL_OK)
 80007c6:	463b      	mov	r3, r7
 80007c8:	2204      	movs	r2, #4
 80007ca:	4619      	mov	r1, r3
 80007cc:	480d      	ldr	r0, [pc, #52]	; (8000804 <MX_TIM2_Init+0xc8>)
 80007ce:	f004 f8b1 	bl	8004934 <HAL_TIM_PWM_ConfigChannel>
 80007d2:	4603      	mov	r3, r0
 80007d4:	2b00      	cmp	r3, #0
 80007d6:	d001      	beq.n	80007dc <MX_TIM2_Init+0xa0>
  {
    Error_Handler();
 80007d8:	f000 fafa 	bl	8000dd0 <Error_Handler>
  }
  sConfigOC.Pulse = 0;
 80007dc:	2300      	movs	r3, #0
 80007de:	607b      	str	r3, [r7, #4]
  if (HAL_TIM_PWM_ConfigChannel(&htim2, &sConfigOC, TIM_CHANNEL_4) != HAL_OK)
 80007e0:	463b      	mov	r3, r7
 80007e2:	220c      	movs	r2, #12
 80007e4:	4619      	mov	r1, r3
 80007e6:	4807      	ldr	r0, [pc, #28]	; (8000804 <MX_TIM2_Init+0xc8>)
 80007e8:	f004 f8a4 	bl	8004934 <HAL_TIM_PWM_ConfigChannel>
 80007ec:	4603      	mov	r3, r0
 80007ee:	2b00      	cmp	r3, #0
 80007f0:	d001      	beq.n	80007f6 <MX_TIM2_Init+0xba>
  {
    Error_Handler();
 80007f2:	f000 faed 	bl	8000dd0 <Error_Handler>
  }
  /* USER CODE BEGIN TIM2_Init 2 */

  /* USER CODE END TIM2_Init 2 */
  HAL_TIM_MspPostInit(&htim2);
 80007f6:	4803      	ldr	r0, [pc, #12]	; (8000804 <MX_TIM2_Init+0xc8>)
 80007f8:	f000 fc3c 	bl	8001074 <HAL_TIM_MspPostInit>

}
 80007fc:	bf00      	nop
 80007fe:	3728      	adds	r7, #40	; 0x28
 8000800:	46bd      	mov	sp, r7
 8000802:	bd80      	pop	{r7, pc}
 8000804:	200005d4 	.word	0x200005d4

08000808 <MX_TIM3_Init>:
  * @brief TIM3 Initialization Function
  * @param None
  * @retval None
  */
static void MX_TIM3_Init(void)
{
 8000808:	b580      	push	{r7, lr}
 800080a:	b08c      	sub	sp, #48	; 0x30
 800080c:	af00      	add	r7, sp, #0

  /* USER CODE BEGIN TIM3_Init 0 */

  /* USER CODE END TIM3_Init 0 */

  TIM_Encoder_InitTypeDef sConfig = {0};
 800080e:	f107 030c 	add.w	r3, r7, #12
 8000812:	2224      	movs	r2, #36	; 0x24
 8000814:	2100      	movs	r1, #0
 8000816:	4618      	mov	r0, r3
 8000818:	f009 f8a9 	bl	800996e <memset>
  TIM_MasterConfigTypeDef sMasterConfig = {0};
 800081c:	463b      	mov	r3, r7
 800081e:	2200      	movs	r2, #0
 8000820:	601a      	str	r2, [r3, #0]
 8000822:	605a      	str	r2, [r3, #4]
 8000824:	609a      	str	r2, [r3, #8]

  /* USER CODE BEGIN TIM3_Init 1 */

  /* USER CODE END TIM3_Init 1 */
  htim3.Instance = TIM3;
 8000826:	4b21      	ldr	r3, [pc, #132]	; (80008ac <MX_TIM3_Init+0xa4>)
 8000828:	4a21      	ldr	r2, [pc, #132]	; (80008b0 <MX_TIM3_Init+0xa8>)
 800082a:	601a      	str	r2, [r3, #0]
  htim3.Init.Prescaler = 0;
 800082c:	4b1f      	ldr	r3, [pc, #124]	; (80008ac <MX_TIM3_Init+0xa4>)
 800082e:	2200      	movs	r2, #0
 8000830:	605a      	str	r2, [r3, #4]
  htim3.Init.CounterMode = TIM_COUNTERMODE_UP;
 8000832:	4b1e      	ldr	r3, [pc, #120]	; (80008ac <MX_TIM3_Init+0xa4>)
 8000834:	2200      	movs	r2, #0
 8000836:	609a      	str	r2, [r3, #8]
  htim3.Init.Period = 65535;
 8000838:	4b1c      	ldr	r3, [pc, #112]	; (80008ac <MX_TIM3_Init+0xa4>)
 800083a:	f64f 72ff 	movw	r2, #65535	; 0xffff
 800083e:	60da      	str	r2, [r3, #12]
  htim3.Init.ClockDivision = TIM_CLOCKDIVISION_DIV1;
 8000840:	4b1a      	ldr	r3, [pc, #104]	; (80008ac <MX_TIM3_Init+0xa4>)
 8000842:	2200      	movs	r2, #0
 8000844:	611a      	str	r2, [r3, #16]
  htim3.Init.AutoReloadPreload = TIM_AUTORELOAD_PRELOAD_DISABLE;
 8000846:	4b19      	ldr	r3, [pc, #100]	; (80008ac <MX_TIM3_Init+0xa4>)
 8000848:	2200      	movs	r2, #0
 800084a:	619a      	str	r2, [r3, #24]
  sConfig.EncoderMode = TIM_ENCODERMODE_TI12;
 800084c:	2303      	movs	r3, #3
 800084e:	60fb      	str	r3, [r7, #12]
  sConfig.IC1Polarity = TIM_ICPOLARITY_RISING;
 8000850:	2300      	movs	r3, #0
 8000852:	613b      	str	r3, [r7, #16]
  sConfig.IC1Selection = TIM_ICSELECTION_DIRECTTI;
 8000854:	2301      	movs	r3, #1
 8000856:	617b      	str	r3, [r7, #20]
  sConfig.IC1Prescaler = TIM_ICPSC_DIV1;
 8000858:	2300      	movs	r3, #0
 800085a:	61bb      	str	r3, [r7, #24]
  sConfig.IC1Filter = 0;
 800085c:	2300      	movs	r3, #0
 800085e:	61fb      	str	r3, [r7, #28]
  sConfig.IC2Polarity = TIM_ICPOLARITY_RISING;
 8000860:	2300      	movs	r3, #0
 8000862:	623b      	str	r3, [r7, #32]
  sConfig.IC2Selection = TIM_ICSELECTION_DIRECTTI;
 8000864:	2301      	movs	r3, #1
 8000866:	627b      	str	r3, [r7, #36]	; 0x24
  sConfig.IC2Prescaler = TIM_ICPSC_DIV1;
 8000868:	2300      	movs	r3, #0
 800086a:	62bb      	str	r3, [r7, #40]	; 0x28
  sConfig.IC2Filter = 0;
 800086c:	2300      	movs	r3, #0
 800086e:	62fb      	str	r3, [r7, #44]	; 0x2c
  if (HAL_TIM_Encoder_Init(&htim3, &sConfig) != HAL_OK)
 8000870:	f107 030c 	add.w	r3, r7, #12
 8000874:	4619      	mov	r1, r3
 8000876:	480d      	ldr	r0, [pc, #52]	; (80008ac <MX_TIM3_Init+0xa4>)
 8000878:	f003 fdaa 	bl	80043d0 <HAL_TIM_Encoder_Init>
 800087c:	4603      	mov	r3, r0
 800087e:	2b00      	cmp	r3, #0
 8000880:	d001      	beq.n	8000886 <MX_TIM3_Init+0x7e>
  {
    Error_Handler();
 8000882:	f000 faa5 	bl	8000dd0 <Error_Handler>
  }
  sMasterConfig.MasterOutputTrigger = TIM_TRGO_RESET;
 8000886:	2300      	movs	r3, #0
 8000888:	603b      	str	r3, [r7, #0]
  sMasterConfig.MasterSlaveMode = TIM_MASTERSLAVEMODE_DISABLE;
 800088a:	2300      	movs	r3, #0
 800088c:	60bb      	str	r3, [r7, #8]
  if (HAL_TIMEx_MasterConfigSynchronization(&htim3, &sMasterConfig) != HAL_OK)
 800088e:	463b      	mov	r3, r7
 8000890:	4619      	mov	r1, r3
 8000892:	4806      	ldr	r0, [pc, #24]	; (80008ac <MX_TIM3_Init+0xa4>)
 8000894:	f004 fd32 	bl	80052fc <HAL_TIMEx_MasterConfigSynchronization>
 8000898:	4603      	mov	r3, r0
 800089a:	2b00      	cmp	r3, #0
 800089c:	d001      	beq.n	80008a2 <MX_TIM3_Init+0x9a>
  {
    Error_Handler();
 800089e:	f000 fa97 	bl	8000dd0 <Error_Handler>
  }
  /* USER CODE BEGIN TIM3_Init 2 */

  /* USER CODE END TIM3_Init 2 */

}
 80008a2:	bf00      	nop
 80008a4:	3730      	adds	r7, #48	; 0x30
 80008a6:	46bd      	mov	sp, r7
 80008a8:	bd80      	pop	{r7, pc}
 80008aa:	bf00      	nop
 80008ac:	200004ec 	.word	0x200004ec
 80008b0:	40000400 	.word	0x40000400

080008b4 <MX_TIM4_Init>:
  * @brief TIM4 Initialization Function
  * @param None
  * @retval None
  */
static void MX_TIM4_Init(void)
{
 80008b4:	b580      	push	{r7, lr}
 80008b6:	b08c      	sub	sp, #48	; 0x30
 80008b8:	af00      	add	r7, sp, #0

  /* USER CODE BEGIN TIM4_Init 0 */

  /* USER CODE END TIM4_Init 0 */

  TIM_Encoder_InitTypeDef sConfig = {0};
 80008ba:	f107 030c 	add.w	r3, r7, #12
 80008be:	2224      	movs	r2, #36	; 0x24
 80008c0:	2100      	movs	r1, #0
 80008c2:	4618      	mov	r0, r3
 80008c4:	f009 f853 	bl	800996e <memset>
  TIM_MasterConfigTypeDef sMasterConfig = {0};
 80008c8:	463b      	mov	r3, r7
 80008ca:	2200      	movs	r2, #0
 80008cc:	601a      	str	r2, [r3, #0]
 80008ce:	605a      	str	r2, [r3, #4]
 80008d0:	609a      	str	r2, [r3, #8]

  /* USER CODE BEGIN TIM4_Init 1 */

  /* USER CODE END TIM4_Init 1 */
  htim4.Instance = TIM4;
 80008d2:	4b21      	ldr	r3, [pc, #132]	; (8000958 <MX_TIM4_Init+0xa4>)
 80008d4:	4a21      	ldr	r2, [pc, #132]	; (800095c <MX_TIM4_Init+0xa8>)
 80008d6:	601a      	str	r2, [r3, #0]
  htim4.Init.Prescaler = 0;
 80008d8:	4b1f      	ldr	r3, [pc, #124]	; (8000958 <MX_TIM4_Init+0xa4>)
 80008da:	2200      	movs	r2, #0
 80008dc:	605a      	str	r2, [r3, #4]
  htim4.Init.CounterMode = TIM_COUNTERMODE_UP;
 80008de:	4b1e      	ldr	r3, [pc, #120]	; (8000958 <MX_TIM4_Init+0xa4>)
 80008e0:	2200      	movs	r2, #0
 80008e2:	609a      	str	r2, [r3, #8]
  htim4.Init.Period = 65535;
 80008e4:	4b1c      	ldr	r3, [pc, #112]	; (8000958 <MX_TIM4_Init+0xa4>)
 80008e6:	f64f 72ff 	movw	r2, #65535	; 0xffff
 80008ea:	60da      	str	r2, [r3, #12]
  htim4.Init.ClockDivision = TIM_CLOCKDIVISION_DIV1;
 80008ec:	4b1a      	ldr	r3, [pc, #104]	; (8000958 <MX_TIM4_Init+0xa4>)
 80008ee:	2200      	movs	r2, #0
 80008f0:	611a      	str	r2, [r3, #16]
  htim4.Init.AutoReloadPreload = TIM_AUTORELOAD_PRELOAD_DISABLE;
 80008f2:	4b19      	ldr	r3, [pc, #100]	; (8000958 <MX_TIM4_Init+0xa4>)
 80008f4:	2200      	movs	r2, #0
 80008f6:	619a      	str	r2, [r3, #24]
  sConfig.EncoderMode = TIM_ENCODERMODE_TI12;
 80008f8:	2303      	movs	r3, #3
 80008fa:	60fb      	str	r3, [r7, #12]
  sConfig.IC1Polarity = TIM_ICPOLARITY_RISING;
 80008fc:	2300      	movs	r3, #0
 80008fe:	613b      	str	r3, [r7, #16]
  sConfig.IC1Selection = TIM_ICSELECTION_DIRECTTI;
 8000900:	2301      	movs	r3, #1
 8000902:	617b      	str	r3, [r7, #20]
  sConfig.IC1Prescaler = TIM_ICPSC_DIV1;
 8000904:	2300      	movs	r3, #0
 8000906:	61bb      	str	r3, [r7, #24]
  sConfig.IC1Filter = 0;
 8000908:	2300      	movs	r3, #0
 800090a:	61fb      	str	r3, [r7, #28]
  sConfig.IC2Polarity = TIM_ICPOLARITY_RISING;
 800090c:	2300      	movs	r3, #0
 800090e:	623b      	str	r3, [r7, #32]
  sConfig.IC2Selection = TIM_ICSELECTION_DIRECTTI;
 8000910:	2301      	movs	r3, #1
 8000912:	627b      	str	r3, [r7, #36]	; 0x24
  sConfig.IC2Prescaler = TIM_ICPSC_DIV1;
 8000914:	2300      	movs	r3, #0
 8000916:	62bb      	str	r3, [r7, #40]	; 0x28
  sConfig.IC2Filter = 0;
 8000918:	2300      	movs	r3, #0
 800091a:	62fb      	str	r3, [r7, #44]	; 0x2c
  if (HAL_TIM_Encoder_Init(&htim4, &sConfig) != HAL_OK)
 800091c:	f107 030c 	add.w	r3, r7, #12
 8000920:	4619      	mov	r1, r3
 8000922:	480d      	ldr	r0, [pc, #52]	; (8000958 <MX_TIM4_Init+0xa4>)
 8000924:	f003 fd54 	bl	80043d0 <HAL_TIM_Encoder_Init>
 8000928:	4603      	mov	r3, r0
 800092a:	2b00      	cmp	r3, #0
 800092c:	d001      	beq.n	8000932 <MX_TIM4_Init+0x7e>
  {
    Error_Handler();
 800092e:	f000 fa4f 	bl	8000dd0 <Error_Handler>
  }
  sMasterConfig.MasterOutputTrigger = TIM_TRGO_RESET;
 8000932:	2300      	movs	r3, #0
 8000934:	603b      	str	r3, [r7, #0]
  sMasterConfig.MasterSlaveMode = TIM_MASTERSLAVEMODE_DISABLE;
 8000936:	2300      	movs	r3, #0
 8000938:	60bb      	str	r3, [r7, #8]
  if (HAL_TIMEx_MasterConfigSynchronization(&htim4, &sMasterConfig) != HAL_OK)
 800093a:	463b      	mov	r3, r7
 800093c:	4619      	mov	r1, r3
 800093e:	4806      	ldr	r0, [pc, #24]	; (8000958 <MX_TIM4_Init+0xa4>)
 8000940:	f004 fcdc 	bl	80052fc <HAL_TIMEx_MasterConfigSynchronization>
 8000944:	4603      	mov	r3, r0
 8000946:	2b00      	cmp	r3, #0
 8000948:	d001      	beq.n	800094e <MX_TIM4_Init+0x9a>
  {
    Error_Handler();
 800094a:	f000 fa41 	bl	8000dd0 <Error_Handler>
  }
  /* USER CODE BEGIN TIM4_Init 2 */

  /* USER CODE END TIM4_Init 2 */

}
 800094e:	bf00      	nop
 8000950:	3730      	adds	r7, #48	; 0x30
 8000952:	46bd      	mov	sp, r7
 8000954:	bd80      	pop	{r7, pc}
 8000956:	bf00      	nop
 8000958:	20000450 	.word	0x20000450
 800095c:	40000800 	.word	0x40000800

08000960 <MX_TIM6_Init>:
  * @brief TIM6 Initialization Function
  * @param None
  * @retval None
  */
static void MX_TIM6_Init(void)
{
 8000960:	b580      	push	{r7, lr}
 8000962:	b084      	sub	sp, #16
 8000964:	af00      	add	r7, sp, #0

  /* USER CODE BEGIN TIM6_Init 0 */

  /* USER CODE END TIM6_Init 0 */

  TIM_MasterConfigTypeDef sMasterConfig = {0};
 8000966:	1d3b      	adds	r3, r7, #4
 8000968:	2200      	movs	r2, #0
 800096a:	601a      	str	r2, [r3, #0]
 800096c:	605a      	str	r2, [r3, #4]
 800096e:	609a      	str	r2, [r3, #8]

  /* USER CODE BEGIN TIM6_Init 1 */

  /* USER CODE END TIM6_Init 1 */
  htim6.Instance = TIM6;
 8000970:	4b14      	ldr	r3, [pc, #80]	; (80009c4 <MX_TIM6_Init+0x64>)
 8000972:	4a15      	ldr	r2, [pc, #84]	; (80009c8 <MX_TIM6_Init+0x68>)
 8000974:	601a      	str	r2, [r3, #0]
  htim6.Init.Prescaler = 24;
 8000976:	4b13      	ldr	r3, [pc, #76]	; (80009c4 <MX_TIM6_Init+0x64>)
 8000978:	2218      	movs	r2, #24
 800097a:	605a      	str	r2, [r3, #4]
  htim6.Init.CounterMode = TIM_COUNTERMODE_UP;
 800097c:	4b11      	ldr	r3, [pc, #68]	; (80009c4 <MX_TIM6_Init+0x64>)
 800097e:	2200      	movs	r2, #0
 8000980:	609a      	str	r2, [r3, #8]
  htim6.Init.Period = 64000;
 8000982:	4b10      	ldr	r3, [pc, #64]	; (80009c4 <MX_TIM6_Init+0x64>)
 8000984:	f44f 427a 	mov.w	r2, #64000	; 0xfa00
 8000988:	60da      	str	r2, [r3, #12]
  htim6.Init.AutoReloadPreload = TIM_AUTORELOAD_PRELOAD_DISABLE;
 800098a:	4b0e      	ldr	r3, [pc, #56]	; (80009c4 <MX_TIM6_Init+0x64>)
 800098c:	2200      	movs	r2, #0
 800098e:	619a      	str	r2, [r3, #24]
  if (HAL_TIM_Base_Init(&htim6) != HAL_OK)
 8000990:	480c      	ldr	r0, [pc, #48]	; (80009c4 <MX_TIM6_Init+0x64>)
 8000992:	f003 fb03 	bl	8003f9c <HAL_TIM_Base_Init>
 8000996:	4603      	mov	r3, r0
 8000998:	2b00      	cmp	r3, #0
 800099a:	d001      	beq.n	80009a0 <MX_TIM6_Init+0x40>
  {
    Error_Handler();
 800099c:	f000 fa18 	bl	8000dd0 <Error_Handler>
  }
  sMasterConfig.MasterOutputTrigger = TIM_TRGO_RESET;
 80009a0:	2300      	movs	r3, #0
 80009a2:	607b      	str	r3, [r7, #4]
  sMasterConfig.MasterSlaveMode = TIM_MASTERSLAVEMODE_DISABLE;
 80009a4:	2300      	movs	r3, #0
 80009a6:	60fb      	str	r3, [r7, #12]
  if (HAL_TIMEx_MasterConfigSynchronization(&htim6, &sMasterConfig) != HAL_OK)
 80009a8:	1d3b      	adds	r3, r7, #4
 80009aa:	4619      	mov	r1, r3
 80009ac:	4805      	ldr	r0, [pc, #20]	; (80009c4 <MX_TIM6_Init+0x64>)
 80009ae:	f004 fca5 	bl	80052fc <HAL_TIMEx_MasterConfigSynchronization>
 80009b2:	4603      	mov	r3, r0
 80009b4:	2b00      	cmp	r3, #0
 80009b6:	d001      	beq.n	80009bc <MX_TIM6_Init+0x5c>
  {
    Error_Handler();
 80009b8:	f000 fa0a 	bl	8000dd0 <Error_Handler>
  }
  /* USER CODE BEGIN TIM6_Init 2 */

  /* USER CODE END TIM6_Init 2 */

}
 80009bc:	bf00      	nop
 80009be:	3710      	adds	r7, #16
 80009c0:	46bd      	mov	sp, r7
 80009c2:	bd80      	pop	{r7, pc}
 80009c4:	2000053c 	.word	0x2000053c
 80009c8:	40001000 	.word	0x40001000

080009cc <MX_TIM8_Init>:
  * @brief TIM8 Initialization Function
  * @param None
  * @retval None
  */
static void MX_TIM8_Init(void)
{
 80009cc:	b580      	push	{r7, lr}
 80009ce:	b098      	sub	sp, #96	; 0x60
 80009d0:	af00      	add	r7, sp, #0

  /* USER CODE BEGIN TIM8_Init 0 */

  /* USER CODE END TIM8_Init 0 */

  TIM_MasterConfigTypeDef sMasterConfig = {0};
 80009d2:	f107 0354 	add.w	r3, r7, #84	; 0x54
 80009d6:	2200      	movs	r2, #0
 80009d8:	601a      	str	r2, [r3, #0]
 80009da:	605a      	str	r2, [r3, #4]
 80009dc:	609a      	str	r2, [r3, #8]
  TIM_OC_InitTypeDef sConfigOC = {0};
 80009de:	f107 0338 	add.w	r3, r7, #56	; 0x38
 80009e2:	2200      	movs	r2, #0
 80009e4:	601a      	str	r2, [r3, #0]
 80009e6:	605a      	str	r2, [r3, #4]
 80009e8:	609a      	str	r2, [r3, #8]
 80009ea:	60da      	str	r2, [r3, #12]
 80009ec:	611a      	str	r2, [r3, #16]
 80009ee:	615a      	str	r2, [r3, #20]
 80009f0:	619a      	str	r2, [r3, #24]
  TIM_BreakDeadTimeConfigTypeDef sBreakDeadTimeConfig = {0};
 80009f2:	1d3b      	adds	r3, r7, #4
 80009f4:	2234      	movs	r2, #52	; 0x34
 80009f6:	2100      	movs	r1, #0
 80009f8:	4618      	mov	r0, r3
 80009fa:	f008 ffb8 	bl	800996e <memset>

  /* USER CODE BEGIN TIM8_Init 1 */

  /* USER CODE END TIM8_Init 1 */
  htim8.Instance = TIM8;
 80009fe:	4b3b      	ldr	r3, [pc, #236]	; (8000aec <MX_TIM8_Init+0x120>)
 8000a00:	4a3b      	ldr	r2, [pc, #236]	; (8000af0 <MX_TIM8_Init+0x124>)
 8000a02:	601a      	str	r2, [r3, #0]
  htim8.Init.Prescaler = 49;
 8000a04:	4b39      	ldr	r3, [pc, #228]	; (8000aec <MX_TIM8_Init+0x120>)
 8000a06:	2231      	movs	r2, #49	; 0x31
 8000a08:	605a      	str	r2, [r3, #4]
  htim8.Init.CounterMode = TIM_COUNTERMODE_UP;
 8000a0a:	4b38      	ldr	r3, [pc, #224]	; (8000aec <MX_TIM8_Init+0x120>)
 8000a0c:	2200      	movs	r2, #0
 8000a0e:	609a      	str	r2, [r3, #8]
  htim8.Init.Period = 63999;
 8000a10:	4b36      	ldr	r3, [pc, #216]	; (8000aec <MX_TIM8_Init+0x120>)
 8000a12:	f64f 12ff 	movw	r2, #63999	; 0xf9ff
 8000a16:	60da      	str	r2, [r3, #12]
  htim8.Init.ClockDivision = TIM_CLOCKDIVISION_DIV1;
 8000a18:	4b34      	ldr	r3, [pc, #208]	; (8000aec <MX_TIM8_Init+0x120>)
 8000a1a:	2200      	movs	r2, #0
 8000a1c:	611a      	str	r2, [r3, #16]
  htim8.Init.RepetitionCounter = 0;
 8000a1e:	4b33      	ldr	r3, [pc, #204]	; (8000aec <MX_TIM8_Init+0x120>)
 8000a20:	2200      	movs	r2, #0
 8000a22:	615a      	str	r2, [r3, #20]
  htim8.Init.AutoReloadPreload = TIM_AUTORELOAD_PRELOAD_DISABLE;
 8000a24:	4b31      	ldr	r3, [pc, #196]	; (8000aec <MX_TIM8_Init+0x120>)
 8000a26:	2200      	movs	r2, #0
 8000a28:	619a      	str	r2, [r3, #24]
  if (HAL_TIM_PWM_Init(&htim8) != HAL_OK)
 8000a2a:	4830      	ldr	r0, [pc, #192]	; (8000aec <MX_TIM8_Init+0x120>)
 8000a2c:	f003 fb78 	bl	8004120 <HAL_TIM_PWM_Init>
 8000a30:	4603      	mov	r3, r0
 8000a32:	2b00      	cmp	r3, #0
 8000a34:	d001      	beq.n	8000a3a <MX_TIM8_Init+0x6e>
  {
    Error_Handler();
 8000a36:	f000 f9cb 	bl	8000dd0 <Error_Handler>
  }
  sMasterConfig.MasterOutputTrigger = TIM_TRGO_RESET;
 8000a3a:	2300      	movs	r3, #0
 8000a3c:	657b      	str	r3, [r7, #84]	; 0x54
  sMasterConfig.MasterOutputTrigger2 = TIM_TRGO2_RESET;
 8000a3e:	2300      	movs	r3, #0
 8000a40:	65bb      	str	r3, [r7, #88]	; 0x58
  sMasterConfig.MasterSlaveMode = TIM_MASTERSLAVEMODE_DISABLE;
 8000a42:	2300      	movs	r3, #0
 8000a44:	65fb      	str	r3, [r7, #92]	; 0x5c
  if (HAL_TIMEx_MasterConfigSynchronization(&htim8, &sMasterConfig) != HAL_OK)
 8000a46:	f107 0354 	add.w	r3, r7, #84	; 0x54
 8000a4a:	4619      	mov	r1, r3
 8000a4c:	4827      	ldr	r0, [pc, #156]	; (8000aec <MX_TIM8_Init+0x120>)
 8000a4e:	f004 fc55 	bl	80052fc <HAL_TIMEx_MasterConfigSynchronization>
 8000a52:	4603      	mov	r3, r0
 8000a54:	2b00      	cmp	r3, #0
 8000a56:	d001      	beq.n	8000a5c <MX_TIM8_Init+0x90>
  {
    Error_Handler();
 8000a58:	f000 f9ba 	bl	8000dd0 <Error_Handler>
  }
  sConfigOC.OCMode = TIM_OCMODE_PWM1;
 8000a5c:	2360      	movs	r3, #96	; 0x60
 8000a5e:	63bb      	str	r3, [r7, #56]	; 0x38
  sConfigOC.Pulse = 0;
 8000a60:	2300      	movs	r3, #0
 8000a62:	63fb      	str	r3, [r7, #60]	; 0x3c
  sConfigOC.OCPolarity = TIM_OCPOLARITY_HIGH;
 8000a64:	2300      	movs	r3, #0
 8000a66:	643b      	str	r3, [r7, #64]	; 0x40
  sConfigOC.OCNPolarity = TIM_OCNPOLARITY_HIGH;
 8000a68:	2300      	movs	r3, #0
 8000a6a:	647b      	str	r3, [r7, #68]	; 0x44
  sConfigOC.OCFastMode = TIM_OCFAST_DISABLE;
 8000a6c:	2300      	movs	r3, #0
 8000a6e:	64bb      	str	r3, [r7, #72]	; 0x48
  sConfigOC.OCIdleState = TIM_OCIDLESTATE_RESET;
 8000a70:	2300      	movs	r3, #0
 8000a72:	64fb      	str	r3, [r7, #76]	; 0x4c
  sConfigOC.OCNIdleState = TIM_OCNIDLESTATE_RESET;
 8000a74:	2300      	movs	r3, #0
 8000a76:	653b      	str	r3, [r7, #80]	; 0x50
  if (HAL_TIM_PWM_ConfigChannel(&htim8, &sConfigOC, TIM_CHANNEL_1) != HAL_OK)
 8000a78:	f107 0338 	add.w	r3, r7, #56	; 0x38
 8000a7c:	2200      	movs	r2, #0
 8000a7e:	4619      	mov	r1, r3
 8000a80:	481a      	ldr	r0, [pc, #104]	; (8000aec <MX_TIM8_Init+0x120>)
 8000a82:	f003 ff57 	bl	8004934 <HAL_TIM_PWM_ConfigChannel>
 8000a86:	4603      	mov	r3, r0
 8000a88:	2b00      	cmp	r3, #0
 8000a8a:	d001      	beq.n	8000a90 <MX_TIM8_Init+0xc4>
  {
    Error_Handler();
 8000a8c:	f000 f9a0 	bl	8000dd0 <Error_Handler>
  }
  sBreakDeadTimeConfig.OffStateRunMode = TIM_OSSR_DISABLE;
 8000a90:	2300      	movs	r3, #0
 8000a92:	607b      	str	r3, [r7, #4]
  sBreakDeadTimeConfig.OffStateIDLEMode = TIM_OSSI_DISABLE;
 8000a94:	2300      	movs	r3, #0
 8000a96:	60bb      	str	r3, [r7, #8]
  sBreakDeadTimeConfig.LockLevel = TIM_LOCKLEVEL_OFF;
 8000a98:	2300      	movs	r3, #0
 8000a9a:	60fb      	str	r3, [r7, #12]
  sBreakDeadTimeConfig.DeadTime = 0;
 8000a9c:	2300      	movs	r3, #0
 8000a9e:	613b      	str	r3, [r7, #16]
  sBreakDeadTimeConfig.BreakState = TIM_BREAK_DISABLE;
 8000aa0:	2300      	movs	r3, #0
 8000aa2:	617b      	str	r3, [r7, #20]
  sBreakDeadTimeConfig.BreakPolarity = TIM_BREAKPOLARITY_HIGH;
 8000aa4:	f44f 5300 	mov.w	r3, #8192	; 0x2000
 8000aa8:	61bb      	str	r3, [r7, #24]
  sBreakDeadTimeConfig.BreakFilter = 0;
 8000aaa:	2300      	movs	r3, #0
 8000aac:	61fb      	str	r3, [r7, #28]
  sBreakDeadTimeConfig.BreakAFMode = TIM_BREAK_AFMODE_INPUT;
 8000aae:	2300      	movs	r3, #0
 8000ab0:	623b      	str	r3, [r7, #32]
  sBreakDeadTimeConfig.Break2State = TIM_BREAK2_DISABLE;
 8000ab2:	2300      	movs	r3, #0
 8000ab4:	627b      	str	r3, [r7, #36]	; 0x24
  sBreakDeadTimeConfig.Break2Polarity = TIM_BREAK2POLARITY_HIGH;
 8000ab6:	f04f 7300 	mov.w	r3, #33554432	; 0x2000000
 8000aba:	62bb      	str	r3, [r7, #40]	; 0x28
  sBreakDeadTimeConfig.Break2Filter = 0;
 8000abc:	2300      	movs	r3, #0
 8000abe:	62fb      	str	r3, [r7, #44]	; 0x2c
  sBreakDeadTimeConfig.Break2AFMode = TIM_BREAK_AFMODE_INPUT;
 8000ac0:	2300      	movs	r3, #0
 8000ac2:	633b      	str	r3, [r7, #48]	; 0x30
  sBreakDeadTimeConfig.AutomaticOutput = TIM_AUTOMATICOUTPUT_DISABLE;
 8000ac4:	2300      	movs	r3, #0
 8000ac6:	637b      	str	r3, [r7, #52]	; 0x34
  if (HAL_TIMEx_ConfigBreakDeadTime(&htim8, &sBreakDeadTimeConfig) != HAL_OK)
 8000ac8:	1d3b      	adds	r3, r7, #4
 8000aca:	4619      	mov	r1, r3
 8000acc:	4807      	ldr	r0, [pc, #28]	; (8000aec <MX_TIM8_Init+0x120>)
 8000ace:	f004 fc97 	bl	8005400 <HAL_TIMEx_ConfigBreakDeadTime>
 8000ad2:	4603      	mov	r3, r0
 8000ad4:	2b00      	cmp	r3, #0
 8000ad6:	d001      	beq.n	8000adc <MX_TIM8_Init+0x110>
  {
    Error_Handler();
 8000ad8:	f000 f97a 	bl	8000dd0 <Error_Handler>
  }
  /* USER CODE BEGIN TIM8_Init 2 */

  /* USER CODE END TIM8_Init 2 */
  HAL_TIM_MspPostInit(&htim8);
 8000adc:	4803      	ldr	r0, [pc, #12]	; (8000aec <MX_TIM8_Init+0x120>)
 8000ade:	f000 fac9 	bl	8001074 <HAL_TIM_MspPostInit>

}
 8000ae2:	bf00      	nop
 8000ae4:	3760      	adds	r7, #96	; 0x60
 8000ae6:	46bd      	mov	sp, r7
 8000ae8:	bd80      	pop	{r7, pc}
 8000aea:	bf00      	nop
 8000aec:	20000404 	.word	0x20000404
 8000af0:	40013400 	.word	0x40013400

08000af4 <MX_TIM15_Init>:
  * @brief TIM15 Initialization Function
  * @param None
  * @retval None
  */
static void MX_TIM15_Init(void)
{
 8000af4:	b580      	push	{r7, lr}
 8000af6:	b098      	sub	sp, #96	; 0x60
 8000af8:	af00      	add	r7, sp, #0

  /* USER CODE BEGIN TIM15_Init 0 */

  /* USER CODE END TIM15_Init 0 */

  TIM_MasterConfigTypeDef sMasterConfig = {0};
 8000afa:	f107 0354 	add.w	r3, r7, #84	; 0x54
 8000afe:	2200      	movs	r2, #0
 8000b00:	601a      	str	r2, [r3, #0]
 8000b02:	605a      	str	r2, [r3, #4]
 8000b04:	609a      	str	r2, [r3, #8]
  TIM_OC_InitTypeDef sConfigOC = {0};
 8000b06:	f107 0338 	add.w	r3, r7, #56	; 0x38
 8000b0a:	2200      	movs	r2, #0
 8000b0c:	601a      	str	r2, [r3, #0]
 8000b0e:	605a      	str	r2, [r3, #4]
 8000b10:	609a      	str	r2, [r3, #8]
 8000b12:	60da      	str	r2, [r3, #12]
 8000b14:	611a      	str	r2, [r3, #16]
 8000b16:	615a      	str	r2, [r3, #20]
 8000b18:	619a      	str	r2, [r3, #24]
  TIM_BreakDeadTimeConfigTypeDef sBreakDeadTimeConfig = {0};
 8000b1a:	1d3b      	adds	r3, r7, #4
 8000b1c:	2234      	movs	r2, #52	; 0x34
 8000b1e:	2100      	movs	r1, #0
 8000b20:	4618      	mov	r0, r3
 8000b22:	f008 ff24 	bl	800996e <memset>

  /* USER CODE BEGIN TIM15_Init 1 */

  /* USER CODE END TIM15_Init 1 */
  htim15.Instance = TIM15;
 8000b26:	4b34      	ldr	r3, [pc, #208]	; (8000bf8 <MX_TIM15_Init+0x104>)
 8000b28:	4a34      	ldr	r2, [pc, #208]	; (8000bfc <MX_TIM15_Init+0x108>)
 8000b2a:	601a      	str	r2, [r3, #0]
  htim15.Init.Prescaler = 49;
 8000b2c:	4b32      	ldr	r3, [pc, #200]	; (8000bf8 <MX_TIM15_Init+0x104>)
 8000b2e:	2231      	movs	r2, #49	; 0x31
 8000b30:	605a      	str	r2, [r3, #4]
  htim15.Init.CounterMode = TIM_COUNTERMODE_UP;
 8000b32:	4b31      	ldr	r3, [pc, #196]	; (8000bf8 <MX_TIM15_Init+0x104>)
 8000b34:	2200      	movs	r2, #0
 8000b36:	609a      	str	r2, [r3, #8]
  htim15.Init.Period = 63999;
 8000b38:	4b2f      	ldr	r3, [pc, #188]	; (8000bf8 <MX_TIM15_Init+0x104>)
 8000b3a:	f64f 12ff 	movw	r2, #63999	; 0xf9ff
 8000b3e:	60da      	str	r2, [r3, #12]
  htim15.Init.ClockDivision = TIM_CLOCKDIVISION_DIV1;
 8000b40:	4b2d      	ldr	r3, [pc, #180]	; (8000bf8 <MX_TIM15_Init+0x104>)
 8000b42:	2200      	movs	r2, #0
 8000b44:	611a      	str	r2, [r3, #16]
  htim15.Init.RepetitionCounter = 0;
 8000b46:	4b2c      	ldr	r3, [pc, #176]	; (8000bf8 <MX_TIM15_Init+0x104>)
 8000b48:	2200      	movs	r2, #0
 8000b4a:	615a      	str	r2, [r3, #20]
  htim15.Init.AutoReloadPreload = TIM_AUTORELOAD_PRELOAD_DISABLE;
 8000b4c:	4b2a      	ldr	r3, [pc, #168]	; (8000bf8 <MX_TIM15_Init+0x104>)
 8000b4e:	2200      	movs	r2, #0
 8000b50:	619a      	str	r2, [r3, #24]
  if (HAL_TIM_PWM_Init(&htim15) != HAL_OK)
 8000b52:	4829      	ldr	r0, [pc, #164]	; (8000bf8 <MX_TIM15_Init+0x104>)
 8000b54:	f003 fae4 	bl	8004120 <HAL_TIM_PWM_Init>
 8000b58:	4603      	mov	r3, r0
 8000b5a:	2b00      	cmp	r3, #0
 8000b5c:	d001      	beq.n	8000b62 <MX_TIM15_Init+0x6e>
  {
    Error_Handler();
 8000b5e:	f000 f937 	bl	8000dd0 <Error_Handler>
  }
  sMasterConfig.MasterOutputTrigger = TIM_TRGO_RESET;
 8000b62:	2300      	movs	r3, #0
 8000b64:	657b      	str	r3, [r7, #84]	; 0x54
  sMasterConfig.MasterSlaveMode = TIM_MASTERSLAVEMODE_DISABLE;
 8000b66:	2300      	movs	r3, #0
 8000b68:	65fb      	str	r3, [r7, #92]	; 0x5c
  if (HAL_TIMEx_MasterConfigSynchronization(&htim15, &sMasterConfig) != HAL_OK)
 8000b6a:	f107 0354 	add.w	r3, r7, #84	; 0x54
 8000b6e:	4619      	mov	r1, r3
 8000b70:	4821      	ldr	r0, [pc, #132]	; (8000bf8 <MX_TIM15_Init+0x104>)
 8000b72:	f004 fbc3 	bl	80052fc <HAL_TIMEx_MasterConfigSynchronization>
 8000b76:	4603      	mov	r3, r0
 8000b78:	2b00      	cmp	r3, #0
 8000b7a:	d001      	beq.n	8000b80 <MX_TIM15_Init+0x8c>
  {
    Error_Handler();
 8000b7c:	f000 f928 	bl	8000dd0 <Error_Handler>
  }
  sConfigOC.OCMode = TIM_OCMODE_PWM1;
 8000b80:	2360      	movs	r3, #96	; 0x60
 8000b82:	63bb      	str	r3, [r7, #56]	; 0x38
  sConfigOC.Pulse = 0;
 8000b84:	2300      	movs	r3, #0
 8000b86:	63fb      	str	r3, [r7, #60]	; 0x3c
  sConfigOC.OCPolarity = TIM_OCPOLARITY_HIGH;
 8000b88:	2300      	movs	r3, #0
 8000b8a:	643b      	str	r3, [r7, #64]	; 0x40
  sConfigOC.OCNPolarity = TIM_OCNPOLARITY_HIGH;
 8000b8c:	2300      	movs	r3, #0
 8000b8e:	647b      	str	r3, [r7, #68]	; 0x44
  sConfigOC.OCFastMode = TIM_OCFAST_DISABLE;
 8000b90:	2300      	movs	r3, #0
 8000b92:	64bb      	str	r3, [r7, #72]	; 0x48
  sConfigOC.OCIdleState = TIM_OCIDLESTATE_RESET;
 8000b94:	2300      	movs	r3, #0
 8000b96:	64fb      	str	r3, [r7, #76]	; 0x4c
  sConfigOC.OCNIdleState = TIM_OCNIDLESTATE_RESET;
 8000b98:	2300      	movs	r3, #0
 8000b9a:	653b      	str	r3, [r7, #80]	; 0x50
  if (HAL_TIM_PWM_ConfigChannel(&htim15, &sConfigOC, TIM_CHANNEL_2) != HAL_OK)
 8000b9c:	f107 0338 	add.w	r3, r7, #56	; 0x38
 8000ba0:	2204      	movs	r2, #4
 8000ba2:	4619      	mov	r1, r3
 8000ba4:	4814      	ldr	r0, [pc, #80]	; (8000bf8 <MX_TIM15_Init+0x104>)
 8000ba6:	f003 fec5 	bl	8004934 <HAL_TIM_PWM_ConfigChannel>
 8000baa:	4603      	mov	r3, r0
 8000bac:	2b00      	cmp	r3, #0
 8000bae:	d001      	beq.n	8000bb4 <MX_TIM15_Init+0xc0>
  {
    Error_Handler();
 8000bb0:	f000 f90e 	bl	8000dd0 <Error_Handler>
  }
  sBreakDeadTimeConfig.OffStateRunMode = TIM_OSSR_DISABLE;
 8000bb4:	2300      	movs	r3, #0
 8000bb6:	607b      	str	r3, [r7, #4]
  sBreakDeadTimeConfig.OffStateIDLEMode = TIM_OSSI_DISABLE;
 8000bb8:	2300      	movs	r3, #0
 8000bba:	60bb      	str	r3, [r7, #8]
  sBreakDeadTimeConfig.LockLevel = TIM_LOCKLEVEL_OFF;
 8000bbc:	2300      	movs	r3, #0
 8000bbe:	60fb      	str	r3, [r7, #12]
  sBreakDeadTimeConfig.DeadTime = 0;
 8000bc0:	2300      	movs	r3, #0
 8000bc2:	613b      	str	r3, [r7, #16]
  sBreakDeadTimeConfig.BreakState = TIM_BREAK_DISABLE;
 8000bc4:	2300      	movs	r3, #0
 8000bc6:	617b      	str	r3, [r7, #20]
  sBreakDeadTimeConfig.BreakPolarity = TIM_BREAKPOLARITY_HIGH;
 8000bc8:	f44f 5300 	mov.w	r3, #8192	; 0x2000
 8000bcc:	61bb      	str	r3, [r7, #24]
  sBreakDeadTimeConfig.BreakFilter = 0;
 8000bce:	2300      	movs	r3, #0
 8000bd0:	61fb      	str	r3, [r7, #28]
  sBreakDeadTimeConfig.AutomaticOutput = TIM_AUTOMATICOUTPUT_DISABLE;
 8000bd2:	2300      	movs	r3, #0
 8000bd4:	637b      	str	r3, [r7, #52]	; 0x34
  if (HAL_TIMEx_ConfigBreakDeadTime(&htim15, &sBreakDeadTimeConfig) != HAL_OK)
 8000bd6:	1d3b      	adds	r3, r7, #4
 8000bd8:	4619      	mov	r1, r3
 8000bda:	4807      	ldr	r0, [pc, #28]	; (8000bf8 <MX_TIM15_Init+0x104>)
 8000bdc:	f004 fc10 	bl	8005400 <HAL_TIMEx_ConfigBreakDeadTime>
 8000be0:	4603      	mov	r3, r0
 8000be2:	2b00      	cmp	r3, #0
 8000be4:	d001      	beq.n	8000bea <MX_TIM15_Init+0xf6>
  {
    Error_Handler();
 8000be6:	f000 f8f3 	bl	8000dd0 <Error_Handler>
  }
  /* USER CODE BEGIN TIM15_Init 2 */

  /* USER CODE END TIM15_Init 2 */
  HAL_TIM_MspPostInit(&htim15);
 8000bea:	4803      	ldr	r0, [pc, #12]	; (8000bf8 <MX_TIM15_Init+0x104>)
 8000bec:	f000 fa42 	bl	8001074 <HAL_TIM_MspPostInit>

}
 8000bf0:	bf00      	nop
 8000bf2:	3760      	adds	r7, #96	; 0x60
 8000bf4:	46bd      	mov	sp, r7
 8000bf6:	bd80      	pop	{r7, pc}
 8000bf8:	2000049c 	.word	0x2000049c
 8000bfc:	40014000 	.word	0x40014000

08000c00 <MX_TIM16_Init>:
  * @brief TIM16 Initialization Function
  * @param None
  * @retval None
  */
static void MX_TIM16_Init(void)
{
 8000c00:	b580      	push	{r7, lr}
 8000c02:	b094      	sub	sp, #80	; 0x50
 8000c04:	af00      	add	r7, sp, #0

  /* USER CODE BEGIN TIM16_Init 0 */

  /* USER CODE END TIM16_Init 0 */

  TIM_OC_InitTypeDef sConfigOC = {0};
 8000c06:	f107 0334 	add.w	r3, r7, #52	; 0x34
 8000c0a:	2200      	movs	r2, #0
 8000c0c:	601a      	str	r2, [r3, #0]
 8000c0e:	605a      	str	r2, [r3, #4]
 8000c10:	609a      	str	r2, [r3, #8]
 8000c12:	60da      	str	r2, [r3, #12]
 8000c14:	611a      	str	r2, [r3, #16]
 8000c16:	615a      	str	r2, [r3, #20]
 8000c18:	619a      	str	r2, [r3, #24]
  TIM_BreakDeadTimeConfigTypeDef sBreakDeadTimeConfig = {0};
 8000c1a:	463b      	mov	r3, r7
 8000c1c:	2234      	movs	r2, #52	; 0x34
 8000c1e:	2100      	movs	r1, #0
 8000c20:	4618      	mov	r0, r3
 8000c22:	f008 fea4 	bl	800996e <memset>

  /* USER CODE BEGIN TIM16_Init 1 */

  /* USER CODE END TIM16_Init 1 */
  htim16.Instance = TIM16;
 8000c26:	4b31      	ldr	r3, [pc, #196]	; (8000cec <MX_TIM16_Init+0xec>)
 8000c28:	4a31      	ldr	r2, [pc, #196]	; (8000cf0 <MX_TIM16_Init+0xf0>)
 8000c2a:	601a      	str	r2, [r3, #0]
  htim16.Init.Prescaler = 0;
 8000c2c:	4b2f      	ldr	r3, [pc, #188]	; (8000cec <MX_TIM16_Init+0xec>)
 8000c2e:	2200      	movs	r2, #0
 8000c30:	605a      	str	r2, [r3, #4]
  htim16.Init.CounterMode = TIM_COUNTERMODE_UP;
 8000c32:	4b2e      	ldr	r3, [pc, #184]	; (8000cec <MX_TIM16_Init+0xec>)
 8000c34:	2200      	movs	r2, #0
 8000c36:	609a      	str	r2, [r3, #8]
  htim16.Init.Period = 65535;
 8000c38:	4b2c      	ldr	r3, [pc, #176]	; (8000cec <MX_TIM16_Init+0xec>)
 8000c3a:	f64f 72ff 	movw	r2, #65535	; 0xffff
 8000c3e:	60da      	str	r2, [r3, #12]
  htim16.Init.ClockDivision = TIM_CLOCKDIVISION_DIV1;
 8000c40:	4b2a      	ldr	r3, [pc, #168]	; (8000cec <MX_TIM16_Init+0xec>)
 8000c42:	2200      	movs	r2, #0
 8000c44:	611a      	str	r2, [r3, #16]
  htim16.Init.RepetitionCounter = 0;
 8000c46:	4b29      	ldr	r3, [pc, #164]	; (8000cec <MX_TIM16_Init+0xec>)
 8000c48:	2200      	movs	r2, #0
 8000c4a:	615a      	str	r2, [r3, #20]
  htim16.Init.AutoReloadPreload = TIM_AUTORELOAD_PRELOAD_DISABLE;
 8000c4c:	4b27      	ldr	r3, [pc, #156]	; (8000cec <MX_TIM16_Init+0xec>)
 8000c4e:	2200      	movs	r2, #0
 8000c50:	619a      	str	r2, [r3, #24]
  if (HAL_TIM_Base_Init(&htim16) != HAL_OK)
 8000c52:	4826      	ldr	r0, [pc, #152]	; (8000cec <MX_TIM16_Init+0xec>)
 8000c54:	f003 f9a2 	bl	8003f9c <HAL_TIM_Base_Init>
 8000c58:	4603      	mov	r3, r0
 8000c5a:	2b00      	cmp	r3, #0
 8000c5c:	d001      	beq.n	8000c62 <MX_TIM16_Init+0x62>
  {
    Error_Handler();
 8000c5e:	f000 f8b7 	bl	8000dd0 <Error_Handler>
  }
  if (HAL_TIM_PWM_Init(&htim16) != HAL_OK)
 8000c62:	4822      	ldr	r0, [pc, #136]	; (8000cec <MX_TIM16_Init+0xec>)
 8000c64:	f003 fa5c 	bl	8004120 <HAL_TIM_PWM_Init>
 8000c68:	4603      	mov	r3, r0
 8000c6a:	2b00      	cmp	r3, #0
 8000c6c:	d001      	beq.n	8000c72 <MX_TIM16_Init+0x72>
  {
    Error_Handler();
 8000c6e:	f000 f8af 	bl	8000dd0 <Error_Handler>
  }
  sConfigOC.OCMode = TIM_OCMODE_PWM1;
 8000c72:	2360      	movs	r3, #96	; 0x60
 8000c74:	637b      	str	r3, [r7, #52]	; 0x34
  sConfigOC.Pulse = 0;
 8000c76:	2300      	movs	r3, #0
 8000c78:	63bb      	str	r3, [r7, #56]	; 0x38
  sConfigOC.OCPolarity = TIM_OCPOLARITY_HIGH;
 8000c7a:	2300      	movs	r3, #0
 8000c7c:	63fb      	str	r3, [r7, #60]	; 0x3c
  sConfigOC.OCNPolarity = TIM_OCNPOLARITY_HIGH;
 8000c7e:	2300      	movs	r3, #0
 8000c80:	643b      	str	r3, [r7, #64]	; 0x40
  sConfigOC.OCFastMode = TIM_OCFAST_DISABLE;
 8000c82:	2300      	movs	r3, #0
 8000c84:	647b      	str	r3, [r7, #68]	; 0x44
  sConfigOC.OCIdleState = TIM_OCIDLESTATE_RESET;
 8000c86:	2300      	movs	r3, #0
 8000c88:	64bb      	str	r3, [r7, #72]	; 0x48
  sConfigOC.OCNIdleState = TIM_OCNIDLESTATE_RESET;
 8000c8a:	2300      	movs	r3, #0
 8000c8c:	64fb      	str	r3, [r7, #76]	; 0x4c
  if (HAL_TIM_PWM_ConfigChannel(&htim16, &sConfigOC, TIM_CHANNEL_1) != HAL_OK)
 8000c8e:	f107 0334 	add.w	r3, r7, #52	; 0x34
 8000c92:	2200      	movs	r2, #0
 8000c94:	4619      	mov	r1, r3
 8000c96:	4815      	ldr	r0, [pc, #84]	; (8000cec <MX_TIM16_Init+0xec>)
 8000c98:	f003 fe4c 	bl	8004934 <HAL_TIM_PWM_ConfigChannel>
 8000c9c:	4603      	mov	r3, r0
 8000c9e:	2b00      	cmp	r3, #0
 8000ca0:	d001      	beq.n	8000ca6 <MX_TIM16_Init+0xa6>
  {
    Error_Handler();
 8000ca2:	f000 f895 	bl	8000dd0 <Error_Handler>
  }
  sBreakDeadTimeConfig.OffStateRunMode = TIM_OSSR_DISABLE;
 8000ca6:	2300      	movs	r3, #0
 8000ca8:	603b      	str	r3, [r7, #0]
  sBreakDeadTimeConfig.OffStateIDLEMode = TIM_OSSI_DISABLE;
 8000caa:	2300      	movs	r3, #0
 8000cac:	607b      	str	r3, [r7, #4]
  sBreakDeadTimeConfig.LockLevel = TIM_LOCKLEVEL_OFF;
 8000cae:	2300      	movs	r3, #0
 8000cb0:	60bb      	str	r3, [r7, #8]
  sBreakDeadTimeConfig.DeadTime = 0;
 8000cb2:	2300      	movs	r3, #0
 8000cb4:	60fb      	str	r3, [r7, #12]
  sBreakDeadTimeConfig.BreakState = TIM_BREAK_DISABLE;
 8000cb6:	2300      	movs	r3, #0
 8000cb8:	613b      	str	r3, [r7, #16]
  sBreakDeadTimeConfig.BreakPolarity = TIM_BREAKPOLARITY_HIGH;
 8000cba:	f44f 5300 	mov.w	r3, #8192	; 0x2000
 8000cbe:	617b      	str	r3, [r7, #20]
  sBreakDeadTimeConfig.BreakFilter = 0;
 8000cc0:	2300      	movs	r3, #0
 8000cc2:	61bb      	str	r3, [r7, #24]
  sBreakDeadTimeConfig.AutomaticOutput = TIM_AUTOMATICOUTPUT_DISABLE;
 8000cc4:	2300      	movs	r3, #0
 8000cc6:	633b      	str	r3, [r7, #48]	; 0x30
  if (HAL_TIMEx_ConfigBreakDeadTime(&htim16, &sBreakDeadTimeConfig) != HAL_OK)
 8000cc8:	463b      	mov	r3, r7
 8000cca:	4619      	mov	r1, r3
 8000ccc:	4807      	ldr	r0, [pc, #28]	; (8000cec <MX_TIM16_Init+0xec>)
 8000cce:	f004 fb97 	bl	8005400 <HAL_TIMEx_ConfigBreakDeadTime>
 8000cd2:	4603      	mov	r3, r0
 8000cd4:	2b00      	cmp	r3, #0
 8000cd6:	d001      	beq.n	8000cdc <MX_TIM16_Init+0xdc>
  {
    Error_Handler();
 8000cd8:	f000 f87a 	bl	8000dd0 <Error_Handler>
  }
  /* USER CODE BEGIN TIM16_Init 2 */

  /* USER CODE END TIM16_Init 2 */
  HAL_TIM_MspPostInit(&htim16);
 8000cdc:	4803      	ldr	r0, [pc, #12]	; (8000cec <MX_TIM16_Init+0xec>)
 8000cde:	f000 f9c9 	bl	8001074 <HAL_TIM_MspPostInit>

}
 8000ce2:	bf00      	nop
 8000ce4:	3750      	adds	r7, #80	; 0x50
 8000ce6:	46bd      	mov	sp, r7
 8000ce8:	bd80      	pop	{r7, pc}
 8000cea:	bf00      	nop
 8000cec:	20000628 	.word	0x20000628
 8000cf0:	40014400 	.word	0x40014400

08000cf4 <MX_GPIO_Init>:
  * @brief GPIO Initialization Function
  * @param None
  * @retval None
  */
static void MX_GPIO_Init(void)
{
 8000cf4:	b580      	push	{r7, lr}
 8000cf6:	b088      	sub	sp, #32
 8000cf8:	af00      	add	r7, sp, #0
  GPIO_InitTypeDef GPIO_InitStruct = {0};
 8000cfa:	f107 030c 	add.w	r3, r7, #12
 8000cfe:	2200      	movs	r2, #0
 8000d00:	601a      	str	r2, [r3, #0]
 8000d02:	605a      	str	r2, [r3, #4]
 8000d04:	609a      	str	r2, [r3, #8]
 8000d06:	60da      	str	r2, [r3, #12]
 8000d08:	611a      	str	r2, [r3, #16]

  /* GPIO Ports Clock Enable */
  __HAL_RCC_GPIOF_CLK_ENABLE();
 8000d0a:	4b2e      	ldr	r3, [pc, #184]	; (8000dc4 <MX_GPIO_Init+0xd0>)
 8000d0c:	6cdb      	ldr	r3, [r3, #76]	; 0x4c
 8000d0e:	4a2d      	ldr	r2, [pc, #180]	; (8000dc4 <MX_GPIO_Init+0xd0>)
 8000d10:	f043 0320 	orr.w	r3, r3, #32
 8000d14:	64d3      	str	r3, [r2, #76]	; 0x4c
 8000d16:	4b2b      	ldr	r3, [pc, #172]	; (8000dc4 <MX_GPIO_Init+0xd0>)
 8000d18:	6cdb      	ldr	r3, [r3, #76]	; 0x4c
 8000d1a:	f003 0320 	and.w	r3, r3, #32
 8000d1e:	60bb      	str	r3, [r7, #8]
 8000d20:	68bb      	ldr	r3, [r7, #8]
  __HAL_RCC_GPIOA_CLK_ENABLE();
 8000d22:	4b28      	ldr	r3, [pc, #160]	; (8000dc4 <MX_GPIO_Init+0xd0>)
 8000d24:	6cdb      	ldr	r3, [r3, #76]	; 0x4c
 8000d26:	4a27      	ldr	r2, [pc, #156]	; (8000dc4 <MX_GPIO_Init+0xd0>)
 8000d28:	f043 0301 	orr.w	r3, r3, #1
 8000d2c:	64d3      	str	r3, [r2, #76]	; 0x4c
 8000d2e:	4b25      	ldr	r3, [pc, #148]	; (8000dc4 <MX_GPIO_Init+0xd0>)
 8000d30:	6cdb      	ldr	r3, [r3, #76]	; 0x4c
 8000d32:	f003 0301 	and.w	r3, r3, #1
 8000d36:	607b      	str	r3, [r7, #4]
 8000d38:	687b      	ldr	r3, [r7, #4]
  __HAL_RCC_GPIOB_CLK_ENABLE();
 8000d3a:	4b22      	ldr	r3, [pc, #136]	; (8000dc4 <MX_GPIO_Init+0xd0>)
 8000d3c:	6cdb      	ldr	r3, [r3, #76]	; 0x4c
 8000d3e:	4a21      	ldr	r2, [pc, #132]	; (8000dc4 <MX_GPIO_Init+0xd0>)
 8000d40:	f043 0302 	orr.w	r3, r3, #2
 8000d44:	64d3      	str	r3, [r2, #76]	; 0x4c
 8000d46:	4b1f      	ldr	r3, [pc, #124]	; (8000dc4 <MX_GPIO_Init+0xd0>)
 8000d48:	6cdb      	ldr	r3, [r3, #76]	; 0x4c
 8000d4a:	f003 0302 	and.w	r3, r3, #2
 8000d4e:	603b      	str	r3, [r7, #0]
 8000d50:	683b      	ldr	r3, [r7, #0]

  /*Configure GPIO pin Output Level */
  HAL_GPIO_WritePin(GPIOF, GPIO_PIN_0, GPIO_PIN_RESET);
 8000d52:	2200      	movs	r2, #0
 8000d54:	2101      	movs	r1, #1
 8000d56:	481c      	ldr	r0, [pc, #112]	; (8000dc8 <MX_GPIO_Init+0xd4>)
 8000d58:	f000 fe00 	bl	800195c <HAL_GPIO_WritePin>

  /*Configure GPIO pin Output Level */
  HAL_GPIO_WritePin(GPIOA, M3DIR_Pin|M2DIR_Pin|M1DIR_Pin, GPIO_PIN_RESET);
 8000d5c:	2200      	movs	r2, #0
 8000d5e:	2185      	movs	r1, #133	; 0x85
 8000d60:	f04f 4090 	mov.w	r0, #1207959552	; 0x48000000
 8000d64:	f000 fdfa 	bl	800195c <HAL_GPIO_WritePin>

  /*Configure GPIO pin : PF0 */
  GPIO_InitStruct.Pin = GPIO_PIN_0;
 8000d68:	2301      	movs	r3, #1
 8000d6a:	60fb      	str	r3, [r7, #12]
  GPIO_InitStruct.Mode = GPIO_MODE_OUTPUT_PP;
 8000d6c:	2301      	movs	r3, #1
 8000d6e:	613b      	str	r3, [r7, #16]
  GPIO_InitStruct.Pull = GPIO_NOPULL;
 8000d70:	2300      	movs	r3, #0
 8000d72:	617b      	str	r3, [r7, #20]
  GPIO_InitStruct.Speed = GPIO_SPEED_FREQ_LOW;
 8000d74:	2300      	movs	r3, #0
 8000d76:	61bb      	str	r3, [r7, #24]
  HAL_GPIO_Init(GPIOF, &GPIO_InitStruct);
 8000d78:	f107 030c 	add.w	r3, r7, #12
 8000d7c:	4619      	mov	r1, r3
 8000d7e:	4812      	ldr	r0, [pc, #72]	; (8000dc8 <MX_GPIO_Init+0xd4>)
 8000d80:	f000 fc52 	bl	8001628 <HAL_GPIO_Init>

  /*Configure GPIO pin : LEDSensor_Pin */
  GPIO_InitStruct.Pin = LEDSensor_Pin;
 8000d84:	2302      	movs	r3, #2
 8000d86:	60fb      	str	r3, [r7, #12]
  GPIO_InitStruct.Mode = GPIO_MODE_IT_RISING;
 8000d88:	4b10      	ldr	r3, [pc, #64]	; (8000dcc <MX_GPIO_Init+0xd8>)
 8000d8a:	613b      	str	r3, [r7, #16]
  GPIO_InitStruct.Pull = GPIO_NOPULL;
 8000d8c:	2300      	movs	r3, #0
 8000d8e:	617b      	str	r3, [r7, #20]
  HAL_GPIO_Init(LEDSensor_GPIO_Port, &GPIO_InitStruct);
 8000d90:	f107 030c 	add.w	r3, r7, #12
 8000d94:	4619      	mov	r1, r3
 8000d96:	480c      	ldr	r0, [pc, #48]	; (8000dc8 <MX_GPIO_Init+0xd4>)
 8000d98:	f000 fc46 	bl	8001628 <HAL_GPIO_Init>

  /*Configure GPIO pins : M3DIR_Pin M2DIR_Pin M1DIR_Pin */
  GPIO_InitStruct.Pin = M3DIR_Pin|M2DIR_Pin|M1DIR_Pin;
 8000d9c:	2385      	movs	r3, #133	; 0x85
 8000d9e:	60fb      	str	r3, [r7, #12]
  GPIO_InitStruct.Mode = GPIO_MODE_OUTPUT_PP;
 8000da0:	2301      	movs	r3, #1
 8000da2:	613b      	str	r3, [r7, #16]
  GPIO_InitStruct.Pull = GPIO_NOPULL;
 8000da4:	2300      	movs	r3, #0
 8000da6:	617b      	str	r3, [r7, #20]
  GPIO_InitStruct.Speed = GPIO_SPEED_FREQ_LOW;
 8000da8:	2300      	movs	r3, #0
 8000daa:	61bb      	str	r3, [r7, #24]
  HAL_GPIO_Init(GPIOA, &GPIO_InitStruct);
 8000dac:	f107 030c 	add.w	r3, r7, #12
 8000db0:	4619      	mov	r1, r3
 8000db2:	f04f 4090 	mov.w	r0, #1207959552	; 0x48000000
 8000db6:	f000 fc37 	bl	8001628 <HAL_GPIO_Init>

}
 8000dba:	bf00      	nop
 8000dbc:	3720      	adds	r7, #32
 8000dbe:	46bd      	mov	sp, r7
 8000dc0:	bd80      	pop	{r7, pc}
 8000dc2:	bf00      	nop
 8000dc4:	40021000 	.word	0x40021000
 8000dc8:	48001400 	.word	0x48001400
 8000dcc:	10110000 	.word	0x10110000

08000dd0 <Error_Handler>:
/**
  * @brief  This function is executed in case of error occurrence.
  * @retval None
  */
void Error_Handler(void)
{
 8000dd0:	b480      	push	{r7}
 8000dd2:	af00      	add	r7, sp, #0
  /* USER CODE BEGIN Error_Handler_Debug */
  /* User can add his own implementation to report the HAL error return state */

  /* USER CODE END Error_Handler_Debug */
}
 8000dd4:	bf00      	nop
 8000dd6:	46bd      	mov	sp, r7
 8000dd8:	f85d 7b04 	ldr.w	r7, [sp], #4
 8000ddc:	4770      	bx	lr
	...

08000de0 <HAL_MspInit>:
void HAL_TIM_MspPostInit(TIM_HandleTypeDef *htim);
                                                                                /**
  * Initializes the Global MSP.
  */
void HAL_MspInit(void)
{
 8000de0:	b580      	push	{r7, lr}
 8000de2:	b082      	sub	sp, #8
 8000de4:	af00      	add	r7, sp, #0
  /* USER CODE BEGIN MspInit 0 */

  /* USER CODE END MspInit 0 */

  __HAL_RCC_SYSCFG_CLK_ENABLE();
 8000de6:	4b0f      	ldr	r3, [pc, #60]	; (8000e24 <HAL_MspInit+0x44>)
 8000de8:	6e1b      	ldr	r3, [r3, #96]	; 0x60
 8000dea:	4a0e      	ldr	r2, [pc, #56]	; (8000e24 <HAL_MspInit+0x44>)
 8000dec:	f043 0301 	orr.w	r3, r3, #1
 8000df0:	6613      	str	r3, [r2, #96]	; 0x60
 8000df2:	4b0c      	ldr	r3, [pc, #48]	; (8000e24 <HAL_MspInit+0x44>)
 8000df4:	6e1b      	ldr	r3, [r3, #96]	; 0x60
 8000df6:	f003 0301 	and.w	r3, r3, #1
 8000dfa:	607b      	str	r3, [r7, #4]
 8000dfc:	687b      	ldr	r3, [r7, #4]
  __HAL_RCC_PWR_CLK_ENABLE();
 8000dfe:	4b09      	ldr	r3, [pc, #36]	; (8000e24 <HAL_MspInit+0x44>)
 8000e00:	6d9b      	ldr	r3, [r3, #88]	; 0x58
 8000e02:	4a08      	ldr	r2, [pc, #32]	; (8000e24 <HAL_MspInit+0x44>)
 8000e04:	f043 5380 	orr.w	r3, r3, #268435456	; 0x10000000
 8000e08:	6593      	str	r3, [r2, #88]	; 0x58
 8000e0a:	4b06      	ldr	r3, [pc, #24]	; (8000e24 <HAL_MspInit+0x44>)
 8000e0c:	6d9b      	ldr	r3, [r3, #88]	; 0x58
 8000e0e:	f003 5380 	and.w	r3, r3, #268435456	; 0x10000000
 8000e12:	603b      	str	r3, [r7, #0]
 8000e14:	683b      	ldr	r3, [r7, #0]

  /* System interrupt init*/

  /** Disable the internal Pull-Up in Dead Battery pins of UCPD peripheral
  */
  HAL_PWREx_DisableUCPDDeadBattery();
 8000e16:	f002 f9c5 	bl	80031a4 <HAL_PWREx_DisableUCPDDeadBattery>

  /* USER CODE BEGIN MspInit 1 */

  /* USER CODE END MspInit 1 */
}
 8000e1a:	bf00      	nop
 8000e1c:	3708      	adds	r7, #8
 8000e1e:	46bd      	mov	sp, r7
 8000e20:	bd80      	pop	{r7, pc}
 8000e22:	bf00      	nop
 8000e24:	40021000 	.word	0x40021000

08000e28 <HAL_TIM_Encoder_MspInit>:
* This function configures the hardware resources used in this example
* @param htim_encoder: TIM_Encoder handle pointer
* @retval None
*/
void HAL_TIM_Encoder_MspInit(TIM_HandleTypeDef* htim_encoder)
{
 8000e28:	b580      	push	{r7, lr}
 8000e2a:	b08e      	sub	sp, #56	; 0x38
 8000e2c:	af00      	add	r7, sp, #0
 8000e2e:	6078      	str	r0, [r7, #4]
  GPIO_InitTypeDef GPIO_InitStruct = {0};
 8000e30:	f107 0324 	add.w	r3, r7, #36	; 0x24
 8000e34:	2200      	movs	r2, #0
 8000e36:	601a      	str	r2, [r3, #0]
 8000e38:	605a      	str	r2, [r3, #4]
 8000e3a:	609a      	str	r2, [r3, #8]
 8000e3c:	60da      	str	r2, [r3, #12]
 8000e3e:	611a      	str	r2, [r3, #16]
  if(htim_encoder->Instance==TIM1)
 8000e40:	687b      	ldr	r3, [r7, #4]
 8000e42:	681b      	ldr	r3, [r3, #0]
 8000e44:	4a46      	ldr	r2, [pc, #280]	; (8000f60 <HAL_TIM_Encoder_MspInit+0x138>)
 8000e46:	4293      	cmp	r3, r2
 8000e48:	d12a      	bne.n	8000ea0 <HAL_TIM_Encoder_MspInit+0x78>
  {
  /* USER CODE BEGIN TIM1_MspInit 0 */

  /* USER CODE END TIM1_MspInit 0 */
    /* Peripheral clock enable */
    __HAL_RCC_TIM1_CLK_ENABLE();
 8000e4a:	4b46      	ldr	r3, [pc, #280]	; (8000f64 <HAL_TIM_Encoder_MspInit+0x13c>)
 8000e4c:	6e1b      	ldr	r3, [r3, #96]	; 0x60
 8000e4e:	4a45      	ldr	r2, [pc, #276]	; (8000f64 <HAL_TIM_Encoder_MspInit+0x13c>)
 8000e50:	f443 6300 	orr.w	r3, r3, #2048	; 0x800
 8000e54:	6613      	str	r3, [r2, #96]	; 0x60
 8000e56:	4b43      	ldr	r3, [pc, #268]	; (8000f64 <HAL_TIM_Encoder_MspInit+0x13c>)
 8000e58:	6e1b      	ldr	r3, [r3, #96]	; 0x60
 8000e5a:	f403 6300 	and.w	r3, r3, #2048	; 0x800
 8000e5e:	623b      	str	r3, [r7, #32]
 8000e60:	6a3b      	ldr	r3, [r7, #32]

    __HAL_RCC_GPIOA_CLK_ENABLE();
 8000e62:	4b40      	ldr	r3, [pc, #256]	; (8000f64 <HAL_TIM_Encoder_MspInit+0x13c>)
 8000e64:	6cdb      	ldr	r3, [r3, #76]	; 0x4c
 8000e66:	4a3f      	ldr	r2, [pc, #252]	; (8000f64 <HAL_TIM_Encoder_MspInit+0x13c>)
 8000e68:	f043 0301 	orr.w	r3, r3, #1
 8000e6c:	64d3      	str	r3, [r2, #76]	; 0x4c
 8000e6e:	4b3d      	ldr	r3, [pc, #244]	; (8000f64 <HAL_TIM_Encoder_MspInit+0x13c>)
 8000e70:	6cdb      	ldr	r3, [r3, #76]	; 0x4c
 8000e72:	f003 0301 	and.w	r3, r3, #1
 8000e76:	61fb      	str	r3, [r7, #28]
 8000e78:	69fb      	ldr	r3, [r7, #28]
    /**TIM1 GPIO Configuration
    PA8     ------> TIM1_CH1
    PA9     ------> TIM1_CH2
    */
    GPIO_InitStruct.Pin = GPIO_PIN_8|GPIO_PIN_9;
 8000e7a:	f44f 7340 	mov.w	r3, #768	; 0x300
 8000e7e:	627b      	str	r3, [r7, #36]	; 0x24
    GPIO_InitStruct.Mode = GPIO_MODE_AF_PP;
 8000e80:	2302      	movs	r3, #2
 8000e82:	62bb      	str	r3, [r7, #40]	; 0x28
    GPIO_InitStruct.Pull = GPIO_NOPULL;
 8000e84:	2300      	movs	r3, #0
 8000e86:	62fb      	str	r3, [r7, #44]	; 0x2c
    GPIO_InitStruct.Speed = GPIO_SPEED_FREQ_LOW;
 8000e88:	2300      	movs	r3, #0
 8000e8a:	633b      	str	r3, [r7, #48]	; 0x30
    GPIO_InitStruct.Alternate = GPIO_AF6_TIM1;
 8000e8c:	2306      	movs	r3, #6
 8000e8e:	637b      	str	r3, [r7, #52]	; 0x34
    HAL_GPIO_Init(GPIOA, &GPIO_InitStruct);
 8000e90:	f107 0324 	add.w	r3, r7, #36	; 0x24
 8000e94:	4619      	mov	r1, r3
 8000e96:	f04f 4090 	mov.w	r0, #1207959552	; 0x48000000
 8000e9a:	f000 fbc5 	bl	8001628 <HAL_GPIO_Init>
  /* USER CODE BEGIN TIM4_MspInit 1 */

  /* USER CODE END TIM4_MspInit 1 */
  }

}
 8000e9e:	e05a      	b.n	8000f56 <HAL_TIM_Encoder_MspInit+0x12e>
  else if(htim_encoder->Instance==TIM3)
 8000ea0:	687b      	ldr	r3, [r7, #4]
 8000ea2:	681b      	ldr	r3, [r3, #0]
 8000ea4:	4a30      	ldr	r2, [pc, #192]	; (8000f68 <HAL_TIM_Encoder_MspInit+0x140>)
 8000ea6:	4293      	cmp	r3, r2
 8000ea8:	d128      	bne.n	8000efc <HAL_TIM_Encoder_MspInit+0xd4>
    __HAL_RCC_TIM3_CLK_ENABLE();
 8000eaa:	4b2e      	ldr	r3, [pc, #184]	; (8000f64 <HAL_TIM_Encoder_MspInit+0x13c>)
 8000eac:	6d9b      	ldr	r3, [r3, #88]	; 0x58
 8000eae:	4a2d      	ldr	r2, [pc, #180]	; (8000f64 <HAL_TIM_Encoder_MspInit+0x13c>)
 8000eb0:	f043 0302 	orr.w	r3, r3, #2
 8000eb4:	6593      	str	r3, [r2, #88]	; 0x58
 8000eb6:	4b2b      	ldr	r3, [pc, #172]	; (8000f64 <HAL_TIM_Encoder_MspInit+0x13c>)
 8000eb8:	6d9b      	ldr	r3, [r3, #88]	; 0x58
 8000eba:	f003 0302 	and.w	r3, r3, #2
 8000ebe:	61bb      	str	r3, [r7, #24]
 8000ec0:	69bb      	ldr	r3, [r7, #24]
    __HAL_RCC_GPIOB_CLK_ENABLE();
 8000ec2:	4b28      	ldr	r3, [pc, #160]	; (8000f64 <HAL_TIM_Encoder_MspInit+0x13c>)
 8000ec4:	6cdb      	ldr	r3, [r3, #76]	; 0x4c
 8000ec6:	4a27      	ldr	r2, [pc, #156]	; (8000f64 <HAL_TIM_Encoder_MspInit+0x13c>)
 8000ec8:	f043 0302 	orr.w	r3, r3, #2
 8000ecc:	64d3      	str	r3, [r2, #76]	; 0x4c
 8000ece:	4b25      	ldr	r3, [pc, #148]	; (8000f64 <HAL_TIM_Encoder_MspInit+0x13c>)
 8000ed0:	6cdb      	ldr	r3, [r3, #76]	; 0x4c
 8000ed2:	f003 0302 	and.w	r3, r3, #2
 8000ed6:	617b      	str	r3, [r7, #20]
 8000ed8:	697b      	ldr	r3, [r7, #20]
    GPIO_InitStruct.Pin = GPIO_PIN_4|GPIO_PIN_5;
 8000eda:	2330      	movs	r3, #48	; 0x30
 8000edc:	627b      	str	r3, [r7, #36]	; 0x24
    GPIO_InitStruct.Mode = GPIO_MODE_AF_PP;
 8000ede:	2302      	movs	r3, #2
 8000ee0:	62bb      	str	r3, [r7, #40]	; 0x28
    GPIO_InitStruct.Pull = GPIO_NOPULL;
 8000ee2:	2300      	movs	r3, #0
 8000ee4:	62fb      	str	r3, [r7, #44]	; 0x2c
    GPIO_InitStruct.Speed = GPIO_SPEED_FREQ_LOW;
 8000ee6:	2300      	movs	r3, #0
 8000ee8:	633b      	str	r3, [r7, #48]	; 0x30
    GPIO_InitStruct.Alternate = GPIO_AF2_TIM3;
 8000eea:	2302      	movs	r3, #2
 8000eec:	637b      	str	r3, [r7, #52]	; 0x34
    HAL_GPIO_Init(GPIOB, &GPIO_InitStruct);
 8000eee:	f107 0324 	add.w	r3, r7, #36	; 0x24
 8000ef2:	4619      	mov	r1, r3
 8000ef4:	481d      	ldr	r0, [pc, #116]	; (8000f6c <HAL_TIM_Encoder_MspInit+0x144>)
 8000ef6:	f000 fb97 	bl	8001628 <HAL_GPIO_Init>
}
 8000efa:	e02c      	b.n	8000f56 <HAL_TIM_Encoder_MspInit+0x12e>
  else if(htim_encoder->Instance==TIM4)
 8000efc:	687b      	ldr	r3, [r7, #4]
 8000efe:	681b      	ldr	r3, [r3, #0]
 8000f00:	4a1b      	ldr	r2, [pc, #108]	; (8000f70 <HAL_TIM_Encoder_MspInit+0x148>)
 8000f02:	4293      	cmp	r3, r2
 8000f04:	d127      	bne.n	8000f56 <HAL_TIM_Encoder_MspInit+0x12e>
    __HAL_RCC_TIM4_CLK_ENABLE();
 8000f06:	4b17      	ldr	r3, [pc, #92]	; (8000f64 <HAL_TIM_Encoder_MspInit+0x13c>)
 8000f08:	6d9b      	ldr	r3, [r3, #88]	; 0x58
 8000f0a:	4a16      	ldr	r2, [pc, #88]	; (8000f64 <HAL_TIM_Encoder_MspInit+0x13c>)
 8000f0c:	f043 0304 	orr.w	r3, r3, #4
 8000f10:	6593      	str	r3, [r2, #88]	; 0x58
 8000f12:	4b14      	ldr	r3, [pc, #80]	; (8000f64 <HAL_TIM_Encoder_MspInit+0x13c>)
 8000f14:	6d9b      	ldr	r3, [r3, #88]	; 0x58
 8000f16:	f003 0304 	and.w	r3, r3, #4
 8000f1a:	613b      	str	r3, [r7, #16]
 8000f1c:	693b      	ldr	r3, [r7, #16]
    __HAL_RCC_GPIOB_CLK_ENABLE();
 8000f1e:	4b11      	ldr	r3, [pc, #68]	; (8000f64 <HAL_TIM_Encoder_MspInit+0x13c>)
 8000f20:	6cdb      	ldr	r3, [r3, #76]	; 0x4c
 8000f22:	4a10      	ldr	r2, [pc, #64]	; (8000f64 <HAL_TIM_Encoder_MspInit+0x13c>)
 8000f24:	f043 0302 	orr.w	r3, r3, #2
 8000f28:	64d3      	str	r3, [r2, #76]	; 0x4c
 8000f2a:	4b0e      	ldr	r3, [pc, #56]	; (8000f64 <HAL_TIM_Encoder_MspInit+0x13c>)
 8000f2c:	6cdb      	ldr	r3, [r3, #76]	; 0x4c
 8000f2e:	f003 0302 	and.w	r3, r3, #2
 8000f32:	60fb      	str	r3, [r7, #12]
 8000f34:	68fb      	ldr	r3, [r7, #12]
    GPIO_InitStruct.Pin = GPIO_PIN_6|GPIO_PIN_7;
 8000f36:	23c0      	movs	r3, #192	; 0xc0
 8000f38:	627b      	str	r3, [r7, #36]	; 0x24
    GPIO_InitStruct.Mode = GPIO_MODE_AF_PP;
 8000f3a:	2302      	movs	r3, #2
 8000f3c:	62bb      	str	r3, [r7, #40]	; 0x28
    GPIO_InitStruct.Pull = GPIO_NOPULL;
 8000f3e:	2300      	movs	r3, #0
 8000f40:	62fb      	str	r3, [r7, #44]	; 0x2c
    GPIO_InitStruct.Speed = GPIO_SPEED_FREQ_LOW;
 8000f42:	2300      	movs	r3, #0
 8000f44:	633b      	str	r3, [r7, #48]	; 0x30
    GPIO_InitStruct.Alternate = GPIO_AF2_TIM4;
 8000f46:	2302      	movs	r3, #2
 8000f48:	637b      	str	r3, [r7, #52]	; 0x34
    HAL_GPIO_Init(GPIOB, &GPIO_InitStruct);
 8000f4a:	f107 0324 	add.w	r3, r7, #36	; 0x24
 8000f4e:	4619      	mov	r1, r3
 8000f50:	4806      	ldr	r0, [pc, #24]	; (8000f6c <HAL_TIM_Encoder_MspInit+0x144>)
 8000f52:	f000 fb69 	bl	8001628 <HAL_GPIO_Init>
}
 8000f56:	bf00      	nop
 8000f58:	3738      	adds	r7, #56	; 0x38
 8000f5a:	46bd      	mov	sp, r7
 8000f5c:	bd80      	pop	{r7, pc}
 8000f5e:	bf00      	nop
 8000f60:	40012c00 	.word	0x40012c00
 8000f64:	40021000 	.word	0x40021000
 8000f68:	40000400 	.word	0x40000400
 8000f6c:	48000400 	.word	0x48000400
 8000f70:	40000800 	.word	0x40000800

08000f74 <HAL_TIM_PWM_MspInit>:
* This function configures the hardware resources used in this example
* @param htim_pwm: TIM_PWM handle pointer
* @retval None
*/
void HAL_TIM_PWM_MspInit(TIM_HandleTypeDef* htim_pwm)
{
 8000f74:	b480      	push	{r7}
 8000f76:	b087      	sub	sp, #28
 8000f78:	af00      	add	r7, sp, #0
 8000f7a:	6078      	str	r0, [r7, #4]
  if(htim_pwm->Instance==TIM2)
 8000f7c:	687b      	ldr	r3, [r7, #4]
 8000f7e:	681b      	ldr	r3, [r3, #0]
 8000f80:	f1b3 4f80 	cmp.w	r3, #1073741824	; 0x40000000
 8000f84:	d10c      	bne.n	8000fa0 <HAL_TIM_PWM_MspInit+0x2c>
  {
  /* USER CODE BEGIN TIM2_MspInit 0 */

  /* USER CODE END TIM2_MspInit 0 */
    /* Peripheral clock enable */
    __HAL_RCC_TIM2_CLK_ENABLE();
 8000f86:	4b1b      	ldr	r3, [pc, #108]	; (8000ff4 <HAL_TIM_PWM_MspInit+0x80>)
 8000f88:	6d9b      	ldr	r3, [r3, #88]	; 0x58
 8000f8a:	4a1a      	ldr	r2, [pc, #104]	; (8000ff4 <HAL_TIM_PWM_MspInit+0x80>)
 8000f8c:	f043 0301 	orr.w	r3, r3, #1
 8000f90:	6593      	str	r3, [r2, #88]	; 0x58
 8000f92:	4b18      	ldr	r3, [pc, #96]	; (8000ff4 <HAL_TIM_PWM_MspInit+0x80>)
 8000f94:	6d9b      	ldr	r3, [r3, #88]	; 0x58
 8000f96:	f003 0301 	and.w	r3, r3, #1
 8000f9a:	617b      	str	r3, [r7, #20]
 8000f9c:	697b      	ldr	r3, [r7, #20]
  /* USER CODE BEGIN TIM15_MspInit 1 */

  /* USER CODE END TIM15_MspInit 1 */
  }

}
 8000f9e:	e022      	b.n	8000fe6 <HAL_TIM_PWM_MspInit+0x72>
  else if(htim_pwm->Instance==TIM8)
 8000fa0:	687b      	ldr	r3, [r7, #4]
 8000fa2:	681b      	ldr	r3, [r3, #0]
 8000fa4:	4a14      	ldr	r2, [pc, #80]	; (8000ff8 <HAL_TIM_PWM_MspInit+0x84>)
 8000fa6:	4293      	cmp	r3, r2
 8000fa8:	d10c      	bne.n	8000fc4 <HAL_TIM_PWM_MspInit+0x50>
    __HAL_RCC_TIM8_CLK_ENABLE();
 8000faa:	4b12      	ldr	r3, [pc, #72]	; (8000ff4 <HAL_TIM_PWM_MspInit+0x80>)
 8000fac:	6e1b      	ldr	r3, [r3, #96]	; 0x60
 8000fae:	4a11      	ldr	r2, [pc, #68]	; (8000ff4 <HAL_TIM_PWM_MspInit+0x80>)
 8000fb0:	f443 5300 	orr.w	r3, r3, #8192	; 0x2000
 8000fb4:	6613      	str	r3, [r2, #96]	; 0x60
 8000fb6:	4b0f      	ldr	r3, [pc, #60]	; (8000ff4 <HAL_TIM_PWM_MspInit+0x80>)
 8000fb8:	6e1b      	ldr	r3, [r3, #96]	; 0x60
 8000fba:	f403 5300 	and.w	r3, r3, #8192	; 0x2000
 8000fbe:	613b      	str	r3, [r7, #16]
 8000fc0:	693b      	ldr	r3, [r7, #16]
}
 8000fc2:	e010      	b.n	8000fe6 <HAL_TIM_PWM_MspInit+0x72>
  else if(htim_pwm->Instance==TIM15)
 8000fc4:	687b      	ldr	r3, [r7, #4]
 8000fc6:	681b      	ldr	r3, [r3, #0]
 8000fc8:	4a0c      	ldr	r2, [pc, #48]	; (8000ffc <HAL_TIM_PWM_MspInit+0x88>)
 8000fca:	4293      	cmp	r3, r2
 8000fcc:	d10b      	bne.n	8000fe6 <HAL_TIM_PWM_MspInit+0x72>
    __HAL_RCC_TIM15_CLK_ENABLE();
 8000fce:	4b09      	ldr	r3, [pc, #36]	; (8000ff4 <HAL_TIM_PWM_MspInit+0x80>)
 8000fd0:	6e1b      	ldr	r3, [r3, #96]	; 0x60
 8000fd2:	4a08      	ldr	r2, [pc, #32]	; (8000ff4 <HAL_TIM_PWM_MspInit+0x80>)
 8000fd4:	f443 3380 	orr.w	r3, r3, #65536	; 0x10000
 8000fd8:	6613      	str	r3, [r2, #96]	; 0x60
 8000fda:	4b06      	ldr	r3, [pc, #24]	; (8000ff4 <HAL_TIM_PWM_MspInit+0x80>)
 8000fdc:	6e1b      	ldr	r3, [r3, #96]	; 0x60
 8000fde:	f403 3380 	and.w	r3, r3, #65536	; 0x10000
 8000fe2:	60fb      	str	r3, [r7, #12]
 8000fe4:	68fb      	ldr	r3, [r7, #12]
}
 8000fe6:	bf00      	nop
 8000fe8:	371c      	adds	r7, #28
 8000fea:	46bd      	mov	sp, r7
 8000fec:	f85d 7b04 	ldr.w	r7, [sp], #4
 8000ff0:	4770      	bx	lr
 8000ff2:	bf00      	nop
 8000ff4:	40021000 	.word	0x40021000
 8000ff8:	40013400 	.word	0x40013400
 8000ffc:	40014000 	.word	0x40014000

08001000 <HAL_TIM_Base_MspInit>:
* This function configures the hardware resources used in this example
* @param htim_base: TIM_Base handle pointer
* @retval None
*/
void HAL_TIM_Base_MspInit(TIM_HandleTypeDef* htim_base)
{
 8001000:	b580      	push	{r7, lr}
 8001002:	b084      	sub	sp, #16
 8001004:	af00      	add	r7, sp, #0
 8001006:	6078      	str	r0, [r7, #4]
  if(htim_base->Instance==TIM6)
 8001008:	687b      	ldr	r3, [r7, #4]
 800100a:	681b      	ldr	r3, [r3, #0]
 800100c:	4a16      	ldr	r2, [pc, #88]	; (8001068 <HAL_TIM_Base_MspInit+0x68>)
 800100e:	4293      	cmp	r3, r2
 8001010:	d114      	bne.n	800103c <HAL_TIM_Base_MspInit+0x3c>
  {
  /* USER CODE BEGIN TIM6_MspInit 0 */

  /* USER CODE END TIM6_MspInit 0 */
    /* Peripheral clock enable */
    __HAL_RCC_TIM6_CLK_ENABLE();
 8001012:	4b16      	ldr	r3, [pc, #88]	; (800106c <HAL_TIM_Base_MspInit+0x6c>)
 8001014:	6d9b      	ldr	r3, [r3, #88]	; 0x58
 8001016:	4a15      	ldr	r2, [pc, #84]	; (800106c <HAL_TIM_Base_MspInit+0x6c>)
 8001018:	f043 0310 	orr.w	r3, r3, #16
 800101c:	6593      	str	r3, [r2, #88]	; 0x58
 800101e:	4b13      	ldr	r3, [pc, #76]	; (800106c <HAL_TIM_Base_MspInit+0x6c>)
 8001020:	6d9b      	ldr	r3, [r3, #88]	; 0x58
 8001022:	f003 0310 	and.w	r3, r3, #16
 8001026:	60fb      	str	r3, [r7, #12]
 8001028:	68fb      	ldr	r3, [r7, #12]
    /* TIM6 interrupt Init */
    HAL_NVIC_SetPriority(TIM6_DAC_IRQn, 0, 0);
 800102a:	2200      	movs	r2, #0
 800102c:	2100      	movs	r1, #0
 800102e:	2036      	movs	r0, #54	; 0x36
 8001030:	f000 fac5 	bl	80015be <HAL_NVIC_SetPriority>
    HAL_NVIC_EnableIRQ(TIM6_DAC_IRQn);
 8001034:	2036      	movs	r0, #54	; 0x36
 8001036:	f000 fadc 	bl	80015f2 <HAL_NVIC_EnableIRQ>
  /* USER CODE BEGIN TIM16_MspInit 1 */

  /* USER CODE END TIM16_MspInit 1 */
  }

}
 800103a:	e010      	b.n	800105e <HAL_TIM_Base_MspInit+0x5e>
  else if(htim_base->Instance==TIM16)
 800103c:	687b      	ldr	r3, [r7, #4]
 800103e:	681b      	ldr	r3, [r3, #0]
 8001040:	4a0b      	ldr	r2, [pc, #44]	; (8001070 <HAL_TIM_Base_MspInit+0x70>)
 8001042:	4293      	cmp	r3, r2
 8001044:	d10b      	bne.n	800105e <HAL_TIM_Base_MspInit+0x5e>
    __HAL_RCC_TIM16_CLK_ENABLE();
 8001046:	4b09      	ldr	r3, [pc, #36]	; (800106c <HAL_TIM_Base_MspInit+0x6c>)
 8001048:	6e1b      	ldr	r3, [r3, #96]	; 0x60
 800104a:	4a08      	ldr	r2, [pc, #32]	; (800106c <HAL_TIM_Base_MspInit+0x6c>)
 800104c:	f443 3300 	orr.w	r3, r3, #131072	; 0x20000
 8001050:	6613      	str	r3, [r2, #96]	; 0x60
 8001052:	4b06      	ldr	r3, [pc, #24]	; (800106c <HAL_TIM_Base_MspInit+0x6c>)
 8001054:	6e1b      	ldr	r3, [r3, #96]	; 0x60
 8001056:	f403 3300 	and.w	r3, r3, #131072	; 0x20000
 800105a:	60bb      	str	r3, [r7, #8]
 800105c:	68bb      	ldr	r3, [r7, #8]
}
 800105e:	bf00      	nop
 8001060:	3710      	adds	r7, #16
 8001062:	46bd      	mov	sp, r7
 8001064:	bd80      	pop	{r7, pc}
 8001066:	bf00      	nop
 8001068:	40001000 	.word	0x40001000
 800106c:	40021000 	.word	0x40021000
 8001070:	40014400 	.word	0x40014400

08001074 <HAL_TIM_MspPostInit>:

void HAL_TIM_MspPostInit(TIM_HandleTypeDef* htim)
{
 8001074:	b580      	push	{r7, lr}
 8001076:	b08c      	sub	sp, #48	; 0x30
 8001078:	af00      	add	r7, sp, #0
 800107a:	6078      	str	r0, [r7, #4]
  GPIO_InitTypeDef GPIO_InitStruct = {0};
 800107c:	f107 031c 	add.w	r3, r7, #28
 8001080:	2200      	movs	r2, #0
 8001082:	601a      	str	r2, [r3, #0]
 8001084:	605a      	str	r2, [r3, #4]
 8001086:	609a      	str	r2, [r3, #8]
 8001088:	60da      	str	r2, [r3, #12]
 800108a:	611a      	str	r2, [r3, #16]
  if(htim->Instance==TIM2)
 800108c:	687b      	ldr	r3, [r7, #4]
 800108e:	681b      	ldr	r3, [r3, #0]
 8001090:	f1b3 4f80 	cmp.w	r3, #1073741824	; 0x40000000
 8001094:	d12f      	bne.n	80010f6 <HAL_TIM_MspPostInit+0x82>
  {
  /* USER CODE BEGIN TIM2_MspPostInit 0 */

  /* USER CODE END TIM2_MspPostInit 0 */
    __HAL_RCC_GPIOA_CLK_ENABLE();
 8001096:	4b4e      	ldr	r3, [pc, #312]	; (80011d0 <HAL_TIM_MspPostInit+0x15c>)
 8001098:	6cdb      	ldr	r3, [r3, #76]	; 0x4c
 800109a:	4a4d      	ldr	r2, [pc, #308]	; (80011d0 <HAL_TIM_MspPostInit+0x15c>)
 800109c:	f043 0301 	orr.w	r3, r3, #1
 80010a0:	64d3      	str	r3, [r2, #76]	; 0x4c
 80010a2:	4b4b      	ldr	r3, [pc, #300]	; (80011d0 <HAL_TIM_MspPostInit+0x15c>)
 80010a4:	6cdb      	ldr	r3, [r3, #76]	; 0x4c
 80010a6:	f003 0301 	and.w	r3, r3, #1
 80010aa:	61bb      	str	r3, [r7, #24]
 80010ac:	69bb      	ldr	r3, [r7, #24]
    /**TIM2 GPIO Configuration
    PA1     ------> TIM2_CH2
    PA10     ------> TIM2_CH4
    */
    GPIO_InitStruct.Pin = GPIO_PIN_1;
 80010ae:	2302      	movs	r3, #2
 80010b0:	61fb      	str	r3, [r7, #28]
    GPIO_InitStruct.Mode = GPIO_MODE_AF_PP;
 80010b2:	2302      	movs	r3, #2
 80010b4:	623b      	str	r3, [r7, #32]
    GPIO_InitStruct.Pull = GPIO_NOPULL;
 80010b6:	2300      	movs	r3, #0
 80010b8:	627b      	str	r3, [r7, #36]	; 0x24
    GPIO_InitStruct.Speed = GPIO_SPEED_FREQ_LOW;
 80010ba:	2300      	movs	r3, #0
 80010bc:	62bb      	str	r3, [r7, #40]	; 0x28
    GPIO_InitStruct.Alternate = GPIO_AF1_TIM2;
 80010be:	2301      	movs	r3, #1
 80010c0:	62fb      	str	r3, [r7, #44]	; 0x2c
    HAL_GPIO_Init(GPIOA, &GPIO_InitStruct);
 80010c2:	f107 031c 	add.w	r3, r7, #28
 80010c6:	4619      	mov	r1, r3
 80010c8:	f04f 4090 	mov.w	r0, #1207959552	; 0x48000000
 80010cc:	f000 faac 	bl	8001628 <HAL_GPIO_Init>

    GPIO_InitStruct.Pin = GPIO_PIN_10;
 80010d0:	f44f 6380 	mov.w	r3, #1024	; 0x400
 80010d4:	61fb      	str	r3, [r7, #28]
    GPIO_InitStruct.Mode = GPIO_MODE_AF_PP;
 80010d6:	2302      	movs	r3, #2
 80010d8:	623b      	str	r3, [r7, #32]
    GPIO_InitStruct.Pull = GPIO_NOPULL;
 80010da:	2300      	movs	r3, #0
 80010dc:	627b      	str	r3, [r7, #36]	; 0x24
    GPIO_InitStruct.Speed = GPIO_SPEED_FREQ_LOW;
 80010de:	2300      	movs	r3, #0
 80010e0:	62bb      	str	r3, [r7, #40]	; 0x28
    GPIO_InitStruct.Alternate = GPIO_AF10_TIM2;
 80010e2:	230a      	movs	r3, #10
 80010e4:	62fb      	str	r3, [r7, #44]	; 0x2c
    HAL_GPIO_Init(GPIOA, &GPIO_InitStruct);
 80010e6:	f107 031c 	add.w	r3, r7, #28
 80010ea:	4619      	mov	r1, r3
 80010ec:	f04f 4090 	mov.w	r0, #1207959552	; 0x48000000
 80010f0:	f000 fa9a 	bl	8001628 <HAL_GPIO_Init>
  /* USER CODE BEGIN TIM16_MspPostInit 1 */

  /* USER CODE END TIM16_MspPostInit 1 */
  }

}
 80010f4:	e068      	b.n	80011c8 <HAL_TIM_MspPostInit+0x154>
  else if(htim->Instance==TIM8)
 80010f6:	687b      	ldr	r3, [r7, #4]
 80010f8:	681b      	ldr	r3, [r3, #0]
 80010fa:	4a36      	ldr	r2, [pc, #216]	; (80011d4 <HAL_TIM_MspPostInit+0x160>)
 80010fc:	4293      	cmp	r3, r2
 80010fe:	d11e      	bne.n	800113e <HAL_TIM_MspPostInit+0xca>
    __HAL_RCC_GPIOA_CLK_ENABLE();
 8001100:	4b33      	ldr	r3, [pc, #204]	; (80011d0 <HAL_TIM_MspPostInit+0x15c>)
 8001102:	6cdb      	ldr	r3, [r3, #76]	; 0x4c
 8001104:	4a32      	ldr	r2, [pc, #200]	; (80011d0 <HAL_TIM_MspPostInit+0x15c>)
 8001106:	f043 0301 	orr.w	r3, r3, #1
 800110a:	64d3      	str	r3, [r2, #76]	; 0x4c
 800110c:	4b30      	ldr	r3, [pc, #192]	; (80011d0 <HAL_TIM_MspPostInit+0x15c>)
 800110e:	6cdb      	ldr	r3, [r3, #76]	; 0x4c
 8001110:	f003 0301 	and.w	r3, r3, #1
 8001114:	617b      	str	r3, [r7, #20]
 8001116:	697b      	ldr	r3, [r7, #20]
    GPIO_InitStruct.Pin = GPIO_PIN_15;
 8001118:	f44f 4300 	mov.w	r3, #32768	; 0x8000
 800111c:	61fb      	str	r3, [r7, #28]
    GPIO_InitStruct.Mode = GPIO_MODE_AF_PP;
 800111e:	2302      	movs	r3, #2
 8001120:	623b      	str	r3, [r7, #32]
    GPIO_InitStruct.Pull = GPIO_NOPULL;
 8001122:	2300      	movs	r3, #0
 8001124:	627b      	str	r3, [r7, #36]	; 0x24
    GPIO_InitStruct.Speed = GPIO_SPEED_FREQ_LOW;
 8001126:	2300      	movs	r3, #0
 8001128:	62bb      	str	r3, [r7, #40]	; 0x28
    GPIO_InitStruct.Alternate = GPIO_AF2_TIM8;
 800112a:	2302      	movs	r3, #2
 800112c:	62fb      	str	r3, [r7, #44]	; 0x2c
    HAL_GPIO_Init(GPIOA, &GPIO_InitStruct);
 800112e:	f107 031c 	add.w	r3, r7, #28
 8001132:	4619      	mov	r1, r3
 8001134:	f04f 4090 	mov.w	r0, #1207959552	; 0x48000000
 8001138:	f000 fa76 	bl	8001628 <HAL_GPIO_Init>
}
 800113c:	e044      	b.n	80011c8 <HAL_TIM_MspPostInit+0x154>
  else if(htim->Instance==TIM15)
 800113e:	687b      	ldr	r3, [r7, #4]
 8001140:	681b      	ldr	r3, [r3, #0]
 8001142:	4a25      	ldr	r2, [pc, #148]	; (80011d8 <HAL_TIM_MspPostInit+0x164>)
 8001144:	4293      	cmp	r3, r2
 8001146:	d11d      	bne.n	8001184 <HAL_TIM_MspPostInit+0x110>
    __HAL_RCC_GPIOA_CLK_ENABLE();
 8001148:	4b21      	ldr	r3, [pc, #132]	; (80011d0 <HAL_TIM_MspPostInit+0x15c>)
 800114a:	6cdb      	ldr	r3, [r3, #76]	; 0x4c
 800114c:	4a20      	ldr	r2, [pc, #128]	; (80011d0 <HAL_TIM_MspPostInit+0x15c>)
 800114e:	f043 0301 	orr.w	r3, r3, #1
 8001152:	64d3      	str	r3, [r2, #76]	; 0x4c
 8001154:	4b1e      	ldr	r3, [pc, #120]	; (80011d0 <HAL_TIM_MspPostInit+0x15c>)
 8001156:	6cdb      	ldr	r3, [r3, #76]	; 0x4c
 8001158:	f003 0301 	and.w	r3, r3, #1
 800115c:	613b      	str	r3, [r7, #16]
 800115e:	693b      	ldr	r3, [r7, #16]
    GPIO_InitStruct.Pin = GPIO_PIN_3;
 8001160:	2308      	movs	r3, #8
 8001162:	61fb      	str	r3, [r7, #28]
    GPIO_InitStruct.Mode = GPIO_MODE_AF_PP;
 8001164:	2302      	movs	r3, #2
 8001166:	623b      	str	r3, [r7, #32]
    GPIO_InitStruct.Pull = GPIO_NOPULL;
 8001168:	2300      	movs	r3, #0
 800116a:	627b      	str	r3, [r7, #36]	; 0x24
    GPIO_InitStruct.Speed = GPIO_SPEED_FREQ_LOW;
 800116c:	2300      	movs	r3, #0
 800116e:	62bb      	str	r3, [r7, #40]	; 0x28
    GPIO_InitStruct.Alternate = GPIO_AF9_TIM15;
 8001170:	2309      	movs	r3, #9
 8001172:	62fb      	str	r3, [r7, #44]	; 0x2c
    HAL_GPIO_Init(GPIOA, &GPIO_InitStruct);
 8001174:	f107 031c 	add.w	r3, r7, #28
 8001178:	4619      	mov	r1, r3
 800117a:	f04f 4090 	mov.w	r0, #1207959552	; 0x48000000
 800117e:	f000 fa53 	bl	8001628 <HAL_GPIO_Init>
}
 8001182:	e021      	b.n	80011c8 <HAL_TIM_MspPostInit+0x154>
  else if(htim->Instance==TIM16)
 8001184:	687b      	ldr	r3, [r7, #4]
 8001186:	681b      	ldr	r3, [r3, #0]
 8001188:	4a14      	ldr	r2, [pc, #80]	; (80011dc <HAL_TIM_MspPostInit+0x168>)
 800118a:	4293      	cmp	r3, r2
 800118c:	d11c      	bne.n	80011c8 <HAL_TIM_MspPostInit+0x154>
    __HAL_RCC_GPIOA_CLK_ENABLE();
 800118e:	4b10      	ldr	r3, [pc, #64]	; (80011d0 <HAL_TIM_MspPostInit+0x15c>)
 8001190:	6cdb      	ldr	r3, [r3, #76]	; 0x4c
 8001192:	4a0f      	ldr	r2, [pc, #60]	; (80011d0 <HAL_TIM_MspPostInit+0x15c>)
 8001194:	f043 0301 	orr.w	r3, r3, #1
 8001198:	64d3      	str	r3, [r2, #76]	; 0x4c
 800119a:	4b0d      	ldr	r3, [pc, #52]	; (80011d0 <HAL_TIM_MspPostInit+0x15c>)
 800119c:	6cdb      	ldr	r3, [r3, #76]	; 0x4c
 800119e:	f003 0301 	and.w	r3, r3, #1
 80011a2:	60fb      	str	r3, [r7, #12]
 80011a4:	68fb      	ldr	r3, [r7, #12]
    GPIO_InitStruct.Pin = GPIO_PIN_6;
 80011a6:	2340      	movs	r3, #64	; 0x40
 80011a8:	61fb      	str	r3, [r7, #28]
    GPIO_InitStruct.Mode = GPIO_MODE_AF_PP;
 80011aa:	2302      	movs	r3, #2
 80011ac:	623b      	str	r3, [r7, #32]
    GPIO_InitStruct.Pull = GPIO_NOPULL;
 80011ae:	2300      	movs	r3, #0
 80011b0:	627b      	str	r3, [r7, #36]	; 0x24
    GPIO_InitStruct.Speed = GPIO_SPEED_FREQ_LOW;
 80011b2:	2300      	movs	r3, #0
 80011b4:	62bb      	str	r3, [r7, #40]	; 0x28
    GPIO_InitStruct.Alternate = GPIO_AF1_TIM16;
 80011b6:	2301      	movs	r3, #1
 80011b8:	62fb      	str	r3, [r7, #44]	; 0x2c
    HAL_GPIO_Init(GPIOA, &GPIO_InitStruct);
 80011ba:	f107 031c 	add.w	r3, r7, #28
 80011be:	4619      	mov	r1, r3
 80011c0:	f04f 4090 	mov.w	r0, #1207959552	; 0x48000000
 80011c4:	f000 fa30 	bl	8001628 <HAL_GPIO_Init>
}
 80011c8:	bf00      	nop
 80011ca:	3730      	adds	r7, #48	; 0x30
 80011cc:	46bd      	mov	sp, r7
 80011ce:	bd80      	pop	{r7, pc}
 80011d0:	40021000 	.word	0x40021000
 80011d4:	40013400 	.word	0x40013400
 80011d8:	40014000 	.word	0x40014000
 80011dc:	40014400 	.word	0x40014400

080011e0 <NMI_Handler>:
/******************************************************************************/
/**
  * @brief This function handles Non maskable interrupt.
  */
void NMI_Handler(void)
{
 80011e0:	b480      	push	{r7}
 80011e2:	af00      	add	r7, sp, #0

  /* USER CODE END NonMaskableInt_IRQn 0 */
  /* USER CODE BEGIN NonMaskableInt_IRQn 1 */

  /* USER CODE END NonMaskableInt_IRQn 1 */
}
 80011e4:	bf00      	nop
 80011e6:	46bd      	mov	sp, r7
 80011e8:	f85d 7b04 	ldr.w	r7, [sp], #4
 80011ec:	4770      	bx	lr

080011ee <HardFault_Handler>:

/**
  * @brief This function handles Hard fault interrupt.
  */
void HardFault_Handler(void)
{
 80011ee:	b480      	push	{r7}
 80011f0:	af00      	add	r7, sp, #0
  /* USER CODE BEGIN HardFault_IRQn 0 */

  /* USER CODE END HardFault_IRQn 0 */
  while (1)
 80011f2:	e7fe      	b.n	80011f2 <HardFault_Handler+0x4>

080011f4 <MemManage_Handler>:

/**
  * @brief This function handles Memory management fault.
  */
void MemManage_Handler(void)
{
 80011f4:	b480      	push	{r7}
 80011f6:	af00      	add	r7, sp, #0
  /* USER CODE BEGIN MemoryManagement_IRQn 0 */

  /* USER CODE END MemoryManagement_IRQn 0 */
  while (1)
 80011f8:	e7fe      	b.n	80011f8 <MemManage_Handler+0x4>

080011fa <BusFault_Handler>:

/**
  * @brief This function handles Prefetch fault, memory access fault.
  */
void BusFault_Handler(void)
{
 80011fa:	b480      	push	{r7}
 80011fc:	af00      	add	r7, sp, #0
  /* USER CODE BEGIN BusFault_IRQn 0 */

  /* USER CODE END BusFault_IRQn 0 */
  while (1)
 80011fe:	e7fe      	b.n	80011fe <BusFault_Handler+0x4>

08001200 <UsageFault_Handler>:

/**
  * @brief This function handles Undefined instruction or illegal state.
  */
void UsageFault_Handler(void)
{
 8001200:	b480      	push	{r7}
 8001202:	af00      	add	r7, sp, #0
  /* USER CODE BEGIN UsageFault_IRQn 0 */

  /* USER CODE END UsageFault_IRQn 0 */
  while (1)
 8001204:	e7fe      	b.n	8001204 <UsageFault_Handler+0x4>

08001206 <SVC_Handler>:

/**
  * @brief This function handles System service call via SWI instruction.
  */
void SVC_Handler(void)
{
 8001206:	b480      	push	{r7}
 8001208:	af00      	add	r7, sp, #0

  /* USER CODE END SVCall_IRQn 0 */
  /* USER CODE BEGIN SVCall_IRQn 1 */

  /* USER CODE END SVCall_IRQn 1 */
}
 800120a:	bf00      	nop
 800120c:	46bd      	mov	sp, r7
 800120e:	f85d 7b04 	ldr.w	r7, [sp], #4
 8001212:	4770      	bx	lr

08001214 <DebugMon_Handler>:

/**
  * @brief This function handles Debug monitor.
  */
void DebugMon_Handler(void)
{
 8001214:	b480      	push	{r7}
 8001216:	af00      	add	r7, sp, #0

  /* USER CODE END DebugMonitor_IRQn 0 */
  /* USER CODE BEGIN DebugMonitor_IRQn 1 */

  /* USER CODE END DebugMonitor_IRQn 1 */
}
 8001218:	bf00      	nop
 800121a:	46bd      	mov	sp, r7
 800121c:	f85d 7b04 	ldr.w	r7, [sp], #4
 8001220:	4770      	bx	lr

08001222 <PendSV_Handler>:

/**
  * @brief This function handles Pendable request for system service.
  */
void PendSV_Handler(void)
{
 8001222:	b480      	push	{r7}
 8001224:	af00      	add	r7, sp, #0

  /* USER CODE END PendSV_IRQn 0 */
  /* USER CODE BEGIN PendSV_IRQn 1 */

  /* USER CODE END PendSV_IRQn 1 */
}
 8001226:	bf00      	nop
 8001228:	46bd      	mov	sp, r7
 800122a:	f85d 7b04 	ldr.w	r7, [sp], #4
 800122e:	4770      	bx	lr

08001230 <SysTick_Handler>:

/**
  * @brief This function handles System tick timer.
  */
void SysTick_Handler(void)
{
 8001230:	b580      	push	{r7, lr}
 8001232:	af00      	add	r7, sp, #0
  /* USER CODE BEGIN SysTick_IRQn 0 */

  /* USER CODE END SysTick_IRQn 0 */
  HAL_IncTick();
 8001234:	f000 f8a8 	bl	8001388 <HAL_IncTick>
  /* USER CODE BEGIN SysTick_IRQn 1 */

  /* USER CODE END SysTick_IRQn 1 */
}
 8001238:	bf00      	nop
 800123a:	bd80      	pop	{r7, pc}

0800123c <USB_LP_IRQHandler>:

/**
  * @brief This function handles USB low priority interrupt remap.
  */
void USB_LP_IRQHandler(void)
{
 800123c:	b580      	push	{r7, lr}
 800123e:	af00      	add	r7, sp, #0
  /* USER CODE BEGIN USB_LP_IRQn 0 */

  /* USER CODE END USB_LP_IRQn 0 */
  HAL_PCD_IRQHandler(&hpcd_USB_FS);
 8001240:	4802      	ldr	r0, [pc, #8]	; (800124c <USB_LP_IRQHandler+0x10>)
 8001242:	f000 fcaa 	bl	8001b9a <HAL_PCD_IRQHandler>
  /* USER CODE BEGIN USB_LP_IRQn 1 */

  /* USER CODE END USB_LP_IRQn 1 */
}
 8001246:	bf00      	nop
 8001248:	bd80      	pop	{r7, pc}
 800124a:	bf00      	nop
 800124c:	20001318 	.word	0x20001318

08001250 <TIM6_DAC_IRQHandler>:

/**
  * @brief This function handles TIM6 global interrupt, DAC1 and DAC3 channel underrun error interrupts.
  */
void TIM6_DAC_IRQHandler(void)
{
 8001250:	b580      	push	{r7, lr}
 8001252:	af00      	add	r7, sp, #0
  /* USER CODE BEGIN TIM6_DAC_IRQn 0 */

  /* USER CODE END TIM6_DAC_IRQn 0 */
  HAL_TIM_IRQHandler(&htim6);
 8001254:	4802      	ldr	r0, [pc, #8]	; (8001260 <TIM6_DAC_IRQHandler+0x10>)
 8001256:	f003 f9ee 	bl	8004636 <HAL_TIM_IRQHandler>
  /* USER CODE BEGIN TIM6_DAC_IRQn 1 */

  /* USER CODE END TIM6_DAC_IRQn 1 */
}
 800125a:	bf00      	nop
 800125c:	bd80      	pop	{r7, pc}
 800125e:	bf00      	nop
 8001260:	2000053c 	.word	0x2000053c

08001264 <SystemInit>:
  * @param  None
  * @retval None
  */

void SystemInit(void)
{
 8001264:	b480      	push	{r7}
 8001266:	af00      	add	r7, sp, #0
  /* FPU settings ------------------------------------------------------------*/
  #if (__FPU_PRESENT == 1) && (__FPU_USED == 1)
    SCB->CPACR |= ((3UL << (10*2))|(3UL << (11*2)));  /* set CP10 and CP11 Full Access */
 8001268:	4b08      	ldr	r3, [pc, #32]	; (800128c <SystemInit+0x28>)
 800126a:	f8d3 3088 	ldr.w	r3, [r3, #136]	; 0x88
 800126e:	4a07      	ldr	r2, [pc, #28]	; (800128c <SystemInit+0x28>)
 8001270:	f443 0370 	orr.w	r3, r3, #15728640	; 0xf00000
 8001274:	f8c2 3088 	str.w	r3, [r2, #136]	; 0x88

  /* Configure the Vector Table location add offset address ------------------*/
#ifdef VECT_TAB_SRAM
  SCB->VTOR = SRAM_BASE | VECT_TAB_OFFSET; /* Vector Table Relocation in Internal SRAM */
#else
  SCB->VTOR = FLASH_BASE | VECT_TAB_OFFSET; /* Vector Table Relocation in Internal FLASH */
 8001278:	4b04      	ldr	r3, [pc, #16]	; (800128c <SystemInit+0x28>)
 800127a:	f04f 6200 	mov.w	r2, #134217728	; 0x8000000
 800127e:	609a      	str	r2, [r3, #8]
#endif
}
 8001280:	bf00      	nop
 8001282:	46bd      	mov	sp, r7
 8001284:	f85d 7b04 	ldr.w	r7, [sp], #4
 8001288:	4770      	bx	lr
 800128a:	bf00      	nop
 800128c:	e000ed00 	.word	0xe000ed00

08001290 <Reset_Handler>:
 8001290:	480d      	ldr	r0, [pc, #52]	; (80012c8 <LoopForever+0x2>)
 8001292:	4685      	mov	sp, r0
 8001294:	480d      	ldr	r0, [pc, #52]	; (80012cc <LoopForever+0x6>)
 8001296:	490e      	ldr	r1, [pc, #56]	; (80012d0 <LoopForever+0xa>)
 8001298:	4a0e      	ldr	r2, [pc, #56]	; (80012d4 <LoopForever+0xe>)
 800129a:	2300      	movs	r3, #0
 800129c:	e002      	b.n	80012a4 <LoopCopyDataInit>

0800129e <CopyDataInit>:
 800129e:	58d4      	ldr	r4, [r2, r3]
 80012a0:	50c4      	str	r4, [r0, r3]
 80012a2:	3304      	adds	r3, #4

080012a4 <LoopCopyDataInit>:
 80012a4:	18c4      	adds	r4, r0, r3
 80012a6:	428c      	cmp	r4, r1
 80012a8:	d3f9      	bcc.n	800129e <CopyDataInit>
 80012aa:	4a0b      	ldr	r2, [pc, #44]	; (80012d8 <LoopForever+0x12>)
 80012ac:	4c0b      	ldr	r4, [pc, #44]	; (80012dc <LoopForever+0x16>)
 80012ae:	2300      	movs	r3, #0
 80012b0:	e001      	b.n	80012b6 <LoopFillZerobss>

080012b2 <FillZerobss>:
 80012b2:	6013      	str	r3, [r2, #0]
 80012b4:	3204      	adds	r2, #4

080012b6 <LoopFillZerobss>:
 80012b6:	42a2      	cmp	r2, r4
 80012b8:	d3fb      	bcc.n	80012b2 <FillZerobss>
 80012ba:	f7ff ffd3 	bl	8001264 <SystemInit>
 80012be:	f008 fb27 	bl	8009910 <__libc_init_array>
 80012c2:	f7ff f8e3 	bl	800048c <main>

080012c6 <LoopForever>:
 80012c6:	e7fe      	b.n	80012c6 <LoopForever>
 80012c8:	20008000 	.word	0x20008000
 80012cc:	20000000 	.word	0x20000000
 80012d0:	200001b4 	.word	0x200001b4
 80012d4:	080099f8 	.word	0x080099f8
 80012d8:	200001b4 	.word	0x200001b4
 80012dc:	2000160c 	.word	0x2000160c

080012e0 <ADC1_2_IRQHandler>:
 80012e0:	e7fe      	b.n	80012e0 <ADC1_2_IRQHandler>

080012e2 <HAL_Init>:
  *         each 1ms in the SysTick_Handler() interrupt handler.
  *
  * @retval HAL status
  */
HAL_StatusTypeDef HAL_Init(void)
{
 80012e2:	b580      	push	{r7, lr}
 80012e4:	b082      	sub	sp, #8
 80012e6:	af00      	add	r7, sp, #0
  HAL_StatusTypeDef  status = HAL_OK;
 80012e8:	2300      	movs	r3, #0
 80012ea:	71fb      	strb	r3, [r7, #7]
#if (PREFETCH_ENABLE != 0U)
  __HAL_FLASH_PREFETCH_BUFFER_ENABLE();
#endif /* PREFETCH_ENABLE */

  /* Set Interrupt Group Priority */
  HAL_NVIC_SetPriorityGrouping(NVIC_PRIORITYGROUP_4);
 80012ec:	2003      	movs	r0, #3
 80012ee:	f000 f95b 	bl	80015a8 <HAL_NVIC_SetPriorityGrouping>

  /* Use SysTick as time base source and configure 1ms tick (default clock after Reset is HSI) */
  if (HAL_InitTick(TICK_INT_PRIORITY) != HAL_OK)
 80012f2:	2000      	movs	r0, #0
 80012f4:	f000 f80e 	bl	8001314 <HAL_InitTick>
 80012f8:	4603      	mov	r3, r0
 80012fa:	2b00      	cmp	r3, #0
 80012fc:	d002      	beq.n	8001304 <HAL_Init+0x22>
  {
    status = HAL_ERROR;
 80012fe:	2301      	movs	r3, #1
 8001300:	71fb      	strb	r3, [r7, #7]
 8001302:	e001      	b.n	8001308 <HAL_Init+0x26>
  }
  else
  {
    /* Init the low level hardware */
    HAL_MspInit();
 8001304:	f7ff fd6c 	bl	8000de0 <HAL_MspInit>
  }

  /* Return function status */
  return status;
 8001308:	79fb      	ldrb	r3, [r7, #7]

}
 800130a:	4618      	mov	r0, r3
 800130c:	3708      	adds	r7, #8
 800130e:	46bd      	mov	sp, r7
 8001310:	bd80      	pop	{r7, pc}
	...

08001314 <HAL_InitTick>:
  *       implementation  in user file.
  * @param TickPriority: Tick interrupt priority.
  * @retval HAL status
  */
__weak HAL_StatusTypeDef HAL_InitTick(uint32_t TickPriority)
{
 8001314:	b580      	push	{r7, lr}
 8001316:	b084      	sub	sp, #16
 8001318:	af00      	add	r7, sp, #0
 800131a:	6078      	str	r0, [r7, #4]
  HAL_StatusTypeDef  status = HAL_OK;
 800131c:	2300      	movs	r3, #0
 800131e:	73fb      	strb	r3, [r7, #15]

  if (uwTickFreq != 0U)
 8001320:	4b16      	ldr	r3, [pc, #88]	; (800137c <HAL_InitTick+0x68>)
 8001322:	681b      	ldr	r3, [r3, #0]
 8001324:	2b00      	cmp	r3, #0
 8001326:	d022      	beq.n	800136e <HAL_InitTick+0x5a>
  {
    /* Configure the SysTick to have interrupt in 1ms time basis*/
    if (HAL_SYSTICK_Config(SystemCoreClock / (1000U / uwTickFreq)) == 0U)
 8001328:	4b15      	ldr	r3, [pc, #84]	; (8001380 <HAL_InitTick+0x6c>)
 800132a:	681a      	ldr	r2, [r3, #0]
 800132c:	4b13      	ldr	r3, [pc, #76]	; (800137c <HAL_InitTick+0x68>)
 800132e:	681b      	ldr	r3, [r3, #0]
 8001330:	f44f 717a 	mov.w	r1, #1000	; 0x3e8
 8001334:	fbb1 f3f3 	udiv	r3, r1, r3
 8001338:	fbb2 f3f3 	udiv	r3, r2, r3
 800133c:	4618      	mov	r0, r3
 800133e:	f000 f966 	bl	800160e <HAL_SYSTICK_Config>
 8001342:	4603      	mov	r3, r0
 8001344:	2b00      	cmp	r3, #0
 8001346:	d10f      	bne.n	8001368 <HAL_InitTick+0x54>
    {
      /* Configure the SysTick IRQ priority */
      if (TickPriority < (1UL << __NVIC_PRIO_BITS))
 8001348:	687b      	ldr	r3, [r7, #4]
 800134a:	2b0f      	cmp	r3, #15
 800134c:	d809      	bhi.n	8001362 <HAL_InitTick+0x4e>
      {
        HAL_NVIC_SetPriority(SysTick_IRQn, TickPriority, 0U);
 800134e:	2200      	movs	r2, #0
 8001350:	6879      	ldr	r1, [r7, #4]
 8001352:	f04f 30ff 	mov.w	r0, #4294967295
 8001356:	f000 f932 	bl	80015be <HAL_NVIC_SetPriority>
        uwTickPrio = TickPriority;
 800135a:	4a0a      	ldr	r2, [pc, #40]	; (8001384 <HAL_InitTick+0x70>)
 800135c:	687b      	ldr	r3, [r7, #4]
 800135e:	6013      	str	r3, [r2, #0]
 8001360:	e007      	b.n	8001372 <HAL_InitTick+0x5e>
      }
      else
      {
        status = HAL_ERROR;
 8001362:	2301      	movs	r3, #1
 8001364:	73fb      	strb	r3, [r7, #15]
 8001366:	e004      	b.n	8001372 <HAL_InitTick+0x5e>
      }
    }
    else
    {
      status = HAL_ERROR;
 8001368:	2301      	movs	r3, #1
 800136a:	73fb      	strb	r3, [r7, #15]
 800136c:	e001      	b.n	8001372 <HAL_InitTick+0x5e>
    }
  }
  else
  {
    status = HAL_ERROR;
 800136e:	2301      	movs	r3, #1
 8001370:	73fb      	strb	r3, [r7, #15]
  }

  /* Return function status */
  return status;
 8001372:	7bfb      	ldrb	r3, [r7, #15]
}
 8001374:	4618      	mov	r0, r3
 8001376:	3710      	adds	r7, #16
 8001378:	46bd      	mov	sp, r7
 800137a:	bd80      	pop	{r7, pc}
 800137c:	20000038 	.word	0x20000038
 8001380:	20000030 	.word	0x20000030
 8001384:	20000034 	.word	0x20000034

08001388 <HAL_IncTick>:
  * @note This function is declared as __weak to be overwritten in case of other
  *      implementations in user file.
  * @retval None
  */
__weak void HAL_IncTick(void)
{
 8001388:	b480      	push	{r7}
 800138a:	af00      	add	r7, sp, #0
  uwTick += uwTickFreq;
 800138c:	4b05      	ldr	r3, [pc, #20]	; (80013a4 <HAL_IncTick+0x1c>)
 800138e:	681a      	ldr	r2, [r3, #0]
 8001390:	4b05      	ldr	r3, [pc, #20]	; (80013a8 <HAL_IncTick+0x20>)
 8001392:	681b      	ldr	r3, [r3, #0]
 8001394:	4413      	add	r3, r2
 8001396:	4a03      	ldr	r2, [pc, #12]	; (80013a4 <HAL_IncTick+0x1c>)
 8001398:	6013      	str	r3, [r2, #0]
}
 800139a:	bf00      	nop
 800139c:	46bd      	mov	sp, r7
 800139e:	f85d 7b04 	ldr.w	r7, [sp], #4
 80013a2:	4770      	bx	lr
 80013a4:	20000674 	.word	0x20000674
 80013a8:	20000038 	.word	0x20000038

080013ac <HAL_GetTick>:
  * @note This function is declared as __weak to be overwritten in case of other
  *       implementations in user file.
  * @retval tick value
  */
__weak uint32_t HAL_GetTick(void)
{
 80013ac:	b480      	push	{r7}
 80013ae:	af00      	add	r7, sp, #0
  return uwTick;
 80013b0:	4b03      	ldr	r3, [pc, #12]	; (80013c0 <HAL_GetTick+0x14>)
 80013b2:	681b      	ldr	r3, [r3, #0]
}
 80013b4:	4618      	mov	r0, r3
 80013b6:	46bd      	mov	sp, r7
 80013b8:	f85d 7b04 	ldr.w	r7, [sp], #4
 80013bc:	4770      	bx	lr
 80013be:	bf00      	nop
 80013c0:	20000674 	.word	0x20000674

080013c4 <HAL_Delay>:
  *       implementations in user file.
  * @param Delay specifies the delay time length, in milliseconds.
  * @retval None
  */
__weak void HAL_Delay(uint32_t Delay)
{
 80013c4:	b580      	push	{r7, lr}
 80013c6:	b084      	sub	sp, #16
 80013c8:	af00      	add	r7, sp, #0
 80013ca:	6078      	str	r0, [r7, #4]
  uint32_t tickstart = HAL_GetTick();
 80013cc:	f7ff ffee 	bl	80013ac <HAL_GetTick>
 80013d0:	60b8      	str	r0, [r7, #8]
  uint32_t wait = Delay;
 80013d2:	687b      	ldr	r3, [r7, #4]
 80013d4:	60fb      	str	r3, [r7, #12]

  /* Add a freq to guarantee minimum wait */
  if (wait < HAL_MAX_DELAY)
 80013d6:	68fb      	ldr	r3, [r7, #12]
 80013d8:	f1b3 3fff 	cmp.w	r3, #4294967295
 80013dc:	d004      	beq.n	80013e8 <HAL_Delay+0x24>
  {
    wait += (uint32_t)(uwTickFreq);
 80013de:	4b09      	ldr	r3, [pc, #36]	; (8001404 <HAL_Delay+0x40>)
 80013e0:	681b      	ldr	r3, [r3, #0]
 80013e2:	68fa      	ldr	r2, [r7, #12]
 80013e4:	4413      	add	r3, r2
 80013e6:	60fb      	str	r3, [r7, #12]
  }

  while ((HAL_GetTick() - tickstart) < wait)
 80013e8:	bf00      	nop
 80013ea:	f7ff ffdf 	bl	80013ac <HAL_GetTick>
 80013ee:	4602      	mov	r2, r0
 80013f0:	68bb      	ldr	r3, [r7, #8]
 80013f2:	1ad3      	subs	r3, r2, r3
 80013f4:	68fa      	ldr	r2, [r7, #12]
 80013f6:	429a      	cmp	r2, r3
 80013f8:	d8f7      	bhi.n	80013ea <HAL_Delay+0x26>
  {
  }
}
 80013fa:	bf00      	nop
 80013fc:	3710      	adds	r7, #16
 80013fe:	46bd      	mov	sp, r7
 8001400:	bd80      	pop	{r7, pc}
 8001402:	bf00      	nop
 8001404:	20000038 	.word	0x20000038

08001408 <__NVIC_SetPriorityGrouping>:
           In case of a conflict between priority grouping and available
           priority bits (__NVIC_PRIO_BITS), the smallest possible priority group is set.
  \param [in]      PriorityGroup  Priority grouping field.
 */
__STATIC_INLINE void __NVIC_SetPriorityGrouping(uint32_t PriorityGroup)
{
 8001408:	b480      	push	{r7}
 800140a:	b085      	sub	sp, #20
 800140c:	af00      	add	r7, sp, #0
 800140e:	6078      	str	r0, [r7, #4]
  uint32_t reg_value;
  uint32_t PriorityGroupTmp = (PriorityGroup & (uint32_t)0x07UL);             /* only values 0..7 are used          */
 8001410:	687b      	ldr	r3, [r7, #4]
 8001412:	f003 0307 	and.w	r3, r3, #7
 8001416:	60fb      	str	r3, [r7, #12]

  reg_value  =  SCB->AIRCR;                                                   /* read old register configuration    */
 8001418:	4b0c      	ldr	r3, [pc, #48]	; (800144c <__NVIC_SetPriorityGrouping+0x44>)
 800141a:	68db      	ldr	r3, [r3, #12]
 800141c:	60bb      	str	r3, [r7, #8]
  reg_value &= ~((uint32_t)(SCB_AIRCR_VECTKEY_Msk | SCB_AIRCR_PRIGROUP_Msk)); /* clear bits to change               */
 800141e:	68ba      	ldr	r2, [r7, #8]
 8001420:	f64f 03ff 	movw	r3, #63743	; 0xf8ff
 8001424:	4013      	ands	r3, r2
 8001426:	60bb      	str	r3, [r7, #8]
  reg_value  =  (reg_value                                   |
                ((uint32_t)0x5FAUL << SCB_AIRCR_VECTKEY_Pos) |
                (PriorityGroupTmp << SCB_AIRCR_PRIGROUP_Pos)  );              /* Insert write key and priority group */
 8001428:	68fb      	ldr	r3, [r7, #12]
 800142a:	021a      	lsls	r2, r3, #8
                ((uint32_t)0x5FAUL << SCB_AIRCR_VECTKEY_Pos) |
 800142c:	68bb      	ldr	r3, [r7, #8]
 800142e:	4313      	orrs	r3, r2
  reg_value  =  (reg_value                                   |
 8001430:	f043 63bf 	orr.w	r3, r3, #100139008	; 0x5f80000
 8001434:	f443 3300 	orr.w	r3, r3, #131072	; 0x20000
 8001438:	60bb      	str	r3, [r7, #8]
  SCB->AIRCR =  reg_value;
 800143a:	4a04      	ldr	r2, [pc, #16]	; (800144c <__NVIC_SetPriorityGrouping+0x44>)
 800143c:	68bb      	ldr	r3, [r7, #8]
 800143e:	60d3      	str	r3, [r2, #12]
}
 8001440:	bf00      	nop
 8001442:	3714      	adds	r7, #20
 8001444:	46bd      	mov	sp, r7
 8001446:	f85d 7b04 	ldr.w	r7, [sp], #4
 800144a:	4770      	bx	lr
 800144c:	e000ed00 	.word	0xe000ed00

08001450 <__NVIC_GetPriorityGrouping>:
  \brief   Get Priority Grouping
  \details Reads the priority grouping field from the NVIC Interrupt Controller.
  \return                Priority grouping field (SCB->AIRCR [10:8] PRIGROUP field).
 */
__STATIC_INLINE uint32_t __NVIC_GetPriorityGrouping(void)
{
 8001450:	b480      	push	{r7}
 8001452:	af00      	add	r7, sp, #0
  return ((uint32_t)((SCB->AIRCR & SCB_AIRCR_PRIGROUP_Msk) >> SCB_AIRCR_PRIGROUP_Pos));
 8001454:	4b04      	ldr	r3, [pc, #16]	; (8001468 <__NVIC_GetPriorityGrouping+0x18>)
 8001456:	68db      	ldr	r3, [r3, #12]
 8001458:	0a1b      	lsrs	r3, r3, #8
 800145a:	f003 0307 	and.w	r3, r3, #7
}
 800145e:	4618      	mov	r0, r3
 8001460:	46bd      	mov	sp, r7
 8001462:	f85d 7b04 	ldr.w	r7, [sp], #4
 8001466:	4770      	bx	lr
 8001468:	e000ed00 	.word	0xe000ed00

0800146c <__NVIC_EnableIRQ>:
  \details Enables a device specific interrupt in the NVIC interrupt controller.
  \param [in]      IRQn  Device specific interrupt number.
  \note    IRQn must not be negative.
 */
__STATIC_INLINE void __NVIC_EnableIRQ(IRQn_Type IRQn)
{
 800146c:	b480      	push	{r7}
 800146e:	b083      	sub	sp, #12
 8001470:	af00      	add	r7, sp, #0
 8001472:	4603      	mov	r3, r0
 8001474:	71fb      	strb	r3, [r7, #7]
  if ((int32_t)(IRQn) >= 0)
 8001476:	f997 3007 	ldrsb.w	r3, [r7, #7]
 800147a:	2b00      	cmp	r3, #0
 800147c:	db0b      	blt.n	8001496 <__NVIC_EnableIRQ+0x2a>
  {
    __COMPILER_BARRIER();
    NVIC->ISER[(((uint32_t)IRQn) >> 5UL)] = (uint32_t)(1UL << (((uint32_t)IRQn) & 0x1FUL));
 800147e:	79fb      	ldrb	r3, [r7, #7]
 8001480:	f003 021f 	and.w	r2, r3, #31
 8001484:	4907      	ldr	r1, [pc, #28]	; (80014a4 <__NVIC_EnableIRQ+0x38>)
 8001486:	f997 3007 	ldrsb.w	r3, [r7, #7]
 800148a:	095b      	lsrs	r3, r3, #5
 800148c:	2001      	movs	r0, #1
 800148e:	fa00 f202 	lsl.w	r2, r0, r2
 8001492:	f841 2023 	str.w	r2, [r1, r3, lsl #2]
    __COMPILER_BARRIER();
  }
}
 8001496:	bf00      	nop
 8001498:	370c      	adds	r7, #12
 800149a:	46bd      	mov	sp, r7
 800149c:	f85d 7b04 	ldr.w	r7, [sp], #4
 80014a0:	4770      	bx	lr
 80014a2:	bf00      	nop
 80014a4:	e000e100 	.word	0xe000e100

080014a8 <__NVIC_SetPriority>:
  \param [in]      IRQn  Interrupt number.
  \param [in]  priority  Priority to set.
  \note    The priority cannot be set for every processor exception.
 */
__STATIC_INLINE void __NVIC_SetPriority(IRQn_Type IRQn, uint32_t priority)
{
 80014a8:	b480      	push	{r7}
 80014aa:	b083      	sub	sp, #12
 80014ac:	af00      	add	r7, sp, #0
 80014ae:	4603      	mov	r3, r0
 80014b0:	6039      	str	r1, [r7, #0]
 80014b2:	71fb      	strb	r3, [r7, #7]
  if ((int32_t)(IRQn) >= 0)
 80014b4:	f997 3007 	ldrsb.w	r3, [r7, #7]
 80014b8:	2b00      	cmp	r3, #0
 80014ba:	db0a      	blt.n	80014d2 <__NVIC_SetPriority+0x2a>
  {
    NVIC->IP[((uint32_t)IRQn)]               = (uint8_t)((priority << (8U - __NVIC_PRIO_BITS)) & (uint32_t)0xFFUL);
 80014bc:	683b      	ldr	r3, [r7, #0]
 80014be:	b2da      	uxtb	r2, r3
 80014c0:	490c      	ldr	r1, [pc, #48]	; (80014f4 <__NVIC_SetPriority+0x4c>)
 80014c2:	f997 3007 	ldrsb.w	r3, [r7, #7]
 80014c6:	0112      	lsls	r2, r2, #4
 80014c8:	b2d2      	uxtb	r2, r2
 80014ca:	440b      	add	r3, r1
 80014cc:	f883 2300 	strb.w	r2, [r3, #768]	; 0x300
  }
  else
  {
    SCB->SHP[(((uint32_t)IRQn) & 0xFUL)-4UL] = (uint8_t)((priority << (8U - __NVIC_PRIO_BITS)) & (uint32_t)0xFFUL);
  }
}
 80014d0:	e00a      	b.n	80014e8 <__NVIC_SetPriority+0x40>
    SCB->SHP[(((uint32_t)IRQn) & 0xFUL)-4UL] = (uint8_t)((priority << (8U - __NVIC_PRIO_BITS)) & (uint32_t)0xFFUL);
 80014d2:	683b      	ldr	r3, [r7, #0]
 80014d4:	b2da      	uxtb	r2, r3
 80014d6:	4908      	ldr	r1, [pc, #32]	; (80014f8 <__NVIC_SetPriority+0x50>)
 80014d8:	79fb      	ldrb	r3, [r7, #7]
 80014da:	f003 030f 	and.w	r3, r3, #15
 80014de:	3b04      	subs	r3, #4
 80014e0:	0112      	lsls	r2, r2, #4
 80014e2:	b2d2      	uxtb	r2, r2
 80014e4:	440b      	add	r3, r1
 80014e6:	761a      	strb	r2, [r3, #24]
}
 80014e8:	bf00      	nop
 80014ea:	370c      	adds	r7, #12
 80014ec:	46bd      	mov	sp, r7
 80014ee:	f85d 7b04 	ldr.w	r7, [sp], #4
 80014f2:	4770      	bx	lr
 80014f4:	e000e100 	.word	0xe000e100
 80014f8:	e000ed00 	.word	0xe000ed00

080014fc <NVIC_EncodePriority>:
  \param [in]   PreemptPriority  Preemptive priority value (starting from 0).
  \param [in]       SubPriority  Subpriority value (starting from 0).
  \return                        Encoded priority. Value can be used in the function \ref NVIC_SetPriority().
 */
__STATIC_INLINE uint32_t NVIC_EncodePriority (uint32_t PriorityGroup, uint32_t PreemptPriority, uint32_t SubPriority)
{
 80014fc:	b480      	push	{r7}
 80014fe:	b089      	sub	sp, #36	; 0x24
 8001500:	af00      	add	r7, sp, #0
 8001502:	60f8      	str	r0, [r7, #12]
 8001504:	60b9      	str	r1, [r7, #8]
 8001506:	607a      	str	r2, [r7, #4]
  uint32_t PriorityGroupTmp = (PriorityGroup & (uint32_t)0x07UL);   /* only values 0..7 are used          */
 8001508:	68fb      	ldr	r3, [r7, #12]
 800150a:	f003 0307 	and.w	r3, r3, #7
 800150e:	61fb      	str	r3, [r7, #28]
  uint32_t PreemptPriorityBits;
  uint32_t SubPriorityBits;

  PreemptPriorityBits = ((7UL - PriorityGroupTmp) > (uint32_t)(__NVIC_PRIO_BITS)) ? (uint32_t)(__NVIC_PRIO_BITS) : (uint32_t)(7UL - PriorityGroupTmp);
 8001510:	69fb      	ldr	r3, [r7, #28]
 8001512:	f1c3 0307 	rsb	r3, r3, #7
 8001516:	2b04      	cmp	r3, #4
 8001518:	bf28      	it	cs
 800151a:	2304      	movcs	r3, #4
 800151c:	61bb      	str	r3, [r7, #24]
  SubPriorityBits     = ((PriorityGroupTmp + (uint32_t)(__NVIC_PRIO_BITS)) < (uint32_t)7UL) ? (uint32_t)0UL : (uint32_t)((PriorityGroupTmp - 7UL) + (uint32_t)(__NVIC_PRIO_BITS));
 800151e:	69fb      	ldr	r3, [r7, #28]
 8001520:	3304      	adds	r3, #4
 8001522:	2b06      	cmp	r3, #6
 8001524:	d902      	bls.n	800152c <NVIC_EncodePriority+0x30>
 8001526:	69fb      	ldr	r3, [r7, #28]
 8001528:	3b03      	subs	r3, #3
 800152a:	e000      	b.n	800152e <NVIC_EncodePriority+0x32>
 800152c:	2300      	movs	r3, #0
 800152e:	617b      	str	r3, [r7, #20]

  return (
           ((PreemptPriority & (uint32_t)((1UL << (PreemptPriorityBits)) - 1UL)) << SubPriorityBits) |
 8001530:	f04f 32ff 	mov.w	r2, #4294967295
 8001534:	69bb      	ldr	r3, [r7, #24]
 8001536:	fa02 f303 	lsl.w	r3, r2, r3
 800153a:	43da      	mvns	r2, r3
 800153c:	68bb      	ldr	r3, [r7, #8]
 800153e:	401a      	ands	r2, r3
 8001540:	697b      	ldr	r3, [r7, #20]
 8001542:	409a      	lsls	r2, r3
           ((SubPriority     & (uint32_t)((1UL << (SubPriorityBits    )) - 1UL)))
 8001544:	f04f 31ff 	mov.w	r1, #4294967295
 8001548:	697b      	ldr	r3, [r7, #20]
 800154a:	fa01 f303 	lsl.w	r3, r1, r3
 800154e:	43d9      	mvns	r1, r3
 8001550:	687b      	ldr	r3, [r7, #4]
 8001552:	400b      	ands	r3, r1
           ((PreemptPriority & (uint32_t)((1UL << (PreemptPriorityBits)) - 1UL)) << SubPriorityBits) |
 8001554:	4313      	orrs	r3, r2
         );
}
 8001556:	4618      	mov	r0, r3
 8001558:	3724      	adds	r7, #36	; 0x24
 800155a:	46bd      	mov	sp, r7
 800155c:	f85d 7b04 	ldr.w	r7, [sp], #4
 8001560:	4770      	bx	lr
	...

08001564 <SysTick_Config>:
  \note    When the variable <b>__Vendor_SysTickConfig</b> is set to 1, then the
           function <b>SysTick_Config</b> is not included. In this case, the file <b><i>device</i>.h</b>
           must contain a vendor-specific implementation of this function.
 */
__STATIC_INLINE uint32_t SysTick_Config(uint32_t ticks)
{
 8001564:	b580      	push	{r7, lr}
 8001566:	b082      	sub	sp, #8
 8001568:	af00      	add	r7, sp, #0
 800156a:	6078      	str	r0, [r7, #4]
  if ((ticks - 1UL) > SysTick_LOAD_RELOAD_Msk)
 800156c:	687b      	ldr	r3, [r7, #4]
 800156e:	3b01      	subs	r3, #1
 8001570:	f1b3 7f80 	cmp.w	r3, #16777216	; 0x1000000
 8001574:	d301      	bcc.n	800157a <SysTick_Config+0x16>
  {
    return (1UL);                                                   /* Reload value impossible */
 8001576:	2301      	movs	r3, #1
 8001578:	e00f      	b.n	800159a <SysTick_Config+0x36>
  }

  SysTick->LOAD  = (uint32_t)(ticks - 1UL);                         /* set reload register */
 800157a:	4a0a      	ldr	r2, [pc, #40]	; (80015a4 <SysTick_Config+0x40>)
 800157c:	687b      	ldr	r3, [r7, #4]
 800157e:	3b01      	subs	r3, #1
 8001580:	6053      	str	r3, [r2, #4]
  NVIC_SetPriority (SysTick_IRQn, (1UL << __NVIC_PRIO_BITS) - 1UL); /* set Priority for Systick Interrupt */
 8001582:	210f      	movs	r1, #15
 8001584:	f04f 30ff 	mov.w	r0, #4294967295
 8001588:	f7ff ff8e 	bl	80014a8 <__NVIC_SetPriority>
  SysTick->VAL   = 0UL;                                             /* Load the SysTick Counter Value */
 800158c:	4b05      	ldr	r3, [pc, #20]	; (80015a4 <SysTick_Config+0x40>)
 800158e:	2200      	movs	r2, #0
 8001590:	609a      	str	r2, [r3, #8]
  SysTick->CTRL  = SysTick_CTRL_CLKSOURCE_Msk |
 8001592:	4b04      	ldr	r3, [pc, #16]	; (80015a4 <SysTick_Config+0x40>)
 8001594:	2207      	movs	r2, #7
 8001596:	601a      	str	r2, [r3, #0]
                   SysTick_CTRL_TICKINT_Msk   |
                   SysTick_CTRL_ENABLE_Msk;                         /* Enable SysTick IRQ and SysTick Timer */
  return (0UL);                                                     /* Function successful */
 8001598:	2300      	movs	r3, #0
}
 800159a:	4618      	mov	r0, r3
 800159c:	3708      	adds	r7, #8
 800159e:	46bd      	mov	sp, r7
 80015a0:	bd80      	pop	{r7, pc}
 80015a2:	bf00      	nop
 80015a4:	e000e010 	.word	0xe000e010

080015a8 <HAL_NVIC_SetPriorityGrouping>:
  * @note   When the NVIC_PriorityGroup_0 is selected, IRQ pre-emption is no more possible.
  *         The pending IRQ priority will be managed only by the subpriority.
  * @retval None
  */
void HAL_NVIC_SetPriorityGrouping(uint32_t PriorityGroup)
{
 80015a8:	b580      	push	{r7, lr}
 80015aa:	b082      	sub	sp, #8
 80015ac:	af00      	add	r7, sp, #0
 80015ae:	6078      	str	r0, [r7, #4]
  /* Check the parameters */
  assert_param(IS_NVIC_PRIORITY_GROUP(PriorityGroup));

  /* Set the PRIGROUP[10:8] bits according to the PriorityGroup parameter value */
  NVIC_SetPriorityGrouping(PriorityGroup);
 80015b0:	6878      	ldr	r0, [r7, #4]
 80015b2:	f7ff ff29 	bl	8001408 <__NVIC_SetPriorityGrouping>
}
 80015b6:	bf00      	nop
 80015b8:	3708      	adds	r7, #8
 80015ba:	46bd      	mov	sp, r7
 80015bc:	bd80      	pop	{r7, pc}

080015be <HAL_NVIC_SetPriority>:
  *         This parameter can be a value between 0 and 15
  *         A lower priority value indicates a higher priority.
  * @retval None
  */
void HAL_NVIC_SetPriority(IRQn_Type IRQn, uint32_t PreemptPriority, uint32_t SubPriority)
{
 80015be:	b580      	push	{r7, lr}
 80015c0:	b086      	sub	sp, #24
 80015c2:	af00      	add	r7, sp, #0
 80015c4:	4603      	mov	r3, r0
 80015c6:	60b9      	str	r1, [r7, #8]
 80015c8:	607a      	str	r2, [r7, #4]
 80015ca:	73fb      	strb	r3, [r7, #15]

  /* Check the parameters */
  assert_param(IS_NVIC_SUB_PRIORITY(SubPriority));
  assert_param(IS_NVIC_PREEMPTION_PRIORITY(PreemptPriority));

  prioritygroup = NVIC_GetPriorityGrouping();
 80015cc:	f7ff ff40 	bl	8001450 <__NVIC_GetPriorityGrouping>
 80015d0:	6178      	str	r0, [r7, #20]

  NVIC_SetPriority(IRQn, NVIC_EncodePriority(prioritygroup, PreemptPriority, SubPriority));
 80015d2:	687a      	ldr	r2, [r7, #4]
 80015d4:	68b9      	ldr	r1, [r7, #8]
 80015d6:	6978      	ldr	r0, [r7, #20]
 80015d8:	f7ff ff90 	bl	80014fc <NVIC_EncodePriority>
 80015dc:	4602      	mov	r2, r0
 80015de:	f997 300f 	ldrsb.w	r3, [r7, #15]
 80015e2:	4611      	mov	r1, r2
 80015e4:	4618      	mov	r0, r3
 80015e6:	f7ff ff5f 	bl	80014a8 <__NVIC_SetPriority>
}
 80015ea:	bf00      	nop
 80015ec:	3718      	adds	r7, #24
 80015ee:	46bd      	mov	sp, r7
 80015f0:	bd80      	pop	{r7, pc}

080015f2 <HAL_NVIC_EnableIRQ>:
  *         This parameter can be an enumerator of IRQn_Type enumeration
  *         (For the complete STM32 Devices IRQ Channels list, please refer to the appropriate CMSIS device file (stm32g4xxxx.h))
  * @retval None
  */
void HAL_NVIC_EnableIRQ(IRQn_Type IRQn)
{
 80015f2:	b580      	push	{r7, lr}
 80015f4:	b082      	sub	sp, #8
 80015f6:	af00      	add	r7, sp, #0
 80015f8:	4603      	mov	r3, r0
 80015fa:	71fb      	strb	r3, [r7, #7]
  /* Check the parameters */
  assert_param(IS_NVIC_DEVICE_IRQ(IRQn));
  
  /* Enable interrupt */
  NVIC_EnableIRQ(IRQn);
 80015fc:	f997 3007 	ldrsb.w	r3, [r7, #7]
 8001600:	4618      	mov	r0, r3
 8001602:	f7ff ff33 	bl	800146c <__NVIC_EnableIRQ>
}
 8001606:	bf00      	nop
 8001608:	3708      	adds	r7, #8
 800160a:	46bd      	mov	sp, r7
 800160c:	bd80      	pop	{r7, pc}

0800160e <HAL_SYSTICK_Config>:
  * @param  TicksNumb: Specifies the ticks Number of ticks between two interrupts.
  * @retval status:  - 0  Function succeeded.
  *                  - 1  Function failed.
  */
uint32_t HAL_SYSTICK_Config(uint32_t TicksNumb)
{
 800160e:	b580      	push	{r7, lr}
 8001610:	b082      	sub	sp, #8
 8001612:	af00      	add	r7, sp, #0
 8001614:	6078      	str	r0, [r7, #4]
   return SysTick_Config(TicksNumb);
 8001616:	6878      	ldr	r0, [r7, #4]
 8001618:	f7ff ffa4 	bl	8001564 <SysTick_Config>
 800161c:	4603      	mov	r3, r0
}
 800161e:	4618      	mov	r0, r3
 8001620:	3708      	adds	r7, #8
 8001622:	46bd      	mov	sp, r7
 8001624:	bd80      	pop	{r7, pc}
	...

08001628 <HAL_GPIO_Init>:
  * @param  GPIO_Init pointer to a GPIO_InitTypeDef structure that contains
  *         the configuration information for the specified GPIO peripheral.
  * @retval None
  */
void HAL_GPIO_Init(GPIO_TypeDef  *GPIOx, GPIO_InitTypeDef *GPIO_Init)
{
 8001628:	b480      	push	{r7}
 800162a:	b087      	sub	sp, #28
 800162c:	af00      	add	r7, sp, #0
 800162e:	6078      	str	r0, [r7, #4]
 8001630:	6039      	str	r1, [r7, #0]
  uint32_t position = 0x00U;
 8001632:	2300      	movs	r3, #0
 8001634:	617b      	str	r3, [r7, #20]
  assert_param(IS_GPIO_PIN(GPIO_Init->Pin));
  assert_param(IS_GPIO_MODE(GPIO_Init->Mode));
  assert_param(IS_GPIO_PULL(GPIO_Init->Pull));

  /* Configure the port pins */
  while (((GPIO_Init->Pin) >> position) != 0U)
 8001636:	e15a      	b.n	80018ee <HAL_GPIO_Init+0x2c6>
  {
    /* Get current io position */
    iocurrent = (GPIO_Init->Pin) & (1UL << position);
 8001638:	683b      	ldr	r3, [r7, #0]
 800163a:	681a      	ldr	r2, [r3, #0]
 800163c:	2101      	movs	r1, #1
 800163e:	697b      	ldr	r3, [r7, #20]
 8001640:	fa01 f303 	lsl.w	r3, r1, r3
 8001644:	4013      	ands	r3, r2
 8001646:	60fb      	str	r3, [r7, #12]

    if (iocurrent != 0x00u)
 8001648:	68fb      	ldr	r3, [r7, #12]
 800164a:	2b00      	cmp	r3, #0
 800164c:	f000 814c 	beq.w	80018e8 <HAL_GPIO_Init+0x2c0>
    {
      /*--------------------- GPIO Mode Configuration ------------------------*/
      /* In case of Output or Alternate function mode selection */
      if ((GPIO_Init->Mode == GPIO_MODE_OUTPUT_PP) || (GPIO_Init->Mode == GPIO_MODE_AF_PP) ||
 8001650:	683b      	ldr	r3, [r7, #0]
 8001652:	685b      	ldr	r3, [r3, #4]
 8001654:	2b01      	cmp	r3, #1
 8001656:	d00b      	beq.n	8001670 <HAL_GPIO_Init+0x48>
 8001658:	683b      	ldr	r3, [r7, #0]
 800165a:	685b      	ldr	r3, [r3, #4]
 800165c:	2b02      	cmp	r3, #2
 800165e:	d007      	beq.n	8001670 <HAL_GPIO_Init+0x48>
          (GPIO_Init->Mode == GPIO_MODE_OUTPUT_OD) || (GPIO_Init->Mode == GPIO_MODE_AF_OD))
 8001660:	683b      	ldr	r3, [r7, #0]
 8001662:	685b      	ldr	r3, [r3, #4]
      if ((GPIO_Init->Mode == GPIO_MODE_OUTPUT_PP) || (GPIO_Init->Mode == GPIO_MODE_AF_PP) ||
 8001664:	2b11      	cmp	r3, #17
 8001666:	d003      	beq.n	8001670 <HAL_GPIO_Init+0x48>
          (GPIO_Init->Mode == GPIO_MODE_OUTPUT_OD) || (GPIO_Init->Mode == GPIO_MODE_AF_OD))
 8001668:	683b      	ldr	r3, [r7, #0]
 800166a:	685b      	ldr	r3, [r3, #4]
 800166c:	2b12      	cmp	r3, #18
 800166e:	d130      	bne.n	80016d2 <HAL_GPIO_Init+0xaa>
      {
        /* Check the Speed parameter */
        assert_param(IS_GPIO_SPEED(GPIO_Init->Speed));
        /* Configure the IO Speed */
        temp = GPIOx->OSPEEDR;
 8001670:	687b      	ldr	r3, [r7, #4]
 8001672:	689b      	ldr	r3, [r3, #8]
 8001674:	613b      	str	r3, [r7, #16]
        temp &= ~(GPIO_OSPEEDR_OSPEED0 << (position * 2U));
 8001676:	697b      	ldr	r3, [r7, #20]
 8001678:	005b      	lsls	r3, r3, #1
 800167a:	2203      	movs	r2, #3
 800167c:	fa02 f303 	lsl.w	r3, r2, r3
 8001680:	43db      	mvns	r3, r3
 8001682:	693a      	ldr	r2, [r7, #16]
 8001684:	4013      	ands	r3, r2
 8001686:	613b      	str	r3, [r7, #16]
        temp |= (GPIO_Init->Speed << (position * 2U));
 8001688:	683b      	ldr	r3, [r7, #0]
 800168a:	68da      	ldr	r2, [r3, #12]
 800168c:	697b      	ldr	r3, [r7, #20]
 800168e:	005b      	lsls	r3, r3, #1
 8001690:	fa02 f303 	lsl.w	r3, r2, r3
 8001694:	693a      	ldr	r2, [r7, #16]
 8001696:	4313      	orrs	r3, r2
 8001698:	613b      	str	r3, [r7, #16]
        GPIOx->OSPEEDR = temp;
 800169a:	687b      	ldr	r3, [r7, #4]
 800169c:	693a      	ldr	r2, [r7, #16]
 800169e:	609a      	str	r2, [r3, #8]

        /* Configure the IO Output Type */
        temp = GPIOx->OTYPER;
 80016a0:	687b      	ldr	r3, [r7, #4]
 80016a2:	685b      	ldr	r3, [r3, #4]
 80016a4:	613b      	str	r3, [r7, #16]
        temp &= ~(GPIO_OTYPER_OT0 << position) ;
 80016a6:	2201      	movs	r2, #1
 80016a8:	697b      	ldr	r3, [r7, #20]
 80016aa:	fa02 f303 	lsl.w	r3, r2, r3
 80016ae:	43db      	mvns	r3, r3
 80016b0:	693a      	ldr	r2, [r7, #16]
 80016b2:	4013      	ands	r3, r2
 80016b4:	613b      	str	r3, [r7, #16]
        temp |= (((GPIO_Init->Mode & GPIO_OUTPUT_TYPE) >> 4U) << position);
 80016b6:	683b      	ldr	r3, [r7, #0]
 80016b8:	685b      	ldr	r3, [r3, #4]
 80016ba:	091b      	lsrs	r3, r3, #4
 80016bc:	f003 0201 	and.w	r2, r3, #1
 80016c0:	697b      	ldr	r3, [r7, #20]
 80016c2:	fa02 f303 	lsl.w	r3, r2, r3
 80016c6:	693a      	ldr	r2, [r7, #16]
 80016c8:	4313      	orrs	r3, r2
 80016ca:	613b      	str	r3, [r7, #16]
        GPIOx->OTYPER = temp;
 80016cc:	687b      	ldr	r3, [r7, #4]
 80016ce:	693a      	ldr	r2, [r7, #16]
 80016d0:	605a      	str	r2, [r3, #4]
      }

      /* Activate the Pull-up or Pull down resistor for the current IO */
      temp = GPIOx->PUPDR;
 80016d2:	687b      	ldr	r3, [r7, #4]
 80016d4:	68db      	ldr	r3, [r3, #12]
 80016d6:	613b      	str	r3, [r7, #16]
      temp &= ~(GPIO_PUPDR_PUPD0 << (position * 2U));
 80016d8:	697b      	ldr	r3, [r7, #20]
 80016da:	005b      	lsls	r3, r3, #1
 80016dc:	2203      	movs	r2, #3
 80016de:	fa02 f303 	lsl.w	r3, r2, r3
 80016e2:	43db      	mvns	r3, r3
 80016e4:	693a      	ldr	r2, [r7, #16]
 80016e6:	4013      	ands	r3, r2
 80016e8:	613b      	str	r3, [r7, #16]
      temp |= ((GPIO_Init->Pull) << (position * 2U));
 80016ea:	683b      	ldr	r3, [r7, #0]
 80016ec:	689a      	ldr	r2, [r3, #8]
 80016ee:	697b      	ldr	r3, [r7, #20]
 80016f0:	005b      	lsls	r3, r3, #1
 80016f2:	fa02 f303 	lsl.w	r3, r2, r3
 80016f6:	693a      	ldr	r2, [r7, #16]
 80016f8:	4313      	orrs	r3, r2
 80016fa:	613b      	str	r3, [r7, #16]
      GPIOx->PUPDR = temp;
 80016fc:	687b      	ldr	r3, [r7, #4]
 80016fe:	693a      	ldr	r2, [r7, #16]
 8001700:	60da      	str	r2, [r3, #12]

      /* In case of Alternate function mode selection */
      if ((GPIO_Init->Mode == GPIO_MODE_AF_PP) || (GPIO_Init->Mode == GPIO_MODE_AF_OD))
 8001702:	683b      	ldr	r3, [r7, #0]
 8001704:	685b      	ldr	r3, [r3, #4]
 8001706:	2b02      	cmp	r3, #2
 8001708:	d003      	beq.n	8001712 <HAL_GPIO_Init+0xea>
 800170a:	683b      	ldr	r3, [r7, #0]
 800170c:	685b      	ldr	r3, [r3, #4]
 800170e:	2b12      	cmp	r3, #18
 8001710:	d123      	bne.n	800175a <HAL_GPIO_Init+0x132>
        /* Check the Alternate function parameters */
        assert_param(IS_GPIO_AF_INSTANCE(GPIOx));
        assert_param(IS_GPIO_AF(GPIO_Init->Alternate));

        /* Configure Alternate function mapped with the current IO */
        temp = GPIOx->AFR[position >> 3U];
 8001712:	697b      	ldr	r3, [r7, #20]
 8001714:	08da      	lsrs	r2, r3, #3
 8001716:	687b      	ldr	r3, [r7, #4]
 8001718:	3208      	adds	r2, #8
 800171a:	f853 3022 	ldr.w	r3, [r3, r2, lsl #2]
 800171e:	613b      	str	r3, [r7, #16]
        temp &= ~(0xFU << ((position & 0x07U) * 4U));
 8001720:	697b      	ldr	r3, [r7, #20]
 8001722:	f003 0307 	and.w	r3, r3, #7
 8001726:	009b      	lsls	r3, r3, #2
 8001728:	220f      	movs	r2, #15
 800172a:	fa02 f303 	lsl.w	r3, r2, r3
 800172e:	43db      	mvns	r3, r3
 8001730:	693a      	ldr	r2, [r7, #16]
 8001732:	4013      	ands	r3, r2
 8001734:	613b      	str	r3, [r7, #16]
        temp |= ((GPIO_Init->Alternate) << ((position & 0x07U) * 4U));
 8001736:	683b      	ldr	r3, [r7, #0]
 8001738:	691a      	ldr	r2, [r3, #16]
 800173a:	697b      	ldr	r3, [r7, #20]
 800173c:	f003 0307 	and.w	r3, r3, #7
 8001740:	009b      	lsls	r3, r3, #2
 8001742:	fa02 f303 	lsl.w	r3, r2, r3
 8001746:	693a      	ldr	r2, [r7, #16]
 8001748:	4313      	orrs	r3, r2
 800174a:	613b      	str	r3, [r7, #16]
        GPIOx->AFR[position >> 3U] = temp;
 800174c:	697b      	ldr	r3, [r7, #20]
 800174e:	08da      	lsrs	r2, r3, #3
 8001750:	687b      	ldr	r3, [r7, #4]
 8001752:	3208      	adds	r2, #8
 8001754:	6939      	ldr	r1, [r7, #16]
 8001756:	f843 1022 	str.w	r1, [r3, r2, lsl #2]
      }

      /* Configure IO Direction mode (Input, Output, Alternate or Analog) */
      temp = GPIOx->MODER;
 800175a:	687b      	ldr	r3, [r7, #4]
 800175c:	681b      	ldr	r3, [r3, #0]
 800175e:	613b      	str	r3, [r7, #16]
      temp &= ~(GPIO_MODER_MODE0 << (position * 2U));
 8001760:	697b      	ldr	r3, [r7, #20]
 8001762:	005b      	lsls	r3, r3, #1
 8001764:	2203      	movs	r2, #3
 8001766:	fa02 f303 	lsl.w	r3, r2, r3
 800176a:	43db      	mvns	r3, r3
 800176c:	693a      	ldr	r2, [r7, #16]
 800176e:	4013      	ands	r3, r2
 8001770:	613b      	str	r3, [r7, #16]
      temp |= ((GPIO_Init->Mode & GPIO_MODE) << (position * 2U));
 8001772:	683b      	ldr	r3, [r7, #0]
 8001774:	685b      	ldr	r3, [r3, #4]
 8001776:	f003 0203 	and.w	r2, r3, #3
 800177a:	697b      	ldr	r3, [r7, #20]
 800177c:	005b      	lsls	r3, r3, #1
 800177e:	fa02 f303 	lsl.w	r3, r2, r3
 8001782:	693a      	ldr	r2, [r7, #16]
 8001784:	4313      	orrs	r3, r2
 8001786:	613b      	str	r3, [r7, #16]
      GPIOx->MODER = temp;
 8001788:	687b      	ldr	r3, [r7, #4]
 800178a:	693a      	ldr	r2, [r7, #16]
 800178c:	601a      	str	r2, [r3, #0]

      /*--------------------- EXTI Mode Configuration ------------------------*/
      /* Configure the External Interrupt or event for the current IO */
      if ((GPIO_Init->Mode & EXTI_MODE) == EXTI_MODE)
 800178e:	683b      	ldr	r3, [r7, #0]
 8001790:	685b      	ldr	r3, [r3, #4]
 8001792:	f003 5380 	and.w	r3, r3, #268435456	; 0x10000000
 8001796:	2b00      	cmp	r3, #0
 8001798:	f000 80a6 	beq.w	80018e8 <HAL_GPIO_Init+0x2c0>
      {
        /* Enable SYSCFG Clock */
        __HAL_RCC_SYSCFG_CLK_ENABLE();
 800179c:	4b5b      	ldr	r3, [pc, #364]	; (800190c <HAL_GPIO_Init+0x2e4>)
 800179e:	6e1b      	ldr	r3, [r3, #96]	; 0x60
 80017a0:	4a5a      	ldr	r2, [pc, #360]	; (800190c <HAL_GPIO_Init+0x2e4>)
 80017a2:	f043 0301 	orr.w	r3, r3, #1
 80017a6:	6613      	str	r3, [r2, #96]	; 0x60
 80017a8:	4b58      	ldr	r3, [pc, #352]	; (800190c <HAL_GPIO_Init+0x2e4>)
 80017aa:	6e1b      	ldr	r3, [r3, #96]	; 0x60
 80017ac:	f003 0301 	and.w	r3, r3, #1
 80017b0:	60bb      	str	r3, [r7, #8]
 80017b2:	68bb      	ldr	r3, [r7, #8]

        temp = SYSCFG->EXTICR[position >> 2U];
 80017b4:	4a56      	ldr	r2, [pc, #344]	; (8001910 <HAL_GPIO_Init+0x2e8>)
 80017b6:	697b      	ldr	r3, [r7, #20]
 80017b8:	089b      	lsrs	r3, r3, #2
 80017ba:	3302      	adds	r3, #2
 80017bc:	f852 3023 	ldr.w	r3, [r2, r3, lsl #2]
 80017c0:	613b      	str	r3, [r7, #16]
        temp &= ~(0x0FUL << (4U * (position & 0x03U)));
 80017c2:	697b      	ldr	r3, [r7, #20]
 80017c4:	f003 0303 	and.w	r3, r3, #3
 80017c8:	009b      	lsls	r3, r3, #2
 80017ca:	220f      	movs	r2, #15
 80017cc:	fa02 f303 	lsl.w	r3, r2, r3
 80017d0:	43db      	mvns	r3, r3
 80017d2:	693a      	ldr	r2, [r7, #16]
 80017d4:	4013      	ands	r3, r2
 80017d6:	613b      	str	r3, [r7, #16]
        temp |= (GPIO_GET_INDEX(GPIOx) << (4U * (position & 0x03U)));
 80017d8:	687b      	ldr	r3, [r7, #4]
 80017da:	f1b3 4f90 	cmp.w	r3, #1207959552	; 0x48000000
 80017de:	d01f      	beq.n	8001820 <HAL_GPIO_Init+0x1f8>
 80017e0:	687b      	ldr	r3, [r7, #4]
 80017e2:	4a4c      	ldr	r2, [pc, #304]	; (8001914 <HAL_GPIO_Init+0x2ec>)
 80017e4:	4293      	cmp	r3, r2
 80017e6:	d019      	beq.n	800181c <HAL_GPIO_Init+0x1f4>
 80017e8:	687b      	ldr	r3, [r7, #4]
 80017ea:	4a4b      	ldr	r2, [pc, #300]	; (8001918 <HAL_GPIO_Init+0x2f0>)
 80017ec:	4293      	cmp	r3, r2
 80017ee:	d013      	beq.n	8001818 <HAL_GPIO_Init+0x1f0>
 80017f0:	687b      	ldr	r3, [r7, #4]
 80017f2:	4a4a      	ldr	r2, [pc, #296]	; (800191c <HAL_GPIO_Init+0x2f4>)
 80017f4:	4293      	cmp	r3, r2
 80017f6:	d00d      	beq.n	8001814 <HAL_GPIO_Init+0x1ec>
 80017f8:	687b      	ldr	r3, [r7, #4]
 80017fa:	4a49      	ldr	r2, [pc, #292]	; (8001920 <HAL_GPIO_Init+0x2f8>)
 80017fc:	4293      	cmp	r3, r2
 80017fe:	d007      	beq.n	8001810 <HAL_GPIO_Init+0x1e8>
 8001800:	687b      	ldr	r3, [r7, #4]
 8001802:	4a48      	ldr	r2, [pc, #288]	; (8001924 <HAL_GPIO_Init+0x2fc>)
 8001804:	4293      	cmp	r3, r2
 8001806:	d101      	bne.n	800180c <HAL_GPIO_Init+0x1e4>
 8001808:	2305      	movs	r3, #5
 800180a:	e00a      	b.n	8001822 <HAL_GPIO_Init+0x1fa>
 800180c:	2306      	movs	r3, #6
 800180e:	e008      	b.n	8001822 <HAL_GPIO_Init+0x1fa>
 8001810:	2304      	movs	r3, #4
 8001812:	e006      	b.n	8001822 <HAL_GPIO_Init+0x1fa>
 8001814:	2303      	movs	r3, #3
 8001816:	e004      	b.n	8001822 <HAL_GPIO_Init+0x1fa>
 8001818:	2302      	movs	r3, #2
 800181a:	e002      	b.n	8001822 <HAL_GPIO_Init+0x1fa>
 800181c:	2301      	movs	r3, #1
 800181e:	e000      	b.n	8001822 <HAL_GPIO_Init+0x1fa>
 8001820:	2300      	movs	r3, #0
 8001822:	697a      	ldr	r2, [r7, #20]
 8001824:	f002 0203 	and.w	r2, r2, #3
 8001828:	0092      	lsls	r2, r2, #2
 800182a:	4093      	lsls	r3, r2
 800182c:	693a      	ldr	r2, [r7, #16]
 800182e:	4313      	orrs	r3, r2
 8001830:	613b      	str	r3, [r7, #16]
        SYSCFG->EXTICR[position >> 2U] = temp;
 8001832:	4937      	ldr	r1, [pc, #220]	; (8001910 <HAL_GPIO_Init+0x2e8>)
 8001834:	697b      	ldr	r3, [r7, #20]
 8001836:	089b      	lsrs	r3, r3, #2
 8001838:	3302      	adds	r3, #2
 800183a:	693a      	ldr	r2, [r7, #16]
 800183c:	f841 2023 	str.w	r2, [r1, r3, lsl #2]

        /* Clear EXTI line configuration */
        temp = EXTI->IMR1;
 8001840:	4b39      	ldr	r3, [pc, #228]	; (8001928 <HAL_GPIO_Init+0x300>)
 8001842:	681b      	ldr	r3, [r3, #0]
 8001844:	613b      	str	r3, [r7, #16]
        temp &= ~(iocurrent);
 8001846:	68fb      	ldr	r3, [r7, #12]
 8001848:	43db      	mvns	r3, r3
 800184a:	693a      	ldr	r2, [r7, #16]
 800184c:	4013      	ands	r3, r2
 800184e:	613b      	str	r3, [r7, #16]
        if ((GPIO_Init->Mode & GPIO_MODE_IT) == GPIO_MODE_IT)
 8001850:	683b      	ldr	r3, [r7, #0]
 8001852:	685b      	ldr	r3, [r3, #4]
 8001854:	f403 3380 	and.w	r3, r3, #65536	; 0x10000
 8001858:	2b00      	cmp	r3, #0
 800185a:	d003      	beq.n	8001864 <HAL_GPIO_Init+0x23c>
        {
          temp |= iocurrent;
 800185c:	693a      	ldr	r2, [r7, #16]
 800185e:	68fb      	ldr	r3, [r7, #12]
 8001860:	4313      	orrs	r3, r2
 8001862:	613b      	str	r3, [r7, #16]
        }
        EXTI->IMR1 = temp;
 8001864:	4a30      	ldr	r2, [pc, #192]	; (8001928 <HAL_GPIO_Init+0x300>)
 8001866:	693b      	ldr	r3, [r7, #16]
 8001868:	6013      	str	r3, [r2, #0]

        temp = EXTI->EMR1;
 800186a:	4b2f      	ldr	r3, [pc, #188]	; (8001928 <HAL_GPIO_Init+0x300>)
 800186c:	685b      	ldr	r3, [r3, #4]
 800186e:	613b      	str	r3, [r7, #16]
        temp &= ~(iocurrent);
 8001870:	68fb      	ldr	r3, [r7, #12]
 8001872:	43db      	mvns	r3, r3
 8001874:	693a      	ldr	r2, [r7, #16]
 8001876:	4013      	ands	r3, r2
 8001878:	613b      	str	r3, [r7, #16]
        if ((GPIO_Init->Mode & GPIO_MODE_EVT) == GPIO_MODE_EVT)
 800187a:	683b      	ldr	r3, [r7, #0]
 800187c:	685b      	ldr	r3, [r3, #4]
 800187e:	f403 3300 	and.w	r3, r3, #131072	; 0x20000
 8001882:	2b00      	cmp	r3, #0
 8001884:	d003      	beq.n	800188e <HAL_GPIO_Init+0x266>
        {
          temp |= iocurrent;
 8001886:	693a      	ldr	r2, [r7, #16]
 8001888:	68fb      	ldr	r3, [r7, #12]
 800188a:	4313      	orrs	r3, r2
 800188c:	613b      	str	r3, [r7, #16]
        }
        EXTI->EMR1 = temp;
 800188e:	4a26      	ldr	r2, [pc, #152]	; (8001928 <HAL_GPIO_Init+0x300>)
 8001890:	693b      	ldr	r3, [r7, #16]
 8001892:	6053      	str	r3, [r2, #4]

        /* Clear Rising Falling edge configuration */
        temp = EXTI->RTSR1;
 8001894:	4b24      	ldr	r3, [pc, #144]	; (8001928 <HAL_GPIO_Init+0x300>)
 8001896:	689b      	ldr	r3, [r3, #8]
 8001898:	613b      	str	r3, [r7, #16]
        temp &= ~(iocurrent);
 800189a:	68fb      	ldr	r3, [r7, #12]
 800189c:	43db      	mvns	r3, r3
 800189e:	693a      	ldr	r2, [r7, #16]
 80018a0:	4013      	ands	r3, r2
 80018a2:	613b      	str	r3, [r7, #16]
        if ((GPIO_Init->Mode & RISING_EDGE) == RISING_EDGE)
 80018a4:	683b      	ldr	r3, [r7, #0]
 80018a6:	685b      	ldr	r3, [r3, #4]
 80018a8:	f403 1380 	and.w	r3, r3, #1048576	; 0x100000
 80018ac:	2b00      	cmp	r3, #0
 80018ae:	d003      	beq.n	80018b8 <HAL_GPIO_Init+0x290>
        {
          temp |= iocurrent;
 80018b0:	693a      	ldr	r2, [r7, #16]
 80018b2:	68fb      	ldr	r3, [r7, #12]
 80018b4:	4313      	orrs	r3, r2
 80018b6:	613b      	str	r3, [r7, #16]
        }
        EXTI->RTSR1 = temp;
 80018b8:	4a1b      	ldr	r2, [pc, #108]	; (8001928 <HAL_GPIO_Init+0x300>)
 80018ba:	693b      	ldr	r3, [r7, #16]
 80018bc:	6093      	str	r3, [r2, #8]

        temp = EXTI->FTSR1;
 80018be:	4b1a      	ldr	r3, [pc, #104]	; (8001928 <HAL_GPIO_Init+0x300>)
 80018c0:	68db      	ldr	r3, [r3, #12]
 80018c2:	613b      	str	r3, [r7, #16]
        temp &= ~(iocurrent);
 80018c4:	68fb      	ldr	r3, [r7, #12]
 80018c6:	43db      	mvns	r3, r3
 80018c8:	693a      	ldr	r2, [r7, #16]
 80018ca:	4013      	ands	r3, r2
 80018cc:	613b      	str	r3, [r7, #16]
        if ((GPIO_Init->Mode & FALLING_EDGE) == FALLING_EDGE)
 80018ce:	683b      	ldr	r3, [r7, #0]
 80018d0:	685b      	ldr	r3, [r3, #4]
 80018d2:	f403 1300 	and.w	r3, r3, #2097152	; 0x200000
 80018d6:	2b00      	cmp	r3, #0
 80018d8:	d003      	beq.n	80018e2 <HAL_GPIO_Init+0x2ba>
        {
          temp |= iocurrent;
 80018da:	693a      	ldr	r2, [r7, #16]
 80018dc:	68fb      	ldr	r3, [r7, #12]
 80018de:	4313      	orrs	r3, r2
 80018e0:	613b      	str	r3, [r7, #16]
        }
        EXTI->FTSR1 = temp;
 80018e2:	4a11      	ldr	r2, [pc, #68]	; (8001928 <HAL_GPIO_Init+0x300>)
 80018e4:	693b      	ldr	r3, [r7, #16]
 80018e6:	60d3      	str	r3, [r2, #12]
      }
    }

    position++;
 80018e8:	697b      	ldr	r3, [r7, #20]
 80018ea:	3301      	adds	r3, #1
 80018ec:	617b      	str	r3, [r7, #20]
  while (((GPIO_Init->Pin) >> position) != 0U)
 80018ee:	683b      	ldr	r3, [r7, #0]
 80018f0:	681a      	ldr	r2, [r3, #0]
 80018f2:	697b      	ldr	r3, [r7, #20]
 80018f4:	fa22 f303 	lsr.w	r3, r2, r3
 80018f8:	2b00      	cmp	r3, #0
 80018fa:	f47f ae9d 	bne.w	8001638 <HAL_GPIO_Init+0x10>
  }
}
 80018fe:	bf00      	nop
 8001900:	371c      	adds	r7, #28
 8001902:	46bd      	mov	sp, r7
 8001904:	f85d 7b04 	ldr.w	r7, [sp], #4
 8001908:	4770      	bx	lr
 800190a:	bf00      	nop
 800190c:	40021000 	.word	0x40021000
 8001910:	40010000 	.word	0x40010000
 8001914:	48000400 	.word	0x48000400
 8001918:	48000800 	.word	0x48000800
 800191c:	48000c00 	.word	0x48000c00
 8001920:	48001000 	.word	0x48001000
 8001924:	48001400 	.word	0x48001400
 8001928:	40010400 	.word	0x40010400

0800192c <HAL_GPIO_ReadPin>:
  * @param  GPIO_Pin specifies the port bit to read.
  *         This parameter can be any combination of GPIO_PIN_x where x can be (0..15).
  * @retval The input port pin value.
  */
GPIO_PinState HAL_GPIO_ReadPin(GPIO_TypeDef *GPIOx, uint16_t GPIO_Pin)
{
 800192c:	b480      	push	{r7}
 800192e:	b085      	sub	sp, #20
 8001930:	af00      	add	r7, sp, #0
 8001932:	6078      	str	r0, [r7, #4]
 8001934:	460b      	mov	r3, r1
 8001936:	807b      	strh	r3, [r7, #2]
  GPIO_PinState bitstatus;

  /* Check the parameters */
  assert_param(IS_GPIO_PIN(GPIO_Pin));

  if ((GPIOx->IDR & GPIO_Pin) != 0x00U)
 8001938:	687b      	ldr	r3, [r7, #4]
 800193a:	691a      	ldr	r2, [r3, #16]
 800193c:	887b      	ldrh	r3, [r7, #2]
 800193e:	4013      	ands	r3, r2
 8001940:	2b00      	cmp	r3, #0
 8001942:	d002      	beq.n	800194a <HAL_GPIO_ReadPin+0x1e>
  {
    bitstatus = GPIO_PIN_SET;
 8001944:	2301      	movs	r3, #1
 8001946:	73fb      	strb	r3, [r7, #15]
 8001948:	e001      	b.n	800194e <HAL_GPIO_ReadPin+0x22>
  }
  else
  {
    bitstatus = GPIO_PIN_RESET;
 800194a:	2300      	movs	r3, #0
 800194c:	73fb      	strb	r3, [r7, #15]
  }
  return bitstatus;
 800194e:	7bfb      	ldrb	r3, [r7, #15]
}
 8001950:	4618      	mov	r0, r3
 8001952:	3714      	adds	r7, #20
 8001954:	46bd      	mov	sp, r7
 8001956:	f85d 7b04 	ldr.w	r7, [sp], #4
 800195a:	4770      	bx	lr

0800195c <HAL_GPIO_WritePin>:
  *            @arg GPIO_PIN_RESET: to clear the port pin
  *            @arg GPIO_PIN_SET: to set the port pin
  * @retval None
  */
void HAL_GPIO_WritePin(GPIO_TypeDef *GPIOx, uint16_t GPIO_Pin, GPIO_PinState PinState)
{
 800195c:	b480      	push	{r7}
 800195e:	b083      	sub	sp, #12
 8001960:	af00      	add	r7, sp, #0
 8001962:	6078      	str	r0, [r7, #4]
 8001964:	460b      	mov	r3, r1
 8001966:	807b      	strh	r3, [r7, #2]
 8001968:	4613      	mov	r3, r2
 800196a:	707b      	strb	r3, [r7, #1]
  /* Check the parameters */
  assert_param(IS_GPIO_PIN(GPIO_Pin));
  assert_param(IS_GPIO_PIN_ACTION(PinState));

  if (PinState != GPIO_PIN_RESET)
 800196c:	787b      	ldrb	r3, [r7, #1]
 800196e:	2b00      	cmp	r3, #0
 8001970:	d003      	beq.n	800197a <HAL_GPIO_WritePin+0x1e>
  {
    GPIOx->BSRR = (uint32_t)GPIO_Pin;
 8001972:	887a      	ldrh	r2, [r7, #2]
 8001974:	687b      	ldr	r3, [r7, #4]
 8001976:	619a      	str	r2, [r3, #24]
  }
  else
  {
    GPIOx->BRR = (uint32_t)GPIO_Pin;
  }
}
 8001978:	e002      	b.n	8001980 <HAL_GPIO_WritePin+0x24>
    GPIOx->BRR = (uint32_t)GPIO_Pin;
 800197a:	887a      	ldrh	r2, [r7, #2]
 800197c:	687b      	ldr	r3, [r7, #4]
 800197e:	629a      	str	r2, [r3, #40]	; 0x28
}
 8001980:	bf00      	nop
 8001982:	370c      	adds	r7, #12
 8001984:	46bd      	mov	sp, r7
 8001986:	f85d 7b04 	ldr.w	r7, [sp], #4
 800198a:	4770      	bx	lr

0800198c <HAL_PCD_Init>:
  *         parameters in the PCD_InitTypeDef and initialize the associated handle.
  * @param  hpcd PCD handle
  * @retval HAL status
  */
HAL_StatusTypeDef HAL_PCD_Init(PCD_HandleTypeDef *hpcd)
{
 800198c:	b5f0      	push	{r4, r5, r6, r7, lr}
 800198e:	b08b      	sub	sp, #44	; 0x2c
 8001990:	af06      	add	r7, sp, #24
 8001992:	6078      	str	r0, [r7, #4]
  uint8_t i;

  /* Check the PCD handle allocation */
  if (hpcd == NULL)
 8001994:	687b      	ldr	r3, [r7, #4]
 8001996:	2b00      	cmp	r3, #0
 8001998:	d101      	bne.n	800199e <HAL_PCD_Init+0x12>
  {
    return HAL_ERROR;
 800199a:	2301      	movs	r3, #1
 800199c:	e0d7      	b.n	8001b4e <HAL_PCD_Init+0x1c2>
  }

  /* Check the parameters */
  assert_param(IS_PCD_ALL_INSTANCE(hpcd->Instance));

  if (hpcd->State == HAL_PCD_STATE_RESET)
 800199e:	687b      	ldr	r3, [r7, #4]
 80019a0:	f893 32a9 	ldrb.w	r3, [r3, #681]	; 0x2a9
 80019a4:	b2db      	uxtb	r3, r3
 80019a6:	2b00      	cmp	r3, #0
 80019a8:	d106      	bne.n	80019b8 <HAL_PCD_Init+0x2c>
  {
    /* Allocate lock resource and initialize it */
    hpcd->Lock = HAL_UNLOCKED;
 80019aa:	687b      	ldr	r3, [r7, #4]
 80019ac:	2200      	movs	r2, #0
 80019ae:	f883 22a8 	strb.w	r2, [r3, #680]	; 0x2a8

    /* Init the low level hardware */
    hpcd->MspInitCallback(hpcd);
#else
    /* Init the low level hardware : GPIO, CLOCK, NVIC... */
    HAL_PCD_MspInit(hpcd);
 80019b2:	6878      	ldr	r0, [r7, #4]
 80019b4:	f007 fcbc 	bl	8009330 <HAL_PCD_MspInit>
#endif /* (USE_HAL_PCD_REGISTER_CALLBACKS) */
  }

  hpcd->State = HAL_PCD_STATE_BUSY;
 80019b8:	687b      	ldr	r3, [r7, #4]
 80019ba:	2203      	movs	r2, #3
 80019bc:	f883 22a9 	strb.w	r2, [r3, #681]	; 0x2a9

  /* Disable the Interrupts */
  __HAL_PCD_DISABLE(hpcd);
 80019c0:	687b      	ldr	r3, [r7, #4]
 80019c2:	681b      	ldr	r3, [r3, #0]
 80019c4:	4618      	mov	r0, r3
 80019c6:	f003 fe18 	bl	80055fa <USB_DisableGlobalInt>

  /* Init endpoints structures */
  for (i = 0U; i < hpcd->Init.dev_endpoints; i++)
 80019ca:	2300      	movs	r3, #0
 80019cc:	73fb      	strb	r3, [r7, #15]
 80019ce:	e04c      	b.n	8001a6a <HAL_PCD_Init+0xde>
  {
    /* Init ep structure */
    hpcd->IN_ep[i].is_in = 1U;
 80019d0:	7bfb      	ldrb	r3, [r7, #15]
 80019d2:	6879      	ldr	r1, [r7, #4]
 80019d4:	1c5a      	adds	r2, r3, #1
 80019d6:	4613      	mov	r3, r2
 80019d8:	009b      	lsls	r3, r3, #2
 80019da:	4413      	add	r3, r2
 80019dc:	00db      	lsls	r3, r3, #3
 80019de:	440b      	add	r3, r1
 80019e0:	3301      	adds	r3, #1
 80019e2:	2201      	movs	r2, #1
 80019e4:	701a      	strb	r2, [r3, #0]
    hpcd->IN_ep[i].num = i;
 80019e6:	7bfb      	ldrb	r3, [r7, #15]
 80019e8:	6879      	ldr	r1, [r7, #4]
 80019ea:	1c5a      	adds	r2, r3, #1
 80019ec:	4613      	mov	r3, r2
 80019ee:	009b      	lsls	r3, r3, #2
 80019f0:	4413      	add	r3, r2
 80019f2:	00db      	lsls	r3, r3, #3
 80019f4:	440b      	add	r3, r1
 80019f6:	7bfa      	ldrb	r2, [r7, #15]
 80019f8:	701a      	strb	r2, [r3, #0]
    hpcd->IN_ep[i].tx_fifo_num = i;
 80019fa:	7bfa      	ldrb	r2, [r7, #15]
 80019fc:	7bfb      	ldrb	r3, [r7, #15]
 80019fe:	b298      	uxth	r0, r3
 8001a00:	6879      	ldr	r1, [r7, #4]
 8001a02:	4613      	mov	r3, r2
 8001a04:	009b      	lsls	r3, r3, #2
 8001a06:	4413      	add	r3, r2
 8001a08:	00db      	lsls	r3, r3, #3
 8001a0a:	440b      	add	r3, r1
 8001a0c:	3336      	adds	r3, #54	; 0x36
 8001a0e:	4602      	mov	r2, r0
 8001a10:	801a      	strh	r2, [r3, #0]
    /* Control until ep is activated */
    hpcd->IN_ep[i].type = EP_TYPE_CTRL;
 8001a12:	7bfb      	ldrb	r3, [r7, #15]
 8001a14:	6879      	ldr	r1, [r7, #4]
 8001a16:	1c5a      	adds	r2, r3, #1
 8001a18:	4613      	mov	r3, r2
 8001a1a:	009b      	lsls	r3, r3, #2
 8001a1c:	4413      	add	r3, r2
 8001a1e:	00db      	lsls	r3, r3, #3
 8001a20:	440b      	add	r3, r1
 8001a22:	3303      	adds	r3, #3
 8001a24:	2200      	movs	r2, #0
 8001a26:	701a      	strb	r2, [r3, #0]
    hpcd->IN_ep[i].maxpacket = 0U;
 8001a28:	7bfa      	ldrb	r2, [r7, #15]
 8001a2a:	6879      	ldr	r1, [r7, #4]
 8001a2c:	4613      	mov	r3, r2
 8001a2e:	009b      	lsls	r3, r3, #2
 8001a30:	4413      	add	r3, r2
 8001a32:	00db      	lsls	r3, r3, #3
 8001a34:	440b      	add	r3, r1
 8001a36:	3338      	adds	r3, #56	; 0x38
 8001a38:	2200      	movs	r2, #0
 8001a3a:	601a      	str	r2, [r3, #0]
    hpcd->IN_ep[i].xfer_buff = 0U;
 8001a3c:	7bfa      	ldrb	r2, [r7, #15]
 8001a3e:	6879      	ldr	r1, [r7, #4]
 8001a40:	4613      	mov	r3, r2
 8001a42:	009b      	lsls	r3, r3, #2
 8001a44:	4413      	add	r3, r2
 8001a46:	00db      	lsls	r3, r3, #3
 8001a48:	440b      	add	r3, r1
 8001a4a:	333c      	adds	r3, #60	; 0x3c
 8001a4c:	2200      	movs	r2, #0
 8001a4e:	601a      	str	r2, [r3, #0]
    hpcd->IN_ep[i].xfer_len = 0U;
 8001a50:	7bfa      	ldrb	r2, [r7, #15]
 8001a52:	6879      	ldr	r1, [r7, #4]
 8001a54:	4613      	mov	r3, r2
 8001a56:	009b      	lsls	r3, r3, #2
 8001a58:	4413      	add	r3, r2
 8001a5a:	00db      	lsls	r3, r3, #3
 8001a5c:	440b      	add	r3, r1
 8001a5e:	3340      	adds	r3, #64	; 0x40
 8001a60:	2200      	movs	r2, #0
 8001a62:	601a      	str	r2, [r3, #0]
  for (i = 0U; i < hpcd->Init.dev_endpoints; i++)
 8001a64:	7bfb      	ldrb	r3, [r7, #15]
 8001a66:	3301      	adds	r3, #1
 8001a68:	73fb      	strb	r3, [r7, #15]
 8001a6a:	7bfa      	ldrb	r2, [r7, #15]
 8001a6c:	687b      	ldr	r3, [r7, #4]
 8001a6e:	685b      	ldr	r3, [r3, #4]
 8001a70:	429a      	cmp	r2, r3
 8001a72:	d3ad      	bcc.n	80019d0 <HAL_PCD_Init+0x44>
  }

  for (i = 0U; i < hpcd->Init.dev_endpoints; i++)
 8001a74:	2300      	movs	r3, #0
 8001a76:	73fb      	strb	r3, [r7, #15]
 8001a78:	e044      	b.n	8001b04 <HAL_PCD_Init+0x178>
  {
    hpcd->OUT_ep[i].is_in = 0U;
 8001a7a:	7bfa      	ldrb	r2, [r7, #15]
 8001a7c:	6879      	ldr	r1, [r7, #4]
 8001a7e:	4613      	mov	r3, r2
 8001a80:	009b      	lsls	r3, r3, #2
 8001a82:	4413      	add	r3, r2
 8001a84:	00db      	lsls	r3, r3, #3
 8001a86:	440b      	add	r3, r1
 8001a88:	f203 1369 	addw	r3, r3, #361	; 0x169
 8001a8c:	2200      	movs	r2, #0
 8001a8e:	701a      	strb	r2, [r3, #0]
    hpcd->OUT_ep[i].num = i;
 8001a90:	7bfa      	ldrb	r2, [r7, #15]
 8001a92:	6879      	ldr	r1, [r7, #4]
 8001a94:	4613      	mov	r3, r2
 8001a96:	009b      	lsls	r3, r3, #2
 8001a98:	4413      	add	r3, r2
 8001a9a:	00db      	lsls	r3, r3, #3
 8001a9c:	440b      	add	r3, r1
 8001a9e:	f503 73b4 	add.w	r3, r3, #360	; 0x168
 8001aa2:	7bfa      	ldrb	r2, [r7, #15]
 8001aa4:	701a      	strb	r2, [r3, #0]
    /* Control until ep is activated */
    hpcd->OUT_ep[i].type = EP_TYPE_CTRL;
 8001aa6:	7bfa      	ldrb	r2, [r7, #15]
 8001aa8:	6879      	ldr	r1, [r7, #4]
 8001aaa:	4613      	mov	r3, r2
 8001aac:	009b      	lsls	r3, r3, #2
 8001aae:	4413      	add	r3, r2
 8001ab0:	00db      	lsls	r3, r3, #3
 8001ab2:	440b      	add	r3, r1
 8001ab4:	f203 136b 	addw	r3, r3, #363	; 0x16b
 8001ab8:	2200      	movs	r2, #0
 8001aba:	701a      	strb	r2, [r3, #0]
    hpcd->OUT_ep[i].maxpacket = 0U;
 8001abc:	7bfa      	ldrb	r2, [r7, #15]
 8001abe:	6879      	ldr	r1, [r7, #4]
 8001ac0:	4613      	mov	r3, r2
 8001ac2:	009b      	lsls	r3, r3, #2
 8001ac4:	4413      	add	r3, r2
 8001ac6:	00db      	lsls	r3, r3, #3
 8001ac8:	440b      	add	r3, r1
 8001aca:	f503 73bc 	add.w	r3, r3, #376	; 0x178
 8001ace:	2200      	movs	r2, #0
 8001ad0:	601a      	str	r2, [r3, #0]
    hpcd->OUT_ep[i].xfer_buff = 0U;
 8001ad2:	7bfa      	ldrb	r2, [r7, #15]
 8001ad4:	6879      	ldr	r1, [r7, #4]
 8001ad6:	4613      	mov	r3, r2
 8001ad8:	009b      	lsls	r3, r3, #2
 8001ada:	4413      	add	r3, r2
 8001adc:	00db      	lsls	r3, r3, #3
 8001ade:	440b      	add	r3, r1
 8001ae0:	f503 73be 	add.w	r3, r3, #380	; 0x17c
 8001ae4:	2200      	movs	r2, #0
 8001ae6:	601a      	str	r2, [r3, #0]
    hpcd->OUT_ep[i].xfer_len = 0U;
 8001ae8:	7bfa      	ldrb	r2, [r7, #15]
 8001aea:	6879      	ldr	r1, [r7, #4]
 8001aec:	4613      	mov	r3, r2
 8001aee:	009b      	lsls	r3, r3, #2
 8001af0:	4413      	add	r3, r2
 8001af2:	00db      	lsls	r3, r3, #3
 8001af4:	440b      	add	r3, r1
 8001af6:	f503 73c0 	add.w	r3, r3, #384	; 0x180
 8001afa:	2200      	movs	r2, #0
 8001afc:	601a      	str	r2, [r3, #0]
  for (i = 0U; i < hpcd->Init.dev_endpoints; i++)
 8001afe:	7bfb      	ldrb	r3, [r7, #15]
 8001b00:	3301      	adds	r3, #1
 8001b02:	73fb      	strb	r3, [r7, #15]
 8001b04:	7bfa      	ldrb	r2, [r7, #15]
 8001b06:	687b      	ldr	r3, [r7, #4]
 8001b08:	685b      	ldr	r3, [r3, #4]
 8001b0a:	429a      	cmp	r2, r3
 8001b0c:	d3b5      	bcc.n	8001a7a <HAL_PCD_Init+0xee>
  }

  /* Init Device */
  (void)USB_DevInit(hpcd->Instance, hpcd->Init);
 8001b0e:	687b      	ldr	r3, [r7, #4]
 8001b10:	681b      	ldr	r3, [r3, #0]
 8001b12:	603b      	str	r3, [r7, #0]
 8001b14:	687e      	ldr	r6, [r7, #4]
 8001b16:	466d      	mov	r5, sp
 8001b18:	f106 0410 	add.w	r4, r6, #16
 8001b1c:	cc0f      	ldmia	r4!, {r0, r1, r2, r3}
 8001b1e:	c50f      	stmia	r5!, {r0, r1, r2, r3}
 8001b20:	6823      	ldr	r3, [r4, #0]
 8001b22:	602b      	str	r3, [r5, #0]
 8001b24:	1d33      	adds	r3, r6, #4
 8001b26:	cb0e      	ldmia	r3, {r1, r2, r3}
 8001b28:	6838      	ldr	r0, [r7, #0]
 8001b2a:	f003 fd81 	bl	8005630 <USB_DevInit>

  hpcd->USB_Address = 0U;
 8001b2e:	687b      	ldr	r3, [r7, #4]
 8001b30:	2200      	movs	r2, #0
 8001b32:	f883 2024 	strb.w	r2, [r3, #36]	; 0x24
  hpcd->State = HAL_PCD_STATE_READY;
 8001b36:	687b      	ldr	r3, [r7, #4]
 8001b38:	2201      	movs	r2, #1
 8001b3a:	f883 22a9 	strb.w	r2, [r3, #681]	; 0x2a9
  
  /* Activate LPM */
  if (hpcd->Init.lpm_enable == 1U)
 8001b3e:	687b      	ldr	r3, [r7, #4]
 8001b40:	69db      	ldr	r3, [r3, #28]
 8001b42:	2b01      	cmp	r3, #1
 8001b44:	d102      	bne.n	8001b4c <HAL_PCD_Init+0x1c0>
  {
    (void)HAL_PCDEx_ActivateLPM(hpcd);
 8001b46:	6878      	ldr	r0, [r7, #4]
 8001b48:	f001 fa5e 	bl	8003008 <HAL_PCDEx_ActivateLPM>
  }
  
  return HAL_OK;
 8001b4c:	2300      	movs	r3, #0
}
 8001b4e:	4618      	mov	r0, r3
 8001b50:	3714      	adds	r7, #20
 8001b52:	46bd      	mov	sp, r7
 8001b54:	bdf0      	pop	{r4, r5, r6, r7, pc}

08001b56 <HAL_PCD_Start>:
  * @brief  Start the USB device
  * @param  hpcd PCD handle
  * @retval HAL status
  */
HAL_StatusTypeDef HAL_PCD_Start(PCD_HandleTypeDef *hpcd)
{
 8001b56:	b580      	push	{r7, lr}
 8001b58:	b082      	sub	sp, #8
 8001b5a:	af00      	add	r7, sp, #0
 8001b5c:	6078      	str	r0, [r7, #4]
  __HAL_LOCK(hpcd);
 8001b5e:	687b      	ldr	r3, [r7, #4]
 8001b60:	f893 32a8 	ldrb.w	r3, [r3, #680]	; 0x2a8
 8001b64:	2b01      	cmp	r3, #1
 8001b66:	d101      	bne.n	8001b6c <HAL_PCD_Start+0x16>
 8001b68:	2302      	movs	r3, #2
 8001b6a:	e012      	b.n	8001b92 <HAL_PCD_Start+0x3c>
 8001b6c:	687b      	ldr	r3, [r7, #4]
 8001b6e:	2201      	movs	r2, #1
 8001b70:	f883 22a8 	strb.w	r2, [r3, #680]	; 0x2a8
  __HAL_PCD_ENABLE(hpcd);
 8001b74:	687b      	ldr	r3, [r7, #4]
 8001b76:	681b      	ldr	r3, [r3, #0]
 8001b78:	4618      	mov	r0, r3
 8001b7a:	f003 fd27 	bl	80055cc <USB_EnableGlobalInt>
  (void)USB_DevConnect(hpcd->Instance);
 8001b7e:	687b      	ldr	r3, [r7, #4]
 8001b80:	681b      	ldr	r3, [r3, #0]
 8001b82:	4618      	mov	r0, r3
 8001b84:	f005 fd13 	bl	80075ae <USB_DevConnect>
  __HAL_UNLOCK(hpcd);
 8001b88:	687b      	ldr	r3, [r7, #4]
 8001b8a:	2200      	movs	r2, #0
 8001b8c:	f883 22a8 	strb.w	r2, [r3, #680]	; 0x2a8

  return HAL_OK;
 8001b90:	2300      	movs	r3, #0
}
 8001b92:	4618      	mov	r0, r3
 8001b94:	3708      	adds	r7, #8
 8001b96:	46bd      	mov	sp, r7
 8001b98:	bd80      	pop	{r7, pc}

08001b9a <HAL_PCD_IRQHandler>:
  * @brief  This function handles PCD interrupt request.
  * @param  hpcd PCD handle
  * @retval HAL status
  */
void HAL_PCD_IRQHandler(PCD_HandleTypeDef *hpcd)
{
 8001b9a:	b580      	push	{r7, lr}
 8001b9c:	b082      	sub	sp, #8
 8001b9e:	af00      	add	r7, sp, #0
 8001ba0:	6078      	str	r0, [r7, #4]
  if (__HAL_PCD_GET_FLAG(hpcd, USB_ISTR_CTR))
 8001ba2:	687b      	ldr	r3, [r7, #4]
 8001ba4:	681b      	ldr	r3, [r3, #0]
 8001ba6:	4618      	mov	r0, r3
 8001ba8:	f005 fd18 	bl	80075dc <USB_ReadInterrupts>
 8001bac:	4603      	mov	r3, r0
 8001bae:	f403 4300 	and.w	r3, r3, #32768	; 0x8000
 8001bb2:	f5b3 4f00 	cmp.w	r3, #32768	; 0x8000
 8001bb6:	d102      	bne.n	8001bbe <HAL_PCD_IRQHandler+0x24>
  {
    /* servicing of the endpoint correct transfer interrupt */
    /* clear of the CTR flag into the sub */
    (void)PCD_EP_ISR_Handler(hpcd);
 8001bb8:	6878      	ldr	r0, [r7, #4]
 8001bba:	f000 fb5b 	bl	8002274 <PCD_EP_ISR_Handler>
  }

  if (__HAL_PCD_GET_FLAG(hpcd, USB_ISTR_RESET))
 8001bbe:	687b      	ldr	r3, [r7, #4]
 8001bc0:	681b      	ldr	r3, [r3, #0]
 8001bc2:	4618      	mov	r0, r3
 8001bc4:	f005 fd0a 	bl	80075dc <USB_ReadInterrupts>
 8001bc8:	4603      	mov	r3, r0
 8001bca:	f403 6380 	and.w	r3, r3, #1024	; 0x400
 8001bce:	f5b3 6f80 	cmp.w	r3, #1024	; 0x400
 8001bd2:	d112      	bne.n	8001bfa <HAL_PCD_IRQHandler+0x60>
  {
    __HAL_PCD_CLEAR_FLAG(hpcd, USB_ISTR_RESET);
 8001bd4:	687b      	ldr	r3, [r7, #4]
 8001bd6:	681b      	ldr	r3, [r3, #0]
 8001bd8:	f8b3 3044 	ldrh.w	r3, [r3, #68]	; 0x44
 8001bdc:	b29a      	uxth	r2, r3
 8001bde:	687b      	ldr	r3, [r7, #4]
 8001be0:	681b      	ldr	r3, [r3, #0]
 8001be2:	f422 6280 	bic.w	r2, r2, #1024	; 0x400
 8001be6:	b292      	uxth	r2, r2
 8001be8:	f8a3 2044 	strh.w	r2, [r3, #68]	; 0x44

#if (USE_HAL_PCD_REGISTER_CALLBACKS == 1U)
    hpcd->ResetCallback(hpcd);
#else
    HAL_PCD_ResetCallback(hpcd);
 8001bec:	6878      	ldr	r0, [r7, #4]
 8001bee:	f007 fc1a 	bl	8009426 <HAL_PCD_ResetCallback>
#endif /* USE_HAL_PCD_REGISTER_CALLBACKS */

    (void)HAL_PCD_SetAddress(hpcd, 0U);
 8001bf2:	2100      	movs	r1, #0
 8001bf4:	6878      	ldr	r0, [r7, #4]
 8001bf6:	f000 f91e 	bl	8001e36 <HAL_PCD_SetAddress>
  }

  if (__HAL_PCD_GET_FLAG(hpcd, USB_ISTR_PMAOVR))
 8001bfa:	687b      	ldr	r3, [r7, #4]
 8001bfc:	681b      	ldr	r3, [r3, #0]
 8001bfe:	4618      	mov	r0, r3
 8001c00:	f005 fcec 	bl	80075dc <USB_ReadInterrupts>
 8001c04:	4603      	mov	r3, r0
 8001c06:	f403 4380 	and.w	r3, r3, #16384	; 0x4000
 8001c0a:	f5b3 4f80 	cmp.w	r3, #16384	; 0x4000
 8001c0e:	d10b      	bne.n	8001c28 <HAL_PCD_IRQHandler+0x8e>
  {
    __HAL_PCD_CLEAR_FLAG(hpcd, USB_ISTR_PMAOVR);
 8001c10:	687b      	ldr	r3, [r7, #4]
 8001c12:	681b      	ldr	r3, [r3, #0]
 8001c14:	f8b3 3044 	ldrh.w	r3, [r3, #68]	; 0x44
 8001c18:	b29a      	uxth	r2, r3
 8001c1a:	687b      	ldr	r3, [r7, #4]
 8001c1c:	681b      	ldr	r3, [r3, #0]
 8001c1e:	f422 4280 	bic.w	r2, r2, #16384	; 0x4000
 8001c22:	b292      	uxth	r2, r2
 8001c24:	f8a3 2044 	strh.w	r2, [r3, #68]	; 0x44
  }

  if (__HAL_PCD_GET_FLAG(hpcd, USB_ISTR_ERR))
 8001c28:	687b      	ldr	r3, [r7, #4]
 8001c2a:	681b      	ldr	r3, [r3, #0]
 8001c2c:	4618      	mov	r0, r3
 8001c2e:	f005 fcd5 	bl	80075dc <USB_ReadInterrupts>
 8001c32:	4603      	mov	r3, r0
 8001c34:	f403 5300 	and.w	r3, r3, #8192	; 0x2000
 8001c38:	f5b3 5f00 	cmp.w	r3, #8192	; 0x2000
 8001c3c:	d10b      	bne.n	8001c56 <HAL_PCD_IRQHandler+0xbc>
  {
    __HAL_PCD_CLEAR_FLAG(hpcd, USB_ISTR_ERR);
 8001c3e:	687b      	ldr	r3, [r7, #4]
 8001c40:	681b      	ldr	r3, [r3, #0]
 8001c42:	f8b3 3044 	ldrh.w	r3, [r3, #68]	; 0x44
 8001c46:	b29a      	uxth	r2, r3
 8001c48:	687b      	ldr	r3, [r7, #4]
 8001c4a:	681b      	ldr	r3, [r3, #0]
 8001c4c:	f422 5200 	bic.w	r2, r2, #8192	; 0x2000
 8001c50:	b292      	uxth	r2, r2
 8001c52:	f8a3 2044 	strh.w	r2, [r3, #68]	; 0x44
  }

  if (__HAL_PCD_GET_FLAG(hpcd, USB_ISTR_WKUP))
 8001c56:	687b      	ldr	r3, [r7, #4]
 8001c58:	681b      	ldr	r3, [r3, #0]
 8001c5a:	4618      	mov	r0, r3
 8001c5c:	f005 fcbe 	bl	80075dc <USB_ReadInterrupts>
 8001c60:	4603      	mov	r3, r0
 8001c62:	f403 5380 	and.w	r3, r3, #4096	; 0x1000
 8001c66:	f5b3 5f80 	cmp.w	r3, #4096	; 0x1000
 8001c6a:	d133      	bne.n	8001cd4 <HAL_PCD_IRQHandler+0x13a>
  {
    hpcd->Instance->CNTR &= (uint16_t) ~(USB_CNTR_LPMODE);
 8001c6c:	687b      	ldr	r3, [r7, #4]
 8001c6e:	681b      	ldr	r3, [r3, #0]
 8001c70:	f8b3 3040 	ldrh.w	r3, [r3, #64]	; 0x40
 8001c74:	b29a      	uxth	r2, r3
 8001c76:	687b      	ldr	r3, [r7, #4]
 8001c78:	681b      	ldr	r3, [r3, #0]
 8001c7a:	f022 0204 	bic.w	r2, r2, #4
 8001c7e:	b292      	uxth	r2, r2
 8001c80:	f8a3 2040 	strh.w	r2, [r3, #64]	; 0x40
    hpcd->Instance->CNTR &= (uint16_t) ~(USB_CNTR_FSUSP);
 8001c84:	687b      	ldr	r3, [r7, #4]
 8001c86:	681b      	ldr	r3, [r3, #0]
 8001c88:	f8b3 3040 	ldrh.w	r3, [r3, #64]	; 0x40
 8001c8c:	b29a      	uxth	r2, r3
 8001c8e:	687b      	ldr	r3, [r7, #4]
 8001c90:	681b      	ldr	r3, [r3, #0]
 8001c92:	f022 0208 	bic.w	r2, r2, #8
 8001c96:	b292      	uxth	r2, r2
 8001c98:	f8a3 2040 	strh.w	r2, [r3, #64]	; 0x40

    if (hpcd->LPM_State == LPM_L1)
 8001c9c:	687b      	ldr	r3, [r7, #4]
 8001c9e:	f893 32e0 	ldrb.w	r3, [r3, #736]	; 0x2e0
 8001ca2:	2b01      	cmp	r3, #1
 8001ca4:	d107      	bne.n	8001cb6 <HAL_PCD_IRQHandler+0x11c>
    {
      hpcd->LPM_State = LPM_L0;
 8001ca6:	687b      	ldr	r3, [r7, #4]
 8001ca8:	2200      	movs	r2, #0
 8001caa:	f883 22e0 	strb.w	r2, [r3, #736]	; 0x2e0
#if (USE_HAL_PCD_REGISTER_CALLBACKS == 1U)
      hpcd->LPMCallback(hpcd, PCD_LPM_L0_ACTIVE);
#else
      HAL_PCDEx_LPM_Callback(hpcd, PCD_LPM_L0_ACTIVE);
 8001cae:	2100      	movs	r1, #0
 8001cb0:	6878      	ldr	r0, [r7, #4]
 8001cb2:	f007 fdad 	bl	8009810 <HAL_PCDEx_LPM_Callback>
    }

#if (USE_HAL_PCD_REGISTER_CALLBACKS == 1U)
    hpcd->ResumeCallback(hpcd);
#else
    HAL_PCD_ResumeCallback(hpcd);
 8001cb6:	6878      	ldr	r0, [r7, #4]
 8001cb8:	f007 fbee 	bl	8009498 <HAL_PCD_ResumeCallback>
#endif /* USE_HAL_PCD_REGISTER_CALLBACKS */

    __HAL_PCD_CLEAR_FLAG(hpcd, USB_ISTR_WKUP);
 8001cbc:	687b      	ldr	r3, [r7, #4]
 8001cbe:	681b      	ldr	r3, [r3, #0]
 8001cc0:	f8b3 3044 	ldrh.w	r3, [r3, #68]	; 0x44
 8001cc4:	b29a      	uxth	r2, r3
 8001cc6:	687b      	ldr	r3, [r7, #4]
 8001cc8:	681b      	ldr	r3, [r3, #0]
 8001cca:	f422 5280 	bic.w	r2, r2, #4096	; 0x1000
 8001cce:	b292      	uxth	r2, r2
 8001cd0:	f8a3 2044 	strh.w	r2, [r3, #68]	; 0x44
  }

  if (__HAL_PCD_GET_FLAG(hpcd, USB_ISTR_SUSP))
 8001cd4:	687b      	ldr	r3, [r7, #4]
 8001cd6:	681b      	ldr	r3, [r3, #0]
 8001cd8:	4618      	mov	r0, r3
 8001cda:	f005 fc7f 	bl	80075dc <USB_ReadInterrupts>
 8001cde:	4603      	mov	r3, r0
 8001ce0:	f403 6300 	and.w	r3, r3, #2048	; 0x800
 8001ce4:	f5b3 6f00 	cmp.w	r3, #2048	; 0x800
 8001ce8:	d126      	bne.n	8001d38 <HAL_PCD_IRQHandler+0x19e>
  {
    /* Force low-power mode in the macrocell */
    hpcd->Instance->CNTR |= (uint16_t)USB_CNTR_FSUSP;
 8001cea:	687b      	ldr	r3, [r7, #4]
 8001cec:	681b      	ldr	r3, [r3, #0]
 8001cee:	f8b3 3040 	ldrh.w	r3, [r3, #64]	; 0x40
 8001cf2:	b29a      	uxth	r2, r3
 8001cf4:	687b      	ldr	r3, [r7, #4]
 8001cf6:	681b      	ldr	r3, [r3, #0]
 8001cf8:	f042 0208 	orr.w	r2, r2, #8
 8001cfc:	b292      	uxth	r2, r2
 8001cfe:	f8a3 2040 	strh.w	r2, [r3, #64]	; 0x40

    /* clear of the ISTR bit must be done after setting of CNTR_FSUSP */
    __HAL_PCD_CLEAR_FLAG(hpcd, USB_ISTR_SUSP);
 8001d02:	687b      	ldr	r3, [r7, #4]
 8001d04:	681b      	ldr	r3, [r3, #0]
 8001d06:	f8b3 3044 	ldrh.w	r3, [r3, #68]	; 0x44
 8001d0a:	b29a      	uxth	r2, r3
 8001d0c:	687b      	ldr	r3, [r7, #4]
 8001d0e:	681b      	ldr	r3, [r3, #0]
 8001d10:	f422 6200 	bic.w	r2, r2, #2048	; 0x800
 8001d14:	b292      	uxth	r2, r2
 8001d16:	f8a3 2044 	strh.w	r2, [r3, #68]	; 0x44

    hpcd->Instance->CNTR |= (uint16_t)USB_CNTR_LPMODE;
 8001d1a:	687b      	ldr	r3, [r7, #4]
 8001d1c:	681b      	ldr	r3, [r3, #0]
 8001d1e:	f8b3 3040 	ldrh.w	r3, [r3, #64]	; 0x40
 8001d22:	b29a      	uxth	r2, r3
 8001d24:	687b      	ldr	r3, [r7, #4]
 8001d26:	681b      	ldr	r3, [r3, #0]
 8001d28:	f042 0204 	orr.w	r2, r2, #4
 8001d2c:	b292      	uxth	r2, r2
 8001d2e:	f8a3 2040 	strh.w	r2, [r3, #64]	; 0x40

#if (USE_HAL_PCD_REGISTER_CALLBACKS == 1U)
    hpcd->SuspendCallback(hpcd);
#else
    HAL_PCD_SuspendCallback(hpcd);
 8001d32:	6878      	ldr	r0, [r7, #4]
 8001d34:	f007 fb96 	bl	8009464 <HAL_PCD_SuspendCallback>
#endif /* USE_HAL_PCD_REGISTER_CALLBACKS */
  }

  /* Handle LPM Interrupt */
  if (__HAL_PCD_GET_FLAG(hpcd, USB_ISTR_L1REQ))
 8001d38:	687b      	ldr	r3, [r7, #4]
 8001d3a:	681b      	ldr	r3, [r3, #0]
 8001d3c:	4618      	mov	r0, r3
 8001d3e:	f005 fc4d 	bl	80075dc <USB_ReadInterrupts>
 8001d42:	4603      	mov	r3, r0
 8001d44:	f003 0380 	and.w	r3, r3, #128	; 0x80
 8001d48:	2b80      	cmp	r3, #128	; 0x80
 8001d4a:	d13f      	bne.n	8001dcc <HAL_PCD_IRQHandler+0x232>
  {
    __HAL_PCD_CLEAR_FLAG(hpcd, USB_ISTR_L1REQ);
 8001d4c:	687b      	ldr	r3, [r7, #4]
 8001d4e:	681b      	ldr	r3, [r3, #0]
 8001d50:	f8b3 3044 	ldrh.w	r3, [r3, #68]	; 0x44
 8001d54:	b29a      	uxth	r2, r3
 8001d56:	687b      	ldr	r3, [r7, #4]
 8001d58:	681b      	ldr	r3, [r3, #0]
 8001d5a:	f022 0280 	bic.w	r2, r2, #128	; 0x80
 8001d5e:	b292      	uxth	r2, r2
 8001d60:	f8a3 2044 	strh.w	r2, [r3, #68]	; 0x44
    if (hpcd->LPM_State == LPM_L0)
 8001d64:	687b      	ldr	r3, [r7, #4]
 8001d66:	f893 32e0 	ldrb.w	r3, [r3, #736]	; 0x2e0
 8001d6a:	2b00      	cmp	r3, #0
 8001d6c:	d12b      	bne.n	8001dc6 <HAL_PCD_IRQHandler+0x22c>
    {
      /* Force suspend and low-power mode before going to L1 state*/
      hpcd->Instance->CNTR |= (uint16_t)USB_CNTR_LPMODE;
 8001d6e:	687b      	ldr	r3, [r7, #4]
 8001d70:	681b      	ldr	r3, [r3, #0]
 8001d72:	f8b3 3040 	ldrh.w	r3, [r3, #64]	; 0x40
 8001d76:	b29a      	uxth	r2, r3
 8001d78:	687b      	ldr	r3, [r7, #4]
 8001d7a:	681b      	ldr	r3, [r3, #0]
 8001d7c:	f042 0204 	orr.w	r2, r2, #4
 8001d80:	b292      	uxth	r2, r2
 8001d82:	f8a3 2040 	strh.w	r2, [r3, #64]	; 0x40
      hpcd->Instance->CNTR |= (uint16_t)USB_CNTR_FSUSP;
 8001d86:	687b      	ldr	r3, [r7, #4]
 8001d88:	681b      	ldr	r3, [r3, #0]
 8001d8a:	f8b3 3040 	ldrh.w	r3, [r3, #64]	; 0x40
 8001d8e:	b29a      	uxth	r2, r3
 8001d90:	687b      	ldr	r3, [r7, #4]
 8001d92:	681b      	ldr	r3, [r3, #0]
 8001d94:	f042 0208 	orr.w	r2, r2, #8
 8001d98:	b292      	uxth	r2, r2
 8001d9a:	f8a3 2040 	strh.w	r2, [r3, #64]	; 0x40

      hpcd->LPM_State = LPM_L1;
 8001d9e:	687b      	ldr	r3, [r7, #4]
 8001da0:	2201      	movs	r2, #1
 8001da2:	f883 22e0 	strb.w	r2, [r3, #736]	; 0x2e0
      hpcd->BESL = ((uint32_t)hpcd->Instance->LPMCSR & USB_LPMCSR_BESL) >> 2;
 8001da6:	687b      	ldr	r3, [r7, #4]
 8001da8:	681b      	ldr	r3, [r3, #0]
 8001daa:	f8b3 3054 	ldrh.w	r3, [r3, #84]	; 0x54
 8001dae:	b29b      	uxth	r3, r3
 8001db0:	089b      	lsrs	r3, r3, #2
 8001db2:	f003 023c 	and.w	r2, r3, #60	; 0x3c
 8001db6:	687b      	ldr	r3, [r7, #4]
 8001db8:	f8c3 22e4 	str.w	r2, [r3, #740]	; 0x2e4
#if (USE_HAL_PCD_REGISTER_CALLBACKS == 1U)
      hpcd->LPMCallback(hpcd, PCD_LPM_L1_ACTIVE);
#else
      HAL_PCDEx_LPM_Callback(hpcd, PCD_LPM_L1_ACTIVE);
 8001dbc:	2101      	movs	r1, #1
 8001dbe:	6878      	ldr	r0, [r7, #4]
 8001dc0:	f007 fd26 	bl	8009810 <HAL_PCDEx_LPM_Callback>
 8001dc4:	e002      	b.n	8001dcc <HAL_PCD_IRQHandler+0x232>
    else
    {
#if (USE_HAL_PCD_REGISTER_CALLBACKS == 1U)
      hpcd->SuspendCallback(hpcd);
#else
      HAL_PCD_SuspendCallback(hpcd);
 8001dc6:	6878      	ldr	r0, [r7, #4]
 8001dc8:	f007 fb4c 	bl	8009464 <HAL_PCD_SuspendCallback>
#endif /* USE_HAL_PCD_REGISTER_CALLBACKS */
    }
  }

  if (__HAL_PCD_GET_FLAG(hpcd, USB_ISTR_SOF))
 8001dcc:	687b      	ldr	r3, [r7, #4]
 8001dce:	681b      	ldr	r3, [r3, #0]
 8001dd0:	4618      	mov	r0, r3
 8001dd2:	f005 fc03 	bl	80075dc <USB_ReadInterrupts>
 8001dd6:	4603      	mov	r3, r0
 8001dd8:	f403 7300 	and.w	r3, r3, #512	; 0x200
 8001ddc:	f5b3 7f00 	cmp.w	r3, #512	; 0x200
 8001de0:	d10e      	bne.n	8001e00 <HAL_PCD_IRQHandler+0x266>
  {
    __HAL_PCD_CLEAR_FLAG(hpcd, USB_ISTR_SOF);
 8001de2:	687b      	ldr	r3, [r7, #4]
 8001de4:	681b      	ldr	r3, [r3, #0]
 8001de6:	f8b3 3044 	ldrh.w	r3, [r3, #68]	; 0x44
 8001dea:	b29a      	uxth	r2, r3
 8001dec:	687b      	ldr	r3, [r7, #4]
 8001dee:	681b      	ldr	r3, [r3, #0]
 8001df0:	f422 7200 	bic.w	r2, r2, #512	; 0x200
 8001df4:	b292      	uxth	r2, r2
 8001df6:	f8a3 2044 	strh.w	r2, [r3, #68]	; 0x44

#if (USE_HAL_PCD_REGISTER_CALLBACKS == 1U)
    hpcd->SOFCallback(hpcd);
#else
    HAL_PCD_SOFCallback(hpcd);
 8001dfa:	6878      	ldr	r0, [r7, #4]
 8001dfc:	f007 fb05 	bl	800940a <HAL_PCD_SOFCallback>
#endif /* USE_HAL_PCD_REGISTER_CALLBACKS */
  }

  if (__HAL_PCD_GET_FLAG(hpcd, USB_ISTR_ESOF))
 8001e00:	687b      	ldr	r3, [r7, #4]
 8001e02:	681b      	ldr	r3, [r3, #0]
 8001e04:	4618      	mov	r0, r3
 8001e06:	f005 fbe9 	bl	80075dc <USB_ReadInterrupts>
 8001e0a:	4603      	mov	r3, r0
 8001e0c:	f403 7380 	and.w	r3, r3, #256	; 0x100
 8001e10:	f5b3 7f80 	cmp.w	r3, #256	; 0x100
 8001e14:	d10b      	bne.n	8001e2e <HAL_PCD_IRQHandler+0x294>
  {
    /* clear ESOF flag in ISTR */
    __HAL_PCD_CLEAR_FLAG(hpcd, USB_ISTR_ESOF);
 8001e16:	687b      	ldr	r3, [r7, #4]
 8001e18:	681b      	ldr	r3, [r3, #0]
 8001e1a:	f8b3 3044 	ldrh.w	r3, [r3, #68]	; 0x44
 8001e1e:	b29a      	uxth	r2, r3
 8001e20:	687b      	ldr	r3, [r7, #4]
 8001e22:	681b      	ldr	r3, [r3, #0]
 8001e24:	f422 7280 	bic.w	r2, r2, #256	; 0x100
 8001e28:	b292      	uxth	r2, r2
 8001e2a:	f8a3 2044 	strh.w	r2, [r3, #68]	; 0x44
  }
}
 8001e2e:	bf00      	nop
 8001e30:	3708      	adds	r7, #8
 8001e32:	46bd      	mov	sp, r7
 8001e34:	bd80      	pop	{r7, pc}

08001e36 <HAL_PCD_SetAddress>:
  * @param  hpcd PCD handle
  * @param  address new device address
  * @retval HAL status
  */
HAL_StatusTypeDef HAL_PCD_SetAddress(PCD_HandleTypeDef *hpcd, uint8_t address)
{
 8001e36:	b580      	push	{r7, lr}
 8001e38:	b082      	sub	sp, #8
 8001e3a:	af00      	add	r7, sp, #0
 8001e3c:	6078      	str	r0, [r7, #4]
 8001e3e:	460b      	mov	r3, r1
 8001e40:	70fb      	strb	r3, [r7, #3]
  __HAL_LOCK(hpcd);
 8001e42:	687b      	ldr	r3, [r7, #4]
 8001e44:	f893 32a8 	ldrb.w	r3, [r3, #680]	; 0x2a8
 8001e48:	2b01      	cmp	r3, #1
 8001e4a:	d101      	bne.n	8001e50 <HAL_PCD_SetAddress+0x1a>
 8001e4c:	2302      	movs	r3, #2
 8001e4e:	e013      	b.n	8001e78 <HAL_PCD_SetAddress+0x42>
 8001e50:	687b      	ldr	r3, [r7, #4]
 8001e52:	2201      	movs	r2, #1
 8001e54:	f883 22a8 	strb.w	r2, [r3, #680]	; 0x2a8
  hpcd->USB_Address = address;
 8001e58:	687b      	ldr	r3, [r7, #4]
 8001e5a:	78fa      	ldrb	r2, [r7, #3]
 8001e5c:	f883 2024 	strb.w	r2, [r3, #36]	; 0x24
  (void)USB_SetDevAddress(hpcd->Instance, address);
 8001e60:	687b      	ldr	r3, [r7, #4]
 8001e62:	681b      	ldr	r3, [r3, #0]
 8001e64:	78fa      	ldrb	r2, [r7, #3]
 8001e66:	4611      	mov	r1, r2
 8001e68:	4618      	mov	r0, r3
 8001e6a:	f005 fb8c 	bl	8007586 <USB_SetDevAddress>
  __HAL_UNLOCK(hpcd);
 8001e6e:	687b      	ldr	r3, [r7, #4]
 8001e70:	2200      	movs	r2, #0
 8001e72:	f883 22a8 	strb.w	r2, [r3, #680]	; 0x2a8

  return HAL_OK;
 8001e76:	2300      	movs	r3, #0
}
 8001e78:	4618      	mov	r0, r3
 8001e7a:	3708      	adds	r7, #8
 8001e7c:	46bd      	mov	sp, r7
 8001e7e:	bd80      	pop	{r7, pc}

08001e80 <HAL_PCD_EP_Open>:
  * @param  ep_mps endpoint max packet size
  * @param  ep_type endpoint type
  * @retval HAL status
  */
HAL_StatusTypeDef HAL_PCD_EP_Open(PCD_HandleTypeDef *hpcd, uint8_t ep_addr, uint16_t ep_mps, uint8_t ep_type)
{
 8001e80:	b580      	push	{r7, lr}
 8001e82:	b084      	sub	sp, #16
 8001e84:	af00      	add	r7, sp, #0
 8001e86:	6078      	str	r0, [r7, #4]
 8001e88:	4608      	mov	r0, r1
 8001e8a:	4611      	mov	r1, r2
 8001e8c:	461a      	mov	r2, r3
 8001e8e:	4603      	mov	r3, r0
 8001e90:	70fb      	strb	r3, [r7, #3]
 8001e92:	460b      	mov	r3, r1
 8001e94:	803b      	strh	r3, [r7, #0]
 8001e96:	4613      	mov	r3, r2
 8001e98:	70bb      	strb	r3, [r7, #2]
  HAL_StatusTypeDef  ret = HAL_OK;
 8001e9a:	2300      	movs	r3, #0
 8001e9c:	72fb      	strb	r3, [r7, #11]
  PCD_EPTypeDef *ep;

  if ((ep_addr & 0x80U) == 0x80U)
 8001e9e:	f997 3003 	ldrsb.w	r3, [r7, #3]
 8001ea2:	2b00      	cmp	r3, #0
 8001ea4:	da0e      	bge.n	8001ec4 <HAL_PCD_EP_Open+0x44>
  {
    ep = &hpcd->IN_ep[ep_addr & EP_ADDR_MSK];
 8001ea6:	78fb      	ldrb	r3, [r7, #3]
 8001ea8:	f003 0307 	and.w	r3, r3, #7
 8001eac:	1c5a      	adds	r2, r3, #1
 8001eae:	4613      	mov	r3, r2
 8001eb0:	009b      	lsls	r3, r3, #2
 8001eb2:	4413      	add	r3, r2
 8001eb4:	00db      	lsls	r3, r3, #3
 8001eb6:	687a      	ldr	r2, [r7, #4]
 8001eb8:	4413      	add	r3, r2
 8001eba:	60fb      	str	r3, [r7, #12]
    ep->is_in = 1U;
 8001ebc:	68fb      	ldr	r3, [r7, #12]
 8001ebe:	2201      	movs	r2, #1
 8001ec0:	705a      	strb	r2, [r3, #1]
 8001ec2:	e00e      	b.n	8001ee2 <HAL_PCD_EP_Open+0x62>
  }
  else
  {
    ep = &hpcd->OUT_ep[ep_addr & EP_ADDR_MSK];
 8001ec4:	78fb      	ldrb	r3, [r7, #3]
 8001ec6:	f003 0207 	and.w	r2, r3, #7
 8001eca:	4613      	mov	r3, r2
 8001ecc:	009b      	lsls	r3, r3, #2
 8001ece:	4413      	add	r3, r2
 8001ed0:	00db      	lsls	r3, r3, #3
 8001ed2:	f503 73b4 	add.w	r3, r3, #360	; 0x168
 8001ed6:	687a      	ldr	r2, [r7, #4]
 8001ed8:	4413      	add	r3, r2
 8001eda:	60fb      	str	r3, [r7, #12]
    ep->is_in = 0U;
 8001edc:	68fb      	ldr	r3, [r7, #12]
 8001ede:	2200      	movs	r2, #0
 8001ee0:	705a      	strb	r2, [r3, #1]
  }

  ep->num = ep_addr & EP_ADDR_MSK;
 8001ee2:	78fb      	ldrb	r3, [r7, #3]
 8001ee4:	f003 0307 	and.w	r3, r3, #7
 8001ee8:	b2da      	uxtb	r2, r3
 8001eea:	68fb      	ldr	r3, [r7, #12]
 8001eec:	701a      	strb	r2, [r3, #0]
  ep->maxpacket = ep_mps;
 8001eee:	883a      	ldrh	r2, [r7, #0]
 8001ef0:	68fb      	ldr	r3, [r7, #12]
 8001ef2:	611a      	str	r2, [r3, #16]
  ep->type = ep_type;
 8001ef4:	68fb      	ldr	r3, [r7, #12]
 8001ef6:	78ba      	ldrb	r2, [r7, #2]
 8001ef8:	70da      	strb	r2, [r3, #3]

  if (ep->is_in != 0U)
 8001efa:	68fb      	ldr	r3, [r7, #12]
 8001efc:	785b      	ldrb	r3, [r3, #1]
 8001efe:	2b00      	cmp	r3, #0
 8001f00:	d004      	beq.n	8001f0c <HAL_PCD_EP_Open+0x8c>
  {
    /* Assign a Tx FIFO */
    ep->tx_fifo_num = ep->num;
 8001f02:	68fb      	ldr	r3, [r7, #12]
 8001f04:	781b      	ldrb	r3, [r3, #0]
 8001f06:	b29a      	uxth	r2, r3
 8001f08:	68fb      	ldr	r3, [r7, #12]
 8001f0a:	81da      	strh	r2, [r3, #14]
  }
  /* Set initial data PID. */
  if (ep_type == EP_TYPE_BULK)
 8001f0c:	78bb      	ldrb	r3, [r7, #2]
 8001f0e:	2b02      	cmp	r3, #2
 8001f10:	d102      	bne.n	8001f18 <HAL_PCD_EP_Open+0x98>
  {
    ep->data_pid_start = 0U;
 8001f12:	68fb      	ldr	r3, [r7, #12]
 8001f14:	2200      	movs	r2, #0
 8001f16:	711a      	strb	r2, [r3, #4]
  }

  __HAL_LOCK(hpcd);
 8001f18:	687b      	ldr	r3, [r7, #4]
 8001f1a:	f893 32a8 	ldrb.w	r3, [r3, #680]	; 0x2a8
 8001f1e:	2b01      	cmp	r3, #1
 8001f20:	d101      	bne.n	8001f26 <HAL_PCD_EP_Open+0xa6>
 8001f22:	2302      	movs	r3, #2
 8001f24:	e00e      	b.n	8001f44 <HAL_PCD_EP_Open+0xc4>
 8001f26:	687b      	ldr	r3, [r7, #4]
 8001f28:	2201      	movs	r2, #1
 8001f2a:	f883 22a8 	strb.w	r2, [r3, #680]	; 0x2a8
  (void)USB_ActivateEndpoint(hpcd->Instance, ep);
 8001f2e:	687b      	ldr	r3, [r7, #4]
 8001f30:	681b      	ldr	r3, [r3, #0]
 8001f32:	68f9      	ldr	r1, [r7, #12]
 8001f34:	4618      	mov	r0, r3
 8001f36:	f003 fb9d 	bl	8005674 <USB_ActivateEndpoint>
  __HAL_UNLOCK(hpcd);
 8001f3a:	687b      	ldr	r3, [r7, #4]
 8001f3c:	2200      	movs	r2, #0
 8001f3e:	f883 22a8 	strb.w	r2, [r3, #680]	; 0x2a8

  return ret;
 8001f42:	7afb      	ldrb	r3, [r7, #11]
}
 8001f44:	4618      	mov	r0, r3
 8001f46:	3710      	adds	r7, #16
 8001f48:	46bd      	mov	sp, r7
 8001f4a:	bd80      	pop	{r7, pc}

08001f4c <HAL_PCD_EP_Close>:
  * @param  hpcd PCD handle
  * @param  ep_addr endpoint address
  * @retval HAL status
  */
HAL_StatusTypeDef HAL_PCD_EP_Close(PCD_HandleTypeDef *hpcd, uint8_t ep_addr)
{
 8001f4c:	b580      	push	{r7, lr}
 8001f4e:	b084      	sub	sp, #16
 8001f50:	af00      	add	r7, sp, #0
 8001f52:	6078      	str	r0, [r7, #4]
 8001f54:	460b      	mov	r3, r1
 8001f56:	70fb      	strb	r3, [r7, #3]
  PCD_EPTypeDef *ep;

  if ((ep_addr & 0x80U) == 0x80U)
 8001f58:	f997 3003 	ldrsb.w	r3, [r7, #3]
 8001f5c:	2b00      	cmp	r3, #0
 8001f5e:	da0e      	bge.n	8001f7e <HAL_PCD_EP_Close+0x32>
  {
    ep = &hpcd->IN_ep[ep_addr & EP_ADDR_MSK];
 8001f60:	78fb      	ldrb	r3, [r7, #3]
 8001f62:	f003 0307 	and.w	r3, r3, #7
 8001f66:	1c5a      	adds	r2, r3, #1
 8001f68:	4613      	mov	r3, r2
 8001f6a:	009b      	lsls	r3, r3, #2
 8001f6c:	4413      	add	r3, r2
 8001f6e:	00db      	lsls	r3, r3, #3
 8001f70:	687a      	ldr	r2, [r7, #4]
 8001f72:	4413      	add	r3, r2
 8001f74:	60fb      	str	r3, [r7, #12]
    ep->is_in = 1U;
 8001f76:	68fb      	ldr	r3, [r7, #12]
 8001f78:	2201      	movs	r2, #1
 8001f7a:	705a      	strb	r2, [r3, #1]
 8001f7c:	e00e      	b.n	8001f9c <HAL_PCD_EP_Close+0x50>
  }
  else
  {
    ep = &hpcd->OUT_ep[ep_addr & EP_ADDR_MSK];
 8001f7e:	78fb      	ldrb	r3, [r7, #3]
 8001f80:	f003 0207 	and.w	r2, r3, #7
 8001f84:	4613      	mov	r3, r2
 8001f86:	009b      	lsls	r3, r3, #2
 8001f88:	4413      	add	r3, r2
 8001f8a:	00db      	lsls	r3, r3, #3
 8001f8c:	f503 73b4 	add.w	r3, r3, #360	; 0x168
 8001f90:	687a      	ldr	r2, [r7, #4]
 8001f92:	4413      	add	r3, r2
 8001f94:	60fb      	str	r3, [r7, #12]
    ep->is_in = 0U;
 8001f96:	68fb      	ldr	r3, [r7, #12]
 8001f98:	2200      	movs	r2, #0
 8001f9a:	705a      	strb	r2, [r3, #1]
  }
  ep->num   = ep_addr & EP_ADDR_MSK;
 8001f9c:	78fb      	ldrb	r3, [r7, #3]
 8001f9e:	f003 0307 	and.w	r3, r3, #7
 8001fa2:	b2da      	uxtb	r2, r3
 8001fa4:	68fb      	ldr	r3, [r7, #12]
 8001fa6:	701a      	strb	r2, [r3, #0]

  __HAL_LOCK(hpcd);
 8001fa8:	687b      	ldr	r3, [r7, #4]
 8001faa:	f893 32a8 	ldrb.w	r3, [r3, #680]	; 0x2a8
 8001fae:	2b01      	cmp	r3, #1
 8001fb0:	d101      	bne.n	8001fb6 <HAL_PCD_EP_Close+0x6a>
 8001fb2:	2302      	movs	r3, #2
 8001fb4:	e00e      	b.n	8001fd4 <HAL_PCD_EP_Close+0x88>
 8001fb6:	687b      	ldr	r3, [r7, #4]
 8001fb8:	2201      	movs	r2, #1
 8001fba:	f883 22a8 	strb.w	r2, [r3, #680]	; 0x2a8
  (void)USB_DeactivateEndpoint(hpcd->Instance, ep);
 8001fbe:	687b      	ldr	r3, [r7, #4]
 8001fc0:	681b      	ldr	r3, [r3, #0]
 8001fc2:	68f9      	ldr	r1, [r7, #12]
 8001fc4:	4618      	mov	r0, r3
 8001fc6:	f003 fec3 	bl	8005d50 <USB_DeactivateEndpoint>
  __HAL_UNLOCK(hpcd);
 8001fca:	687b      	ldr	r3, [r7, #4]
 8001fcc:	2200      	movs	r2, #0
 8001fce:	f883 22a8 	strb.w	r2, [r3, #680]	; 0x2a8
  return HAL_OK;
 8001fd2:	2300      	movs	r3, #0
}
 8001fd4:	4618      	mov	r0, r3
 8001fd6:	3710      	adds	r7, #16
 8001fd8:	46bd      	mov	sp, r7
 8001fda:	bd80      	pop	{r7, pc}

08001fdc <HAL_PCD_EP_Receive>:
  * @param  pBuf pointer to the reception buffer
  * @param  len amount of data to be received
  * @retval HAL status
  */
HAL_StatusTypeDef HAL_PCD_EP_Receive(PCD_HandleTypeDef *hpcd, uint8_t ep_addr, uint8_t *pBuf, uint32_t len)
{
 8001fdc:	b580      	push	{r7, lr}
 8001fde:	b086      	sub	sp, #24
 8001fe0:	af00      	add	r7, sp, #0
 8001fe2:	60f8      	str	r0, [r7, #12]
 8001fe4:	607a      	str	r2, [r7, #4]
 8001fe6:	603b      	str	r3, [r7, #0]
 8001fe8:	460b      	mov	r3, r1
 8001fea:	72fb      	strb	r3, [r7, #11]
  PCD_EPTypeDef *ep;

  ep = &hpcd->OUT_ep[ep_addr & EP_ADDR_MSK];
 8001fec:	7afb      	ldrb	r3, [r7, #11]
 8001fee:	f003 0207 	and.w	r2, r3, #7
 8001ff2:	4613      	mov	r3, r2
 8001ff4:	009b      	lsls	r3, r3, #2
 8001ff6:	4413      	add	r3, r2
 8001ff8:	00db      	lsls	r3, r3, #3
 8001ffa:	f503 73b4 	add.w	r3, r3, #360	; 0x168
 8001ffe:	68fa      	ldr	r2, [r7, #12]
 8002000:	4413      	add	r3, r2
 8002002:	617b      	str	r3, [r7, #20]

  /*setup and start the Xfer */
  ep->xfer_buff = pBuf;
 8002004:	697b      	ldr	r3, [r7, #20]
 8002006:	687a      	ldr	r2, [r7, #4]
 8002008:	615a      	str	r2, [r3, #20]
  ep->xfer_len = len;
 800200a:	697b      	ldr	r3, [r7, #20]
 800200c:	683a      	ldr	r2, [r7, #0]
 800200e:	619a      	str	r2, [r3, #24]
  ep->xfer_count = 0U;
 8002010:	697b      	ldr	r3, [r7, #20]
 8002012:	2200      	movs	r2, #0
 8002014:	61da      	str	r2, [r3, #28]
  ep->is_in = 0U;
 8002016:	697b      	ldr	r3, [r7, #20]
 8002018:	2200      	movs	r2, #0
 800201a:	705a      	strb	r2, [r3, #1]
  ep->num = ep_addr & EP_ADDR_MSK;
 800201c:	7afb      	ldrb	r3, [r7, #11]
 800201e:	f003 0307 	and.w	r3, r3, #7
 8002022:	b2da      	uxtb	r2, r3
 8002024:	697b      	ldr	r3, [r7, #20]
 8002026:	701a      	strb	r2, [r3, #0]

  if ((ep_addr & EP_ADDR_MSK) == 0U)
 8002028:	7afb      	ldrb	r3, [r7, #11]
 800202a:	f003 0307 	and.w	r3, r3, #7
 800202e:	2b00      	cmp	r3, #0
 8002030:	d106      	bne.n	8002040 <HAL_PCD_EP_Receive+0x64>
  {
    (void)USB_EP0StartXfer(hpcd->Instance, ep);
 8002032:	68fb      	ldr	r3, [r7, #12]
 8002034:	681b      	ldr	r3, [r3, #0]
 8002036:	6979      	ldr	r1, [r7, #20]
 8002038:	4618      	mov	r0, r3
 800203a:	f004 f876 	bl	800612a <USB_EPStartXfer>
 800203e:	e005      	b.n	800204c <HAL_PCD_EP_Receive+0x70>
  }
  else
  {
    (void)USB_EPStartXfer(hpcd->Instance, ep);
 8002040:	68fb      	ldr	r3, [r7, #12]
 8002042:	681b      	ldr	r3, [r3, #0]
 8002044:	6979      	ldr	r1, [r7, #20]
 8002046:	4618      	mov	r0, r3
 8002048:	f004 f86f 	bl	800612a <USB_EPStartXfer>
  }

  return HAL_OK;
 800204c:	2300      	movs	r3, #0
}
 800204e:	4618      	mov	r0, r3
 8002050:	3718      	adds	r7, #24
 8002052:	46bd      	mov	sp, r7
 8002054:	bd80      	pop	{r7, pc}

08002056 <HAL_PCD_EP_GetRxCount>:
  * @param  hpcd PCD handle
  * @param  ep_addr endpoint address
  * @retval Data Size
  */
uint32_t HAL_PCD_EP_GetRxCount(PCD_HandleTypeDef *hpcd, uint8_t ep_addr)
{
 8002056:	b480      	push	{r7}
 8002058:	b083      	sub	sp, #12
 800205a:	af00      	add	r7, sp, #0
 800205c:	6078      	str	r0, [r7, #4]
 800205e:	460b      	mov	r3, r1
 8002060:	70fb      	strb	r3, [r7, #3]
  return hpcd->OUT_ep[ep_addr & EP_ADDR_MSK].xfer_count;
 8002062:	78fb      	ldrb	r3, [r7, #3]
 8002064:	f003 0207 	and.w	r2, r3, #7
 8002068:	6879      	ldr	r1, [r7, #4]
 800206a:	4613      	mov	r3, r2
 800206c:	009b      	lsls	r3, r3, #2
 800206e:	4413      	add	r3, r2
 8002070:	00db      	lsls	r3, r3, #3
 8002072:	440b      	add	r3, r1
 8002074:	f503 73c2 	add.w	r3, r3, #388	; 0x184
 8002078:	681b      	ldr	r3, [r3, #0]
}
 800207a:	4618      	mov	r0, r3
 800207c:	370c      	adds	r7, #12
 800207e:	46bd      	mov	sp, r7
 8002080:	f85d 7b04 	ldr.w	r7, [sp], #4
 8002084:	4770      	bx	lr

08002086 <HAL_PCD_EP_Transmit>:
  * @param  pBuf pointer to the transmission buffer
  * @param  len amount of data to be sent
  * @retval HAL status
  */
HAL_StatusTypeDef HAL_PCD_EP_Transmit(PCD_HandleTypeDef *hpcd, uint8_t ep_addr, uint8_t *pBuf, uint32_t len)
{
 8002086:	b580      	push	{r7, lr}
 8002088:	b086      	sub	sp, #24
 800208a:	af00      	add	r7, sp, #0
 800208c:	60f8      	str	r0, [r7, #12]
 800208e:	607a      	str	r2, [r7, #4]
 8002090:	603b      	str	r3, [r7, #0]
 8002092:	460b      	mov	r3, r1
 8002094:	72fb      	strb	r3, [r7, #11]
  PCD_EPTypeDef *ep;

  ep = &hpcd->IN_ep[ep_addr & EP_ADDR_MSK];
 8002096:	7afb      	ldrb	r3, [r7, #11]
 8002098:	f003 0307 	and.w	r3, r3, #7
 800209c:	1c5a      	adds	r2, r3, #1
 800209e:	4613      	mov	r3, r2
 80020a0:	009b      	lsls	r3, r3, #2
 80020a2:	4413      	add	r3, r2
 80020a4:	00db      	lsls	r3, r3, #3
 80020a6:	68fa      	ldr	r2, [r7, #12]
 80020a8:	4413      	add	r3, r2
 80020aa:	617b      	str	r3, [r7, #20]

  /*setup and start the Xfer */
  ep->xfer_buff = pBuf;
 80020ac:	697b      	ldr	r3, [r7, #20]
 80020ae:	687a      	ldr	r2, [r7, #4]
 80020b0:	615a      	str	r2, [r3, #20]
  ep->xfer_len = len;
 80020b2:	697b      	ldr	r3, [r7, #20]
 80020b4:	683a      	ldr	r2, [r7, #0]
 80020b6:	619a      	str	r2, [r3, #24]
  ep->xfer_fill_db = 1U;
 80020b8:	697b      	ldr	r3, [r7, #20]
 80020ba:	2201      	movs	r2, #1
 80020bc:	f883 2024 	strb.w	r2, [r3, #36]	; 0x24
  ep->xfer_len_db = len;
 80020c0:	697b      	ldr	r3, [r7, #20]
 80020c2:	683a      	ldr	r2, [r7, #0]
 80020c4:	621a      	str	r2, [r3, #32]
  ep->xfer_count = 0U;
 80020c6:	697b      	ldr	r3, [r7, #20]
 80020c8:	2200      	movs	r2, #0
 80020ca:	61da      	str	r2, [r3, #28]
  ep->is_in = 1U;
 80020cc:	697b      	ldr	r3, [r7, #20]
 80020ce:	2201      	movs	r2, #1
 80020d0:	705a      	strb	r2, [r3, #1]
  ep->num = ep_addr & EP_ADDR_MSK;
 80020d2:	7afb      	ldrb	r3, [r7, #11]
 80020d4:	f003 0307 	and.w	r3, r3, #7
 80020d8:	b2da      	uxtb	r2, r3
 80020da:	697b      	ldr	r3, [r7, #20]
 80020dc:	701a      	strb	r2, [r3, #0]

  if ((ep_addr & EP_ADDR_MSK) == 0U)
 80020de:	7afb      	ldrb	r3, [r7, #11]
 80020e0:	f003 0307 	and.w	r3, r3, #7
 80020e4:	2b00      	cmp	r3, #0
 80020e6:	d106      	bne.n	80020f6 <HAL_PCD_EP_Transmit+0x70>
  {
    (void)USB_EP0StartXfer(hpcd->Instance, ep);
 80020e8:	68fb      	ldr	r3, [r7, #12]
 80020ea:	681b      	ldr	r3, [r3, #0]
 80020ec:	6979      	ldr	r1, [r7, #20]
 80020ee:	4618      	mov	r0, r3
 80020f0:	f004 f81b 	bl	800612a <USB_EPStartXfer>
 80020f4:	e005      	b.n	8002102 <HAL_PCD_EP_Transmit+0x7c>
  }
  else
  {
    (void)USB_EPStartXfer(hpcd->Instance, ep);
 80020f6:	68fb      	ldr	r3, [r7, #12]
 80020f8:	681b      	ldr	r3, [r3, #0]
 80020fa:	6979      	ldr	r1, [r7, #20]
 80020fc:	4618      	mov	r0, r3
 80020fe:	f004 f814 	bl	800612a <USB_EPStartXfer>
  }

  return HAL_OK;
 8002102:	2300      	movs	r3, #0
}
 8002104:	4618      	mov	r0, r3
 8002106:	3718      	adds	r7, #24
 8002108:	46bd      	mov	sp, r7
 800210a:	bd80      	pop	{r7, pc}

0800210c <HAL_PCD_EP_SetStall>:
  * @param  hpcd PCD handle
  * @param  ep_addr endpoint address
  * @retval HAL status
  */
HAL_StatusTypeDef HAL_PCD_EP_SetStall(PCD_HandleTypeDef *hpcd, uint8_t ep_addr)
{
 800210c:	b580      	push	{r7, lr}
 800210e:	b084      	sub	sp, #16
 8002110:	af00      	add	r7, sp, #0
 8002112:	6078      	str	r0, [r7, #4]
 8002114:	460b      	mov	r3, r1
 8002116:	70fb      	strb	r3, [r7, #3]
  PCD_EPTypeDef *ep;

  if (((uint32_t)ep_addr & EP_ADDR_MSK) > hpcd->Init.dev_endpoints)
 8002118:	78fb      	ldrb	r3, [r7, #3]
 800211a:	f003 0207 	and.w	r2, r3, #7
 800211e:	687b      	ldr	r3, [r7, #4]
 8002120:	685b      	ldr	r3, [r3, #4]
 8002122:	429a      	cmp	r2, r3
 8002124:	d901      	bls.n	800212a <HAL_PCD_EP_SetStall+0x1e>
  {
    return HAL_ERROR;
 8002126:	2301      	movs	r3, #1
 8002128:	e04c      	b.n	80021c4 <HAL_PCD_EP_SetStall+0xb8>
  }

  if ((0x80U & ep_addr) == 0x80U)
 800212a:	f997 3003 	ldrsb.w	r3, [r7, #3]
 800212e:	2b00      	cmp	r3, #0
 8002130:	da0e      	bge.n	8002150 <HAL_PCD_EP_SetStall+0x44>
  {
    ep = &hpcd->IN_ep[ep_addr & EP_ADDR_MSK];
